S0130000526F626F74536F727465722E737265638C
S113000073C00000A1C000009FC000009DC000009C
S11300109BC000000C94C41297C0000095C000005F
S113002093C0000091C000008FC000008DC000008C
S11300308BC0000089C0000087C0000085C000009C
S113004083C0000081C000007FC000007DC00000AC
S11300507BC000000C94400D77C0000075C0000008
S113006073C0000071C000006FC000006DC00000CC
S11300706BC0000069C0000067C0000065C00000DC
S113008063C0000061C000005FC000005DC00000EC
S11300905BC0000059C0000057C0000055C00000FC
S11300A053C0000067C200004FC000004DC00000F4
S11300B04BC000003AC2000047C0000045C0000029
S11300C043C0000041C000003FC000003DC000002C
S11300D03BC0000039C0000037C0000035C000003C
S11300E033C00000F303F90311241FBECFEFD1E2A4
S11300F0DEBFCDBF00E00CBF12E0A0E0B2E0E0EF55
S1130100FDE200E00BBF02C007900D92AE38B107CC
S1130110D9F729E0AEE8B2E001C01D92AD32B207D2
S1130120E1F710E0C3E7D0E000E006C02197010941
S1130130802FFE010E949915C237D10780E008077D
S1130140A9F733D30C94E7165BCF08950895FC0107
S1130150808191810895FC01828193810895FC013D
S1130160848195810895FC01868197810895FC011D
S1130170718360830895FC01738362830895FC0195
S1130180758364830895FC01778366830895FC0175
S1130190608708950F931F93CF93DF938C010F5FB4
S11301A01F4F51F0EC01C55ADF4FC017D10721F0A2
S11301B02997CE01CBDFF9CFDF91CF911F910F911A
S11301C00895613031F000F16230A9F0633051F0EC
S11301D00895E8E0F1E080818A7F808380818B7FCD
S11301E080830895E8E0F1E080818A7F80838081C4
S11301F0846080830895E8E0F1E0808185608083F5
S11302008081846080830895E8E0F1E080818560E6
S1130210808380818B7F808308956F927F928F92F9
S11302209F92AF92BF92CF92DF92EF92FF920F9381
S11302301F93CF93DF938C0161E0C3DFC80143D1E7
S11302407C0163E0C801BDDFC8013DD16C0162E0FF
S1130250C801B7DFC80137D15C0160E0C801B1DF74
S1130260C80131D14C01712C89E0871508F45AC0BA
S1130270C72DD0E0CE01880F991F880F991F880FD2
S1130280991FC80FD91F2196C00FD11FCE015FDF60
S11302900596E816F90648F4CE0159DF05978E1540
S11302A09F0528F46624639403C0612C01C0612C6B
S11302B06620B1F1CE014FDF0596C816D90638F491
S11302C0CE0149DF05978C159D0518F403C0612CF8
S11302D001C0612C662021F1CE0141DF0596A816EC
S11302E0B90638F4CE013BDF05978A159B0518F44F
S11302F003C0612C01C0612C662091F0CE0133DF74
S113030002968816990638F4CE012DDF02978815D7
S1130310990518F403C0612C01C0612C611004C05C
S11303207394A2CF77247A94872DDF91CF911F9174
S11303300F91FF90EF90DF90CF90BF90AF909F9080
S11303408F907F906F900895FF920F931F93CF9398
S1130350DF936A3008F033C0F62EEC0161E031DF40
S1130360CE01B1D02F2D30E08901000F111F000FF5
S1130370111F000F111F020F131F0F5F1F4F0C0FD0
S11303801D1FBC01C801F3DE63E0CE011ADFCE01FC
S11303909AD0BC01C801EFDE62E0CE0112DFCE01CB
S11303A092D0BC01C801EBDE60E0CE010ADFCE01D1
S11303B08AD0BC01C801E7DE6F2DC801E8DEDF91F9
S11303C0CF911F910F91FF900895613079F028F03B
S11303D06230A9F06330E1F00895E8E0F1E0808153
S11303E0887F80838081897F80830895E8E0F1E0BD
S11303F08081887F80838081866080830895E8E09F
S1130400F1E08081876080838081897F8083089583
S1130410E8E0F1E08081876080838081866080836A
S11304200895BF92CF92DF92EF92FF920F931F93A2
S1130430CF93DF931F92CDB7DEB76C01B62E26D0D3
S113044076018FEFE81AF80A09E010E00F3F8FEF0A
S1130450180741F0C70179DE89E0E80EF11C01506C
S11304601109F4CFCE01019611D060E0C601A9DED6
S11304706B2DC601AADF0F90DF91CF911F910F91D1
S1130480FF90EF90DF90CF90BF900895E8E0F1E007
S113049080818068808380818064808380818062A1
S11304A080838081806180831092A00083EC80939C
S11304B0A1001092A20081E289BB1092A5001092C3
S11304C0A4007894089581E080930A021092950222
S11304D01092940210928F0210928E021092900247
S11304E010929102109292021092930281E289BBBF
S11304F08093720080918E0290918F02892B81F4F7
S11305008091900290919102A0919202B0919302F5
S11305100B97A105B10570F31092720081E289BBBB
S113052080918E0290918F0208951F920F920FB6C0
S11305300F9211248F939F93AF93BF938091900256
S113054090919102A0919202B09193020196A11D03
S1130550B11D8093900290939102A0939202B09364
S11305609302BF91AF919F918F910F900FBE0F9007
S11305701F9018951F920F920FB60F9211240BB66D
S11305800F92CF92DF92EF92FF920F931F932F93CC
S11305903F934F935F936F937F938F939F93AF9307
S11305A0BF93EF93FF936091A6007091A700809191
S11305B00A02882379F0109290021092910210920C
S11305C09202109293027093950260939402109297
S11305D00A0281C0C89B13C080919002909191023D
S11305E0A0919202B09193020196A11DB11D809336
S11305F0900290939102A0939202B093930210926E
S1130600720081E289BB80919402909195026817EF
S1130610790758F58091900290919102A0919202ED
S1130620B0919302892B8A2B8B2B99F080919002A5
S113063090919102A0919202B09193020197A10925
S1130640B1098093900290939102A0939202B09387
S113065093028091940290919502681B790B6150EA
S11306607109CB01A0E0B0E009C08091940290919F
S11306709502681B790BCB01A0E0B0E04091900299
S1130680509191026091920270919302BA015527A0
S113069044278A019B01080F191F2A1F3B1FC90108
S11306A0B801C0900602D0900702E0900802F090D2
S11306B009020E948014A70196010E94361520E0C9
S11306C034E244E759E40E9436150E9454147093AE
S11306D08F0260938E02FF91EF91BF91AF919F9132
S11306E08F917F916F915F914F913F912F911F91C6
S11306F00F91FF90EF90DF90CF900F900BBE0F9073
S11307000FBE0F901F901895FFCF87E992E00E94CB
S1130710711287E992E00E94861287E992E00E94B2
S1130720E611813019F0823061F0F3CF60919602C6
S11307308DEA92E009DE809196028F5F80939602A3
S1130740E8CF8DEA92E069DD682F88E093E0F3D189
S1130750E0CF0F931F93CF93DF93EC018B010197AD
S113076071F46F3F7F4F59F488E093E05ED062E00C
S11307708DEA92E056DE87E992E00E947E11CD2B4D
S113078031F40F3F1F4F19F48DEA92E003DDDF913E
S1130790CF911F910F910895FFCF0C94B015089538
S11307A0009711F00C9448160895A12CB12CC12C7B
S11307B0D12CE12CF12C00E020E030E048EC50E0BA
S11307C06EE072E085E893E00E941A0E20E030E0CB
S11307D048EC50E061E272E084E893E00E941A0E73
S11307E00E94D20EFFCF6FEF7FEF81E090E0B1CF98
S11307F008956FEF7FEF80E090E0ABCF08958C0118
S1130800C0E0C630E8F7EC2FF0E03196EE0FFF1FA2
S1130810E00FF11F80819181DC01ED91FC91048056
S1130820F581E02D1995CF5FECCFAF92BF92CF92B7
S1130830DF92EF92FF920F931F93CF93DF93EC011C
S1130840D5D58E010F5F1F4FC80175D689E190E0A1
S1130850A4DF7C01BE0166D2FB82EA8289E190E0DA
S11308609CDF7C01BE0104D3FD82EC8289E190E02F
S113087094DF7C01BE01A2D3FF82EE8289E190E085
S11308808CDF7C01B8013ED4F986E88689E190E0EA
S113089084DF7C01B801DAD4FB86EA8689E190E042
S11308A07CDF7C01B80172D5FD86EC86A12CB12CCD
S11308B0C12CD12CE12CF12C00E09E0148EC50E03D
S11308C06DE272E08FEF93E00E941A0EDF91CF91F8
S11308D01F910F91FF90EF90DF90CF90BF90AF905A
S11308E00895CF93DF93EC0188859985DC01ED9120
S11308F0FC910680F781E02D68E219958A859B8535
S1130900DC01ED91FC910680F781E02D6AE51995F3
S11309108A819B81DC01ED91FC910680F781E02DB9
S113092060E019958CED95E00E9419108C819D81F1
S1130930DC01ED91FC910680F781E02D63E21995CD
S11309408E819F81DC01ED91FC910680F781E02D81
S11309506FE319958CED95E00E9419108C859D85A7
S1130960DC01ED91FC910680F781E02D6FE3199590
S11309708AEF90E00E9419108C819D81DC01ED9139
S1130980FC910680F781E02D66E419958E819F81A4
S1130990DC01ED91FC910680F781E02D66E4199568
S11309A088859985DC01ED91FC910680F781E02D25
S11309B066E41995DF91CF910895CF93DF93EC010D
S11309C08CED95E00E9419108C819D81DC01ED91E4
S11309D0FC910680F781E02D63E219958E819F8159
S11309E0DC01ED91FC910680F781E02D68E2199518
S11309F08CED95E00E9419108C859D85DC01ED91AC
S1130A00FC910680F781E02D60E019958AEF90E073
S1130A100E9419108C819D81DC01ED91FC9106806E
S1130A20F781E02D6AE519958E819F81DC01ED91B6
S1130A30FC910680F781E02D6AE5199588859985F2
S1130A40DC01ED91FC910680F781E02D6AE51995B2
S1130A508AEF90E00E941910DF91CF910895CF930F
S1130A60DF93EC018A819B81DC01ED91FC9106808E
S1130A70F781E02D68E21995CE019FDFDF91CF91D8
S1130A800895CF93DF93EC018A819B81DC01ED9182
S1130A90FC910680F781E02D64E41995CE018DDF89
S1130AA0DF91CF910895CF93DF93EC018A819B81ED
S1130AB0DC01ED91FC910680F781E02D60E619954B
S1130AC0CE017BDFDF91CF910895CF93DF93EC01CB
S1130AD08A819B81DC01ED91FC910680F781E02DF8
S1130AE06CE71995CE0169DFDF91CF910895CF931B
S1130AF0DF93EC018A819B81DC01ED91FC910680FE
S1130B00F781E02D68E91995CE0157DFDF91CF9188
S1130B100895CF93DF93EC018A819B81DC01ED91F1
S1130B20FC910680F781E02D64EB1995CE0145DF39
S1130B30DF91CF910895CF93DF93EC01623029F1D7
S1130B4028F4662351F06130A1F04EC06430A9F15D
S1130B5040F1653009F43DC047C0C3DE84EF91E045
S1130B600E941910CE017BDF84EF91E00E941910DE
S1130B703BC0B7DE84EF91E00E941910CE0181DF03
S1130B8084EF91E00E9419102FC0ABDE84EF91E056
S1130B900E941910CE0187DF84EF91E00E941910A2
S1130BA023C09FDE84EF91E00E941910CE018DDFF7
S1130BB084EF91E00E94191017C093DE84EF91E056
S1130BC00E941910CE0193DF84EF91E00E94191066
S1130BD00BC087DE84EF91E00E941910CE0199DFEB
S1130BE084EF91E00E941910DF91CF910895CF9284
S1130BF0DF92EF92FF92CF93DF93FC0126892617B1
S1130C00C0F0EC01C680D780E084F18470E080E01D
S1130C1090E00E948214A70196010E9436152A8949
S1130C203B894C895D890E9484136A877B878C8702
S1130C309D87DF91CF91FF90EF90DF90CF90089543
S1130C4028E332E0FC01318320830895CF93DF93BE
S1130C50EC01F6DFCE01A4DDDF91CF9108954F9230
S1130C605F926F927F928F929F92AF92BF92CF9238
S1130C70DF92EF92FF92CF93DF93EC018A849B84FF
S1130C80AC84BD84CE84DF84E888F98820E030E039
S1130C9040E85DE3C701B6010E9484132B013C01C7
S1130CA09B01AC01C501B4010E943215181674F4FD
S1130CB04E865F86688A798AB301A2018A819B8104
S1130CC0B9D38F89988D0E9419101DC0A701960170
S1130CD0C501B4010E94E8138823ACF420E030E09D
S1130CE040E85DE3C701B6010E948313AB01BC0178
S1130CF04E875F87688B798B8A819B819BD38F8991
S1130D00988D0E941910DF91CF91FF90EF90DF90A2
S1130D10CF90BF90AF909F908F907F906F905F9097
S1130D204F900895CF93DF93EC01CB0124E432E09C
S1130D30398328837B836A8349E35EE863E67DE342
S1130D404E835F836887798740E050E060E270E417
S1130D504A8B5B8B6C8B7D8B2AE030E0388F2F8B3A
S1130D6024EB2E8B40E050E060EF70E44A875B8711
S1130D706C877D875FD38A859B85AC85BD858E878F
S1130D809F87A88BB98BDF91CF91089528E332E038
S1130D90FC01318320830895CF93DF93EC01F6DFC8
S1130DA0CE01FEDCDF91CF9108954F925F926F9256
S1130DB07F928F929F92AF92BF92CF92DF92EF92E7
S1130DC0FF92CF93DF93EC018A849B84AC84BD842F
S1130DD0CE84DF84E888F98820E030E040E85DE3F1
S1130DE0C701B6010E9484132B013C019B01AC0195
S1130DF0C501B4010E943215181674F44E865F863C
S1130E00688A798AB301A2018A819B813ED38F8942
S1130E10988D0E9419101DC0A7019601C501B40147
S1130E200E94E8138823ACF420E030E040E85DE35E
S1130E30C701B6010E948313AB01BC014E875F87D3
S1130E40688B798B8A819B8120D38F89988D0E94AE
S1130E501910DF91CF91FF90EF90DF90CF90BF906A
S1130E60AF909F908F907F906F905F904F90089578
S1130E70CF93DF93EC01CB0120E532E03983288363
S1130E807B836A834FE852EC65E77DE34E835F839F
S1130E906887798740E050E060E470E44A8B5B8BBC
S1130EA06C8B7D8B2AE030E0388F2F8B26E92E8BDC
S1130EB046E656E666E071E44A875B876C877D8781
S1130EC0E4D28A859B85AC85BD858E879F87A88B58
S1130ED0B98BDF91CF91089528E332E0FC0131838F
S1130EE020830895CF93DF93EC01F6DFCE0158DC25
S1130EF0DF91CF9108954F925F926F927F928F927C
S1130F009F92AF92BF92CF92DF92EF92FF92CF93D4
S1130F10DF93EC018A849B84AC84BD84CE84DF841B
S1130F20E888F98820E030E040E85DE3C701B601D5
S1130F300E9484132B013C019B01AC01C501B40147
S1130F400E943215181674F44E865F86688A798A70
S1130F50B301A2018A819B81C3D28F89988D0E949B
S1130F6019101DC0A7019601C501B4010E94E81320
S1130F708823ACF420E030E040E85DE3C701B6012B
S1130F800E948313AB01BC014E875F87688B798B0A
S1130F908A819B81A5D28F89988D0E941910DF9137
S1130FA0CF91FF90EF90DF90CF90BF90AF909F9044
S1130FB08F907F906F905F904F900895CF93DF93C1
S1130FC0EC01CB012CE532E0398328837B836A83EF
S1130FD049E35EE863E67DE34E835F836887798750
S1130FE040E050E060E270E44A8B5B8B6C8B7D8B5D
S1130FF02AE030E0388F2F8B24EB2E8B40E050E03A
S113100060EF70E44A875B876C877D8769D28A8545
S11310109B85AC85BD858E879F87A88BB98BDF9117
S1131020CF91089528E332E0FC01318320830895B1
S1131030CF93DF93EC01F6DFCE01B2DBDF91CF91EA
S113104008954F925F926F927F928F929F92AF9288
S1131050BF92CF92DF92EF92FF92CF93DF93EC0196
S11310608A849B84AC84BD84CE84DF84E888F98838
S113107020E030E040E85DE3C701B6010E9484133C
S11310802B013C019B01AC01C501B4010E94321546
S113109018166CF44E865F86688A798AB301A201B9
S11310A08C819D816ED28AE090E0C3D71CC0A701D9
S11310B09601C501B4010E94E8138823A4F420E03A
S11310C030E040E85DE3C701B6010E948313AB0141
S11310D0BC014E875F87688B798B8C819D8151D24F
S11310E08AE090E0A6D7DF91CF91FF90EF90DF9058
S11310F0CF90BF90AF909F908F907F906F905F90B4
S11311004F900895CF93DF93EC01CB0128E632E0B2
S1131110398328837D836C8349E35EE863E67DE35A
S11311204E835F836887798740E050E060E270E433
S11311304A8B5B8B6C8B7D8B25E030E0388F2F8B5B
S113114024EB2E8B40E050E060EF70E44A875B872D
S11311506C877D8716D28A859B85AC85BD858E87F5
S11311609F87A88BB98BDF91CF91089528E332E054
S1131170FC01318320830895CF93DF93EC01F6DFE4
S1131180CE010EDBDF91CF9108954F925F926F9263
S11311907F928F929F92AF92BF92CF92DF92EF9203
S11311A0FF92CF93DF93EC018A849B84AC84BD844B
S11311B0CE84DF84E888F98820E030E040E85DE30D
S11311C0C701B6010E9484132B013C019B01AC01B1
S11311D0C501B4010E94321518166CF44E865F8660
S11311E0688A798AB301A2018C819D81F5D18F89A6
S11311F0988D1FD71CC0A7019601C501B4010E9498
S1131200E8138823A4F420E030E040E85DE3C7015C
S1131210B6010E948313AB01BC014E875F87688BC4
S1131220798B8C819D81D8D18F89988D02D7DF915C
S1131230CF91FF90EF90DF90CF90BF90AF909F90B1
S11312408F907F906F905F904F900895CF93DF932E
S1131250EC01CB0124E732E0398328837D836C835E
S113126049E35EE863E67DE34E835F8368877987BD
S113127040E050E060E270E44A8B5B8B6C8B7D8BCA
S113128021E030E0388F2F8B24EB2E8B4A875B874D
S11312906C877D87A1D18A859B85AC85BD858E872A
S11312A09F87A88BB98BDF91CF91089528E332E013
S11312B0FC01318320830895CF93DF93EC01F6DFA3
S11312C0CE016EDADF91CF9108954F925F926F92C3
S11312D07F928F929F92AF92BF92CF92DF92EF92C2
S11312E0FF92CF93DF93EC018A849B84AC84BD840A
S11312F0CE84DF84E888F98820E030E040E85DE3CC
S1131300C701B6010E9484132B013C019B01AC016F
S1131310C501B4010E94321518166CF44E865F861E
S1131320688A798AB301A2018C819D8180D18F89D9
S1131330988D7FD61CC0A7019601C501B4010E94F7
S1131340E8138823A4F420E030E040E85DE3C7011B
S1131350B6010E948313AB01BC014E875F87688B83
S1131360798B8C819D8163D18F89988D62D6DF9131
S1131370CF91FF90EF90DF90CF90BF90AF909F9070
S11313808F907F906F905F904F900895CF93DF93ED
S1131390EC01CB0120E832E0398328837D836C8320
S11313A049E25AE862EA7DE34E835F83688779877E
S11313B040E050E060E270E44A8B5B8B6C8B7D8B89
S11313C021E030E0388F2F8B2FE32E8B4A875B8709
S11313D06C877D872CD18A859B85AC85BD858E875E
S11313E09F87A88BB98BDF91CF91089584B18062D8
S11313F084B984B1806484B984B1806884B988EA8A
S11314008093800084E180938100109282008EE6B4
S113141092E0909387008093860010928900109246
S1131420880010928B0010928A0010928D00109206
S11314308C000895CF92DF92EF92FF926A017B01B4
S1131440209186003091870036952795369527950B
S1131450ABE7B4E10E94A11596958795BC01772767
S1131460072E000C880B990B0E948214A701960189
S11314700E9436150E94541470938900609388006A
S1131480FF90EF90DF90CF900895CF92DF92EF928C
S1131490FF926A017B012091860030918700369586
S11314A0279536952795ABE7B4E10E94A11596954B
S11314B08795BC017727072E000C880B990B0E9497
S11314C08214A70196010E9436150E945414709349
S11314D08B0060938A00FF90EF90DF90CF90089587
S11314E0CF92DF92EF92FF926A017B0120918600F6
S11314F0309187003695279536952795ABE7B4E16B
S11315000E94A11596958795BC017727072E000C9C
S1131510880B990B0E948214A70196010E9436152C
S11315200E94541470938D0060938C00FF90EF9090
S1131530DF90CF900895EAE0F1E0808188608083B5
S113154080818061808380818062808388EA809347
S1131550200184E180932101109222018EE692E021
S1131560909327018093260110922901109228015B
S113157010922B0110922A0110922D0110922C012D
S11315800895CF92DF92EF92FF926A017B0120913E
S11315902601309127013695279536952795ABE797
S11315A0B4E10E94A11596958795BC017727072E73
S11315B0000C880B990B0E948214A70196010E94CB
S11315C036150E9454147093290160932801FF90EA
S11315D0EF90DF90CF900895CF92DF92EF92FF9239
S11315E06A017B01209126013091270136952795C8
S11315F036952795ABE7B4E10E94A115969587959A
S1131600BC017727072E000C880B990B0E948214CB
S1131610A70196010E9436150E94541470932B0161
S113162060932A01FF90EF90DF90CF900895CF92BE
S1131630DF92EF92FF926A017B01209126013091A3
S113164027013695279536952795ABE7B4E10E9497
S1131650A11596958795BC017727072E000C880B5A
S1131660990B0E948214A70196010E9436150E94CC
S1131670541470932D0160932C01FF90EF90DF9030
S1131680CF900895FC010396928381832FEF3FEF5F
S11316903483238396838583908787831082089578
S11316A0FC01118610860895CF93DF93FC01DB01C2
S11316B021813281E9018A819B8113969C938E93C7
S11316C012978181928115969C938E9314978A81A7
S11316D09B81EC017D836C83E9017B836A83728344
S11316E061831996FC93EE93189780818F5F8083B2
S11316F0DF91CF910895CF93DF93EB014881598116
S11317004F3F2FEF520731F4DC011796ED91FC9116
S113171018970DC0FC01339603C00280F381E02DBD
S1131720A281B3812D913C9142175307B0F7A28156
S1131730B381BB83AA831596DC93CE931497FD8360
S1131740EC83D383C28399878887FC0120812F5F30
S11317502083DF91CF910895FC01A281B38184811C
S1131760958115969C938E931497A481B58182815B
S1131770938113969C938E931297A085B1851196AD
S11317808D919C911297E817F90731F48481958122
S113179012969C938E931197118610868C9181508A
S11317A08C9308958AEF87BD82E084BD93E095BD54
S11317B080936E00089531E1FC013083319722E279
S11317C020833197A3E3A08331976083319770839B
S11317D03197108231971082319760E86083319796
S11317E010823197108231971082319762E06083C2
S11317F0319763E06083319764E06083319765E0FB
S11318006083319766E06083319767E06083319746
S113181068E06083319769E06083319760E16083B9
S113182031973083319732E13083319733E130831C
S1131830319734E13083319735E13083319736E1A4
S11318403083319737E13083319738E130833197F2
S113185039E13083319730E23083319731E230839C
S113186031972083319723E2208331974083319746
S11318705083319726E22083319727E220833197E2
S113188028E22083319729E22083319720E32083C3
S1131890319721E320838997089584DFA091270954
S11318A0B0912809CD91CDBFDD91DEBFFF91EF91BD
S11318B0DF91CF91BF91AF919F918F917F916F9164
S11318C05F914F913F912F911F910F91FF90EF9056
S11318D0DF90CF90BF90AF909F908F907F906F904C
S11318E05F904F903F902F901F900F900CBE0F90E1
S11318F00BBE0F900FBE0F90089581E008950F92D4
S11319000FB6F8940F920BB60F920CB60F921F926B
S113191011242F923F924F925F926F927F928F92F7
S11319209F92AF92BF92CF92DF92EF92FF920F936A
S11319301F932F933F934F935F936F937F938F9353
S11319409F93AF93BF93CF93DF93EF93FF93A091B4
S11319502709B09128090DB60D920EB60D9286D3C3
S1131960A0912709B0912809CD91CDBFDD91DEBFAB
S1131970FF91EF91DF91CF91BF91AF919F918F91A3
S11319807F916F915F914F913F912F911F910F9193
S1131990FF90EF90DF90CF90BF90AF909F908F908B
S11319A07F906F905F904F903F902F901F900F907B
S11319B00CBE0F900BBE0F900FBE0F9008950F92A8
S11319C00FB6F8940F920BB60F920CB60F921F92AB
S11319D011242F923F924F925F926F927F928F9237
S11319E09F92AF92BF92CF92DF92EF92FF920F93AA
S11319F01F932F933F934F935F936F937F938F9393
S1131A009F93AF93BF93CF93DF93EF93FF93A091F3
S1131A102709B09128090DB60D920EB60D92F1D199
S1131A2025D3A0912709B0912809CD91CDBFDD918F
S1131A30DEBFFF91EF91DF91CF91BF91AF919F9165
S1131A408F917F916F915F914F913F912F911F9152
S1131A500F91FF90EF90DF90CF90BF90AF909F9049
S1131A608F907F906F905F904F903F902F901F903A
S1131A700F900CBE0F900BBE0F900FBE0F900895E9
S1131A809EDF1895CF93DF93EC01B5D12091160317
S1131A9030911703C9018C0F9D1F8C3D45E09407BD
S1131AA058F42817390758F4E901C85EDC4F9093BD
S1131AB017038093160305C0C0E0D0E002C0C0E065
S1131AC0D0E046D2CE01DF91CF9108950895809160
S1131AD01E098230E0F313DFFACFEF92FF920F93E7
S1131AE01F93CF93DF937C01EB0181E290E0CADF87
S1131AF08C01892BA9F0209719F4C701C3DF01C019
S1131B00CE01F801908F878B009729F4C801DEDF9E
S1131B1000E010E005C0A70165EA70E00E94D1165C
S1131B20C801DF91CF911F910F91FF90EF9008951D
S1131B301F93CF93DF93EC01142F48E050E04996B4
S1131B400E94D81618A2111110E01E8BCE01029625
S1131B50A7DDCE010C96A4DDD987C88781E090E08B
S1131B60811B91099D878C87DB8BCA8BDF91CF9179
S1131B701F910895CF93C0E00FC08C2F90E09C017B
S1131B80220F331F220F331F220F331F820F931F85
S1131B90825E964F77DDCF5FCC2379F385E199E0C0
S1131BA071DD8CE099E06EDD8FEF98E06BDD85E10F
S1131BB099E090930B0980930A098CE099E0909343
S1131BC0090980930809CF910895CF93DF93EC011D
S1131BD0E0912709F0912809938382838091FC087E
S1131BE09091FD08C817D90760F460912709709196
S1131BF0280980910809909109096E5F7F4F7BDD68
S1131C0016C0609127097091280980910A09909162
S1131C100B096E5F7F4F6FDD80910B0290910C0278
S1131C20C817D90720F4D0930C02C0930B02DF919C
S1131C30CF9108952F923F924F925F927F928F920D
S1131C409F92AF92BF92CF92DF92EF92FF920F9347
S1131C501F93CF93DF9300D01F92CDB7DEB79A8343
S1131C6089834B015C834B831901702EB6012501D6
S1131C70CA0133DF5C01009709F46CC0FC01C7881A
S1131C80D08C8B819C810197C80ED91E0B811C813D
S1131C909201472DB401C5014BDFA10169817A810D
S1131CA0C60189DDF50191838083E114F10419F003
S1131CB0F701B182A0820FB6F8940F928091FE08CA
S1131CC08F5F8093FE088091270990912809892BC2
S1131CD051F4B0922809A09227098091FE0881301E
S1131CE089F448DF0FC08091F90881110BC0E0919D
S1131CF02709F09128098689781620F0B0922809DE
S1131D00A0922709F50186899091FB08981710F491
S1131D108093FB089091F4089F5F9093F40890914E
S1131D20FA08981710F48093FA0890E0B5016E5FF2
S1131D307F4F9C01220F331F220F331F220F331FAB
S1131D40820F931F825E964FAFDC0F900FBEF1E0BF
S1131D50F98302C08FEF8983E981E13061F48091D6
S1131D60F908882341F0E0912709F0912809868930
S1131D70871508F4C4DD89810F900F900F900F90A0
S1131D80DF91CF911F910F91FF90EF90DF90CF9053
S1131D90BF90AF909F908F907F905F904F903F90B7
S1131DA02F900895AF92BF92CF92DF92EF92FF925D
S1131DB00F93A12CB12CC12CD12CE12CF12C00E0DF
S1131DC020E030E045E550E068E872E087E69DE019
S1131DD031DF813041F4F8948093F9081092FD08C2
S1131DE01092FC085ADD0F91FF90EF90DF90CF9096
S1131DF0BF90AF9008958091F8088F5F8093F808A2
S1131E0008950F931F93CF93DF938091F808811166
S1131E1095C08091FC089091FD0801969093FD086F
S1131E208093FC088091FC089091FD08892B99F51A
S1131E3080910A0990910B092091080930910909B0
S1131E4030930B0920930A09909309098093080998
S1131E508091F5088F5F8093F508E0910A09F0916D
S1131E600B098081811107C08FEF9FEF90930C02C3
S1131E7080930B0210C0E0910A09F0910B090580D0
S1131E80F681E02D0680F781E02D82819381909385
S1131E900C0280930B022091FC083091FD08809184
S1131EA00B0290910C022817390708F44CC0E091FA
S1131EB00A09F0910B098081811107C08FEF9FEF10
S1131EC090930C0280930B023EC0E0910A09F091BA
S1131ED00B090580F681E02DC681D7818A819B811B
S1131EE02091FC083091FD082817390728F49093B5
S1131EF00C0280930B0227C08E010E5F1F4FC80196
S1131F002BDC8C899D89892B19F0CE010C9624DC5D
S1131F108E899091FA08981710F48093FA0890E04B
S1131F209C01220F331F220F331F220F331F820FF6
S1131F30931FB801825E964FB7DBB9CF8091F70843
S1131F408F5F8093F708DF91CF911F910F910895D0
S1131F50FF920F931F93CF93DF930FB6F8940F92D2
S1131F608091F80881508093F8088091F8088111D5
S1131F7055C08091FE0881112FC053C0E09104091F
S1131F80F0910509C681D781CE010C96E5DB8E015F
S1131F900E5F1F4FC801E0DB8E899091FA089817F5
S1131FA010F48093FA0890E09C01220F331F220F53
S1131FB0331F220F331F820F931FB801825E964F87
S1131FC073DB9E89E0912709F09128098689981787
S1131FD020F0FF24F39401C0F12C8091FF088111BB
S1131FE0CDCF8091F708811107C00CC00ADF809122
S1131FF0F70881508093F7088091F7088111F6CF94
S1132000FF24F39481E0F81621F08091F6088130E2
S113201039F41092F60873DC81E003C080E001C05B
S113202080E00F900FBEDF91CF911F910F91FF9031
S11320300895CF93DF93EC01892B89F0DCDE809146
S1132040FC089091FD08C80FD91F80912709909131
S11320502809029681DBCE01B8DD7ADF01C080E079
S1132060811101C04CDCDF91CF9108958091F80873
S1132070882349F081E08093F60808958091FA0856
S113208081508093FA088091FA0890E0FC01EE0FE9
S1132090FF1FEE0FFF1FEE0FFF1F8E0F9F1FFC0190
S11320A0E25EF64F8081882349F38091FA0890E03C
S11320B09C01220F331F220F331F220F331F280FBF
S11320C0391FD901A25EB64F1196ED91FC9112977A
S11320D00280F381E02D1296FC93EE9311972F5D0D
S11320E0364FE217F30729F422813381FD0132834D
S11320F02183FC01EE0FFF1FEE0FFF1FEE0FFF1FEA
S11321008E0F9F1FFC01E25EF64F0180F281E02DED
S113211086819781909328098093270908952BB18C
S11321202F772BB924B32D7F24BB000092B988B933
S113213084B38B7F84BB000084B3846084BB0000C1
S113214084B3826084BB08952BB120682BB924B377
S11321502D7F24BB000092B988B984B38B7F84BBE4
S1132160000084B3846084BB000084B3826084BBB9
S1132170089589E290E0D3CF089581E190E0CFCF34
S11321800895CF93C82F86E390E0C9DF8C2F90E0A9
S1132190DBDFCF910895CF93C82F8AE390E0BFDFB0
S11321A08C2F90E0D1DFCF91089583B3876083BBF8
S11321B08AB180688AB98FEF81B987B984B387609F
S11321C084BB8BB180688BB984B38E7F84BB84EF6E
S11321D091E02FDF84B3816084BB84EF91E029DF39
S11321E085E0D9DF88E0CDDFC8DFC3CF08958CE276
S11321F090E095CF089590E0982F8827990F990F34
S1132200990F20E2629FB0011124862B972B842B17
S11322109BCF08950F931F93CF93DF938617970750
S113222078F4EB018C018AE290E079DF812F90E071
S11322308BDFC80189DF8D2F90E086DFCE0184DF3C
S1132240DF91CF911F910F9108950F931F93CF9317
S1132250DF938617970778F4EB018C018BE290E00B
S11322605EDF812F90E070DFC8016EDF8D2F90E07C
S11322706BDFCE0169DFDF91CF911F910F9108953C
S11322806F927F928F929F92AF92BF92CF92EF9272
S11322900F93CF93DF935B013A01E901BC01640F13
S11322A0751F61507109D1DFB5016C0F7D1F61503D
S11322B07109C501AFDF9BDF812C912C540193017F
S11322C0DE013FD486169706A806B90650F4402FBF
S11322D06E2D8C2D90DF8FEF881A980AA80AB80A01
S11322E0EECF4BDFDF91CF910F91EF90CF90BF9066
S11322F0AF909F908F907F906F9008950F931F934E
S1132300CF93DF93CDB7DEB766970FB6F894DEBFF1
S11323100FBECDBF8C0136D1F80112821382148214
S113232015821682178210861286118613861486E9
S1132330158616861786108A118A128A148A138AB9
S1132340158ACE0145961ED18D899E89D8018D931B
S11323509D9384E18B8746E44C8788E790E09B8BD0
S11323608A8B3AEA3C8B84E68E878D879DE19F8732
S11323709AEE988B22E0298B5AE0FE013B9601905D
S11323800D925A95E1F758EC59834A834CE251E097
S1132390598748873A878C838B838CE28D832E837D
S11323A09F838AE0FE013196D8011C9601900D921C
S11323B08A95E1F7FADE66960FB6F894DEBF0FBE93
S11323C0CDBFDF91CF911F910F910895CF92DF92EE
S11323D0EF92FF920F931F93CF93DF931F921F925D
S11323E0CDB7DEB78C0119821A82AE014E5F5F4F02
S11323F0BE016F5F7F4F63D1698170E080E090E040
S113240081D26B017C01F801628170E080E090E090
S113241079D221E73DE34AEA5FE3DED19B01AC01D7
S1132420C701B6011FD31816D4F4F801618572856B
S113243080E090E065D221E73DE34AEA5FE3CCD156
S11324409B01AC01C701B601C3D1882344F4F80150
S113245093818A81981718F49385891770F1F8018C
S1132460648570E080E090E04DD221E73DE34AEAE4
S11324705FE3B2D19B01AC01C701B601F3D21816D8
S1132480F4F4F8016389748980E090E039D221E79B
S11324903DE34AEA5FE3A0D19B01AC01C701B60169
S11324A097D1882374F4F80195858A81981758F494
S11324B09589891750F080E009C081E007C080E069
S11324C005C080E003C080E001C082E00F900F905F
S11324D0DF91CF911F910F91FF90EF90DF90CF90FC
S11324E00895CF92EF920F93CC24CA94EE24EA94E9
S11324F00FEF20EF30E040E451E060E070E080E076
S113250090E0BEDE0F91EF90CF900895CF92EF92BE
S11325100F93CF93DF93EC01CF80E8840E812C815D
S113252030E04D8150E06B8170E08A8190E0A8DE5C
S1132530C988EA8808892E8530E04F8550E06D858A
S113254070E08C8590E09CDEDF91CF910F91EF904D
S1132550CF9008952CE9FC0120832CED2183E1E048
S1132560F1E08081846080838DB184608DB983B310
S1132570866083BB88E080936A008DB380618DBBE5
S113258078940895E7CF08951F920F920FB60F9293
S1132590112410920D020F900FBE0F901F901895EA
S11325A0DF92EF92FF920F931F93CF93DF936835DF
S11325B019F4FC01D08005C0693509F077C0FC012D
S11325C0D1808EB18B7F8EB988E090E032DDC7E098
S11325D0D0E0DD236CF188E090E02BDD24B38D2D79
S11325E090E00C2E02C0959587950A94E2F78170CD
S11325F09927880F991F82959295907F9827807FBD
S11326009827822B84BB6894EE24E1F8FF24F3948A
S1132610F70180818460808388E090E00ADDF7011F
S113262080818B7F808384B3897F84BB2197D1CFC2
S11326300F2EF7E0EF2EF12CF02DD12CFF20FCF023
S113264088E090E0F6DCC2E0D1E098819460988361
S113265088E090E0EEDC98819B7F98838CB185FBC9
S1132660002700F910E0C8010E2C02C0880F991F42
S11326700A94E2F7D82AF1E0EF1AF108DFCFC7E0B5
S1132680D0E0DD236CF088E090E0D3DCE2E0F1E020
S113269090819460908390819B7F90832197F1CF68
S11326A08EB184608EB98D2D809501C08FEFDF913E
S11326B0CF911F910F91FF90EF90DF900895EF92CB
S11326C0FF920F931F93CF93DF93EC017B018A0159
S11326D080910D028111FCCF68E5CE0161DFF70125
S11326E0808369E5CE015CDFF801808382E390E0BA
S11326F0A0DC8FEF80930D02DF91CF911F910F919A
S1132700FF90EF9008955058BB27AA270ED070C1B0
S113271061D130F066D120F031F49F3F11F41EF402
S113272056C10EF4E095E7FB4CC1E92F72D180F35A
S1132730BA17620773078407950718F071F49EF5BA
S11327408AC10EF4E0950B2EBA2FA02D0B01B9010E
S113275090010C01CA01A0011124FF27591B99F013
S1132760593F50F4503E68F11A16F040A22F232F1F
S1132770342F4427585FF3CF469537952795A7956F
S1132780F0405395C9F77EF41F16BA0B620B730B16
S1132790840BBAF09150A1F0FF0FBB1F661F771F87
S11327A0881FC2F70EC0BA0F621F731F841F48F43C
S11327B0879577956795B795F7959E3F08F0B3CFC2
S11327C09395880F08F09927EE0F979587950895AC
S11327D0D4D008F481E008950CD00AC102D140F0AD
S11327E0F9D030F021F45F3F19F0EBC0511134C13E
S11327F0EEC00FD198F39923C9F35523B1F3951B78
S1132800550BBB27AA2762177307840738F09F5F0D
S11328105F4F220F331F441FAA1FA9F333D00E2E7C
S11328203AF0E0E830D091505040E695001CCAF7E9
S113283029D0FE2F27D0660F771F881FBB1F2617AE
S113284037074807AB07B0E809F0BB0B802DBF0181
S1132850FF2793585F4F2AF09E3F510568F0B1C09F
S1132860FBC05F3FECF3983EDCF386957795679564
S1132870B795F7959F5FC9F7880F911D9695879532
S113288097F90895E1E0660F771F881FBB1F621751
S113289073078407BA0720F0621B730B840BBA0B0F
S11328A0EE1F88F7E0950895BCD088F09F5790F00C
S11328B0B92F9927B751A0F0D1F0660F771F881F61
S11328C0991F1AF0BA95C9F712C0B13081F0C3D07C
S11328D0B1E00895C0C0672F782F8827B85F39F01A
S11328E0B93FCCF3869577956795B395D9F73EF4C0
S11328F090958095709561957F4F8F4F9F4F089568
S1132900E89409C097FB3EF4909580957095619585
S11329107F4F8F4F9F4F9923A9F0F92F96E9BB273B
S11329209395F695879577956795B795F111F8CFB7
S1132930FAF4BB0F11F460FF1BC06F5F7F4F8F4F22
S11329409F4F16C0882311F096E911C0772321F018
S11329509EE8872F762F05C0662371F096E8862FB0
S113296070E060E02AF09A95660F771F881FDAF707
S1132970880F9695879597F90895990F0008550F34
S1132980AA0BE0E8FEEF16161706E807F907C0F0F1
S113299012161306E407F50798F0621B730B840BF9
S11329A0950B39F40A2661F0232B242B252B21F4D3
S11329B008950A2609F4A140A6958FEF811D811D73
S11329C0089597F99F6780E870E060E008959FEFAD
S11329D080EC089500240A941616170618060906B2
S11329E0089500240A941216130614060506089581
S11329F0092E0394000C11F4882352F0BB0F40F409
S1132A00BF2B11F460FF04C06F5F7F4F8F4F9F4F48
S1132A10089557FD9058440F551F59F05F3F71F0CA
S1132A204795880F97FB991F61F09F3F79F0879531
S1132A300895121613061406551FF2CF4695F1DFBA
S1132A4008C0161617061806991FF1CF869571054A
S1132A50610508940895E894BB2766277727CB017E
S1132A6097F908958ADF08F48FEF08950BD0C0CF4B
S1132A70B1DF28F0B6DF18F0952309F0A2CFA7CF75
S1132A801124EACFC6DFA0F3959FD1F3950F50E050
S1132A90551F629FF001729FBB27F00DB11D639F0C
S1132AA0AA27F00DB11DAA1F649F6627B00DA11DB2
S1132AB0661F829F2227B00DA11D621F739FB00D58
S1132AC0A11D621F839FA00D611D221F749F3327C8
S1132AD0A00D611D231F849F600D211D822F762F61
S1132AE06A2F11249F5750408AF0E1F088234AF05E
S1132AF0EE0FFF1FBB1F661F771F881F91505040AA
S1132B00A9F79E3F510570F05CCFA6CF5F3FECF371
S1132B10983EDCF3869577956795B795F795E79595
S1132B209F5FC1F7FE2B880F911D9695879597F9A6
S1132B300895EE0FFF1F881F8BBF0790F691E02DBD
S1132B401994A29FB001B39FC001A39F700D811D72
S1132B501124911DB29F700D811D1124911D0895A2
S1132B600F931F93CF93DF938230910510F482E08B
S1132B7090E0E0912B09F0912C0920E030E0A0E0F6
S1132B80B0E0309719F140815181028113814817D7
S1132B905907C8F08417950769F4109731F0129615
S1132BA00C93129713961C9327C000932B09109330
S1132BB02C0922C02115310519F04217530718F4C6
S1132BC09A01BD01EF01DF01F801DBCF21153105C9
S1132BD0F9F0281B390B2430310580F48A819B815C
S1132BE06115710521F0FB019383828304C09093E6
S1132BF02C0980932B09FE01329644C0FE01E20F9A
S1132C00F31F8193919322503109398328833AC069
S1132C102091290930912A09232B41F420910202A1
S1132C203091030230932A0920932909209100024C
S1132C30309101022115310541F42DB73EB7409181
S1132C40040250910502241B350BE0912909F091EF
S1132C502A09E217F307A0F42E1B3F0B28173907A4
S1132C6078F0AC014E5F5F4F2417350748F04E0FE4
S1132C705F1F50932A09409329098193919302C0BD
S1132C80E0E0F0E0CF01DF91CF911F910F91089523
S1132C90CF93DF93009709F481C0FC01329713822C
S1132CA01282A0912B09B0912C09109781F42081F4
S1132CB03181820F931F2091290930912A09281705
S1132CC0390751F5F0932A09E093290967C0ED010A
S1132CD020E030E0CE17DF0740F44A815B819E019B
S1132CE041155105F1F0EA01F5CFD383C283408148
S1132CF05181840F951FC817D90759F48881998188
S1132D00840F951F0296918380838A819B8193838C
S1132D1082832115310529F4F0932C09E0932B09C2
S1132D203DC0E901FB83EA8349915991C40FD51F42
S1132D30EC17FD0761F480819181840F951F029641
S1132D40E90199838883828193819B838A83E0E06C
S1132D50F0E012968D919C911397009719F0FD0164
S1132D60DC01F7CF8D919C9111979D012E5F3F4F10
S1132D70820F931F2091290930912A0928173907B6
S1132D8069F4309729F410922C0910922B0902C08F
S1132D9013821282B0932A09A0932909DF91CF915B
S1132DA00895DC0101C06D9341505040E0F708954F
S1132DB0FB01DC014150504048F001900D9200208D
S1132DC0C9F701C01D9241505040E0F7089510E04A
S1132DD0C3E7D0E000E005C0802FFE01AADE219603
S1132DE0011DC437D10780E00807B1F7F894FFCF7D
S1132DF000002D092000BD37863601FFFFFF44691E
S1132E0073706C6179202B2041726D205461736B57
S1132E10004B6579706164205461736B004D6F746D
S1132E206F7273000000000000000000CC03F7057F
S1132E3000000000200626062F06F705000000000B
S1132E40C606CC06D506F705000000006C0772071D
S1132E507B07F70500000000120818082108F70591
S1132E6000000000B608BC08C508F7050000000013
S1112E7056095C096509F70549444C45000004
S9030000FC
