S0130000526F626F74536F727465722E737265638C
S113000071C000008FC000008DC000008BC00000D4
S113001089C0000087C0000085C0000083C00000C4
S113002081C000007FC000007DC000007BC00000D4
S113003079C0000077C0000075C0000073C00000E4
S113004071C000006FC000006DC000006BC00000F4
S113005069C0000067C0000065C0000063C0000004
S113006061C000005FC000005DC000005BC0000014
S113007059C0000057C0000055C0000053C0000024
S113008051C000004FC000004DC000004BC0000034
S113009049C0000047C0000045C0000043C0000044
S11300A041C0000045C200003DC000003BC000004C
S11300B039C0000018C2000035C000000C94700C58
S11300C031C000002FC000002DC000002BC0000074
S11300D029C0000027C0000025C0000023C0000084
S11300E021C0000011241FBECFEFD1E2DEBFCDBF7F
S11300F000E00CBF12E0A0E0B2E0E8E7F6E200E0C6
S11301000BBF02C007900D92AE3BB107D9F728E0B0
S1130110AEEBB2E001C01D92AF3DB207E1F743D3AD
S11301200C943A136DCF0895FC0180819181089558
S1130130FC01828193810895FC0184819581089555
S1130140FC01868197810895FC0171836083089581
S1130150FC01738362830895FC01758364830895AD
S1130160FC01778366830895FC01608708956130FC
S113017031F0D0F0623089F0633041F0089588B1F5
S11301808B7F88B988B1877F88B9089588B18B7FC0
S113019088B988B1886088B9089588B1846088B9BD
S11301A088B1886088B9089588B1846088B988B1B5
S11301B0877F88B908953F924F925F926F927F92A2
S11301C08F929F92AF92BF92CF92DF92EF92FF9263
S11301D00F931F93CF93DF9300D01F92CDB7DEB759
S11301E07C0161E0C4DFC70149D15C0163E0C70160
S11301F0BEDFC70143D13C0162E0C701B8DFC701DC
S11302003DD12C0160E0C701B2DFC70137D19A8329
S11302108983312C29E0231508F451C0432D50E083
S1130220CA01880F991F880F991F880F991F480FBB
S1130230591F4F5F5F4F4E0D5F1D5C834B83CA0197
S113024073DF8C018B819C8173DF6C018B819C81BA
S113025073DF4C018B819C8173DF98012C5E3F4FCF
S1130260A216B30650F5045111090A151B0528F509
S113027096012C5E3F4F62167306F8F454E1C51ADA
S1130280D108C614D704C8F494012C5E3F4F42161B
S1130290530698F424E1821A91088414950468F4AE
S11302A09C012C593F4F49815A814217530728F426
S11302B0845691098417950720F03394ABCF8FEFC0
S11302C001C0832D0F900F900F900F90DF91CF916D
S11302D01F910F91FF90EF90DF90CF90BF90AF9060
S11302E09F908F907F906F905F904F903F90089574
S11302F0DF92EF92FF920F931F93CF93DF936A30B5
S113030008F04AC0D62EEC0161E031DF80E090E0D5
S1130310009719F4CE01B2D0FBCF2D2D30E0790136
S1130320EE0CFF1CEE0CFF1CEE0CFF1CE20EF31E89
S11303302FEFE21AF20AEC0EFD1EBC01C70104DF26
S113034063E0CE0114DF80E090E0009719F4CE0161
S113035095D0FBCFBC01C701FBDE62E0CE0107DF15
S113036000E010E00115110521F4CE0187D08C01C5
S1130370F9CFB801C701F0DE60E0CE01F8DE011567
S1130380110521F4CE017AD08C01F9CFB801C7014F
S1130390E7DE6D2DC701E8DEDF91CF911F910F914C
S11303A0FF90EF90DF900895613069F028F062309B
S11303B089F06330B1F0089588B18E7F88B988B12F
S11303C08D7F88B9089588B18E7F88B988B182609D
S11303D088B9089588B1816088B988B18D7F88B95A
S11303E0089588B1816088B988B1826088B9089518
S11303F0BF92CF92DF92EF92FF920F931F93CF930E
S1130400DF931F92CDB7DEB76C01B62E29D07601EB
S11304108FEFE81AF80A09E010E00F3F8FEF180792
S113042041F0C70180DE89E0E80EF11C015011099A
S1130430F4CF8FEF87B91AB8CE01019611D060E0DE
S1130440C60195DE6B2DC601AFDF0F90DF91CF9112
S11304501F910F91FF90EF90DF90CF90BF90089580
S11304601092A00081EC8093A1001092A20019BA0E
S11304701092A5001092A40078940895CF9381E07F
S113048080930A021092C4021092C5021092C6020E
S11304901092C7021092BF021092BE021092C002C4
S11304A01092C1021092C2021092C30219BA80E2E1
S11304B080937200C0E08091BE029091BF02892BAC
S11304C061F4C63020F01092720019BA06C081E0BF
S11304D090E00E94470FCF5FEECF8091BE029091D3
S11304E0BF02CF9108951F920F920FB60F9211245D
S11304F08F939F93AF93BF938091C0029091C10259
S1130500A091C202B091C3020196A11DB11D8093B6
S1130510C0029093C102A093C202B093C302BF91E0
S1130520AF919F918F910F900FBE0F901F901895D0
S11305301F920F920FB60F9211240BB60F92CF9207
S1130540DF92EF92FF920F931F932F933F934F935A
S11305505F936F937F938F939F93AF93BF93EF9327
S1130560FF936091A6007091A70080910A028823EE
S1130570B1F01092C0021092C1021092C202109205
S1130580C302CB01A0E0B0E08093C4029093C50203
S1130590A093C602B093C70210920A027AC01092C6
S11305A0720019BACB01A0E0B0E00091C40210912E
S11305B0C5022091C6023091C70280179107A20795
S11305C0B30780F50091C0021091C1022091C202CC
S11305D03091C302012B022B032BA1F00091C00226
S11305E01091C1022091C2023091C302015011093D
S11305F0210931090093C0021093C1022093C20261
S11306003093C3020091C4021091C5022091C60226
S11306103091C702801B910BA20BB30B0197AF4F14
S1130620BF4F0CC00091C4021091C5022091C602B4
S11306303091C702801B910BA20BB30B0091C00237
S11306401091C1022091C2023091C3029801112776
S11306500027BC01CD01600F711F821F931FC09042
S11306600602D0900702E0900802F09009020E946E
S1130670B910A70196010E946F1120E034E244E70B
S113068059E40E946F110E948D107093BF02609311
S1130690BE02FF91EF91BF91AF919F918F917F9196
S11306A06F915F914F913F912F911F910F91FF9007
S11306B0EF90DF90CF900F900BBE0F900FBE0F9076
S11306C01F901895CF93DF93CDB7DEB7CB55D109E3
S11306D00FB6F894DEBF0FBECDBF8C012EE448E008
S11306E060E875E280E090E00E94BD0F8DE092E04A
S11306F00E94181062E0CE0101967ADE80E38F3604
S113070019F00E940A10FBCF8BE292E00E941810AD
S113071060E0CE010196ECDD80E38F3619F00E9493
S11307200A10FBCF8AE392E00E94181061E0CE0128
S11307300196DEDD80E38F3619F00E940A10FBCFAC
S113074089E492E00E941810CE01019634DD8823DA
S113075019F0813071F019C0C801BBD488E893E165
S11307600E94470FC8016CD588E893E10E94470FA7
S11307700CC0C801AED488E893E10E94470FC801B9
S113078071D588E893E10E94470F88EE93E00E94B8
S1130790470FDACFFFCF0C9403120895009711F09E
S11307A00C949B120895CF93DF93CDB7DEB72E97A9
S11307B00FB6F894DEBF0FBECDBFCE0101962ED486
S11307C0A12CB12CC12CD12CE12CF12C00E09E01E8
S11307D02F5F3F4F48EC50E068E572E082E693E01B
S11307E00E94480D0E94000EFFCFCF92DF92EF923D
S11307F0FF92CF93DF93FC0126892617C0F0EC010A
S1130800C680D780E084F18470E080E090E00E94AC
S1130810BB10A70196010E946F112A893B894C895C
S11308205D890E9425106A877B878C879D87DF916D
S1130830CF91FF90EF90DF90CF90089521E632E0C2
S1130840FC01318320830895CF93DF93EC01F6DF1D
S1130850CE01A4DFDF91CF9108954F925F926F9202
S11308607F928F929F92AF92BF92CF92DF92EF923C
S1130870FF92CF93DF93EC018A849B84AC84BD8484
S1130880CE84DF84E888F98820E030E040E85DE346
S1130890C701B6010E9425102B013C019B01AC014C
S11308A0C501B4010E946B11181674F44E865F865C
S11308B0688A798AB301A2018A819B8103D58F89D1
S11308C0988D0E94470F1DC0A7019601C501B40170
S11308D00E9489108823ACF420E030E040E85DE316
S11308E0C701B6010E942410AB01BC014E875F878B
S11308F0688B798B8A819B81E5D48F89988D0E943E
S1130900470FDF91CF91FF90EF90DF90CF90BF9092
S1130910AF909F908F907F906F905F904F900895CD
S1130920CF93DF93EC01CB012DE632E039832883AA
S11309307B836A8349E35EE863E67DE34E835F83FA
S11309406887798740E050E060E270E44A8B5B8B13
S11309506C8B7D8B2AE030E0388F2F8B24EB2E8B31
S113096040E050E060EF70E44A875B876C877D87E6
S1130970A9D48A859B85AC85BD858E879F87A88BE6
S1130980B98BDF91CF91089521E632E0FC013183E8
S113099020830895CF93DF93EC01F6DFCE01FEDED2
S11309A0DF91CF9108954F925F926F927F928F92D1
S11309B09F92AF92BF92CF92DF92EF92FF92CF932A
S11309C0DF93EC018A849B84AC84BD84CE84DF8471
S11309D0E888F98820E030E040E85DE3C701B6012B
S11309E00E9425102B013C019B01AC01C501B401FF
S11309F00E946B11181674F44E865F86688A798A91
S1130A00B301A2018A819B8185D48F89988D0E942C
S1130A10470F1DC0A7019601C501B4010E948910AA
S1130A208823ACF420E030E040E85DE3C701B60180
S1130A300E942410AB01BC014E875F87688B798BC1
S1130A408A819B8167D48F89988D0E94470FDF919B
S1130A50CF91FF90EF90DF90CF90BF90AF909F9099
S1130A608F907F906F905F904F900895CF93DF9316
S1130A70EC01CB0129E732E0398328837B836A8345
S1130A804FE852EC65E77DE34E835F83688779879F
S1130A9040E050E060E470E44A8B5B8B6C8B7D8BB0
S1130AA02AE030E0388F2F8B26E92E8B46E656E677
S1130AB066E071E44A875B876C877D872BD48A85DF
S1130AC09B85AC85BD858E879F87A88BB98BDF916D
S1130AD0CF91089521E632E0FC013183208308950B
S1130AE0CF93DF93EC01F6DFCE0158DEDF91CF9197
S1130AF008954F925F926F927F928F929F92AF92DE
S1130B00BF92CF92DF92EF92FF92CF93DF93EC01EB
S1130B108A849B84AC84BD84CE84DF84E888F9888D
S1130B2020E030E040E85DE3C701B6010E942510F3
S1130B302B013C019B01AC01C501B4010E946B1166
S1130B40181674F44E865F86688A798AB301A20106
S1130B508A819B8107D48F89988D0E94470F1DC07D
S1130B60A7019601C501B4010E9489108823ACF441
S1130B7020E030E040E85DE3C701B6010E942410A4
S1130B80AB01BC014E875F87688B798B8A819B811F
S1130B90E9D38F89988D0E94470FDF91CF91FF9001
S1130BA0EF90DF90CF90BF90AF909F908F907F9009
S1130BB06F905F904F900895CF93DF93EC01CB013A
S1130BC025E832E0398328837B836A8349E35EE83E
S1130BD063E67DE34E835F836887798740E050E076
S1130BE060E270E44A8B5B8B6C8B7D8B2AE030E097
S1130BF0388F2F8B24EB2E8B40E050E060EF70E4B5
S1130C004A875B876C877D87ADD38A859B85AC8556
S1130C10BD858E879F87A88BB98BDF91CF9108956F
S1130C2021E632E0FC01318320830895CF93DF93E2
S1130C30EC01F6DFCE01B2DDDF91CF9108954F9242
S1130C405F926F927F928F929F92AF92BF92CF9258
S1130C50DF92EF92FF92CF93DF93EC018A849B841F
S1130C60AC84BD84CE84DF84E888F98820E030E059
S1130C7040E85DE3C701B6010E9425102B013C0149
S1130C809B01AC01C501B4010E946B11181674F4E8
S1130C904E865F86688A798AB301A2018C819D8120
S1130CA0A7D38AE090E00E94470F1DC0A7019601D8
S1130CB0C501B4010E9489108823ACF420E030E01F
S1130CC040E85DE3C701B6010E942410AB01BC01FA
S1130CD04E875F87688B798B8C819D8189D38AE06D
S1130CE090E00E94470FDF91CF91FF90EF90DF904B
S1130CF0CF90BF90AF909F908F907F906F905F90B8
S1130D004F900895CF93DF93EC01CB0121E932E0BA
S1130D10398328837D836C8349E35EE863E67DE35E
S1130D204E835F836887798740E050E060E270E437
S1130D304A8B5B8B6C8B7D8B25E030E0388F2F8B5F
S1130D4024EB2E8B40E050E060EF70E44A875B8731
S1130D506C877D874DD38A859B85AC85BD858E87C1
S1130D609F87A88BB98BDF91CF91089521E632E05C
S1130D70FC01318320830895CF93DF93EC01F6DFE8
S1130D80CE010CDDDF91CF9108954F925F926F9267
S1130D907F928F929F92AF92BF92CF92DF92EF9207
S1130DA0FF92CF93DF93EC018A849B84AC84BD844F
S1130DB0CE84DF84E888F98820E030E040E85DE311
S1130DC0C701B6010E9425102B013C019B01AC0117
S1130DD0C501B4010E946B11181674F44E865F8627
S1130DE0688A798AB301A2018C819D8128D38F8975
S1130DF0988D0E94470F1DC0A7019601C501B4013B
S1130E000E9489108823ACF420E030E040E85DE3E0
S1130E10C701B6010E942410AB01BC014E875F8755
S1130E20688B798B8C819D810AD38F89988D0E94E0
S1130E30470FDF91CF91FF90EF90DF90CF90BF905D
S1130E40AF909F908F907F906F905F904F90089598
S1130E50CF93DF93EC01CB012DE932E03983288372
S1130E607D836C8349E35EE863E67DE34E835F83C1
S1130E706887798740E050E060E270E44A8B5B8BDE
S1130E806C8B7D8B21E030E0388F2F8B24EB2E8B05
S1130E904A875B876C877D87D2D28A859B85AC85A0
S1130EA0BD858E879F87A88BB98BDF91CF910895DD
S1130EB021E632E0FC01318320830895CF93DF9350
S1130EC0EC01F6DFCE016ADCDF91CF9108954F92F9
S1130ED05F926F927F928F929F92AF92BF92CF92C6
S1130EE0DF92EF92FF92CF93DF93EC018A849B848D
S1130EF0AC84BD84CE84DF84E888F98820E030E0C7
S1130F0040E85DE3C701B6010E9425102B013C01B6
S1130F109B01AC01C501B4010E946B1118166CF45D
S1130F204E865F86688A798AB301A2018C819D818D
S1130F30ADD28F89988DABD71CC0A7019601C5018E
S1130F40B4010E9489108823A4F420E030E040E832
S1130F505DE3C701B6010E942410AB01BC014E87BA
S1130F605F87688B798B8C819D8190D28F89988DD6
S1130F708ED7DF91CF91FF90EF90DF90CF90BF900D
S1130F80AF909F908F907F906F905F904F90089557
S1130F90CF93DF93EC01CB0129EA32E03983288334
S1130FA07D836C8349E25AE862EA7DE34E835F8382
S1130FB06887798740E050E060E270E44A8B5B8B9D
S1130FC06C8B7D8B21E030E0388F2F8B2FE32E8BC1
S1130FD04A875B876C877D8759D28A859B85AC85D8
S1130FE0BD858E879F87A88BB98BDF91CF9108959C
S1130FF08C01C0E0C630E8F7EC2FF0E03196EE0F3C
S1131000FF1FE00FF11F80819181DC01ED91FC91C4
S11310100480F581E02D1995CF5FECCFAF92BF929C
S1131020CF92DF92EF92FF920F931F93CF93DF93B0
S1131030EC012AD18E010F5F1F4FC801BBD189E19A
S113104090E0A9DB7C01BE016BDCFB82EA8289E1D2
S113105090E0A1DB7C01BE0109DDFD82EC8289E127
S113106090E099DB7C01BE01A7DDFF82EE8289E17D
S113107090E091DB7C01B80145DEF986E88689E1E0
S113108090E089DB7C01B801E3DEFB86EA8689E136
S113109090E081DB7C01B8017BDFFD86EC86A12C2E
S11310A0B12CC12CD12CE12CF12C00E09E0148EC98
S11310B050E061EB72E088EF97E0EAD4DF91CF91E2
S11310C01F910F91FF90EF90DF90CF90BF90AF9062
S11310D00895CF93DF93EC0188859985DC01ED9128
S11310E0FC910680F781E02D68E219958A859B853D
S11310F0DC01ED91FC910680F781E02D6AE51995FC
S11311008A819B81DC01ED91FC910680F781E02DC1
S113111060E019958CED95E0BAD68C819D81DC0157
S1131120ED91FC910680F781E02D63E219958E81A3
S11311309F81DC01ED91FC910680F781E02D6FE346
S113114019958CED95E0A3D68C859D85DC01ED91F8
S1131150FC910680F781E02D6FE319958AEF90E00A
S113116096D68C819D81DC01ED91FC910680F781FE
S1131170E02D66E419958E819F81DC01ED91FC914F
S11311800680F781E02D66E4199588859985DC0150
S1131190ED91FC910680F781E02D66E41995DF91CD
S11311A0CF910895CF93DF93EC018CED95E06FD64A
S11311B08C819D81DC01ED91FC910680F781E02D0D
S11311C063E219958E819F81DC01ED91FC9106808B
S11311D0F781E02D68E219958CED95E058D68C8561
S11311E09D85DC01ED91FC910680F781E02D60E0A6
S11311F019958AEF90E04BD68C819D81DC01ED91AD
S1131200FC910680F781E02D6AE519958E819F8116
S1131210DC01ED91FC910680F781E02D6AE51995DA
S113122088859985DC01ED91FC910680F781E02D9C
S11312306AE519958AEF90E02AD6DF91CF91089557
S1131240CF93DF93EC018A819B81DC01ED91FC91CA
S11312500680F781E02D6AE51995CE01A3DFDF91C1
S1131260CF910895CF93DF93EC018A819B81DC01B8
S1131270ED91FC910680F781E02D67E81995CE0188
S113128091DFDF91CF91089584B1806E84B988EAAB
S11312908093800084E180938100109282008EE626
S11312A092E09093870080938600109289001092B8
S11312B0880010928B0010928A0010928D00109278
S11312C08C000895CF92DF92EF92FF926A017B0126
S11312D0209186003091870036952795369527957D
S11312E0ABE7B4E10E94F41196958795BC0177278A
S11312F0072E000C880B990B3ED7A7019601EFD758
S11313000CD77093890060938800FF90EF90DF9072
S1131310CF900895CF92DF92EF92FF926A017B0102
S1131320209186003091870036952795369527952C
S1131330ABE7B4E10E94F41196958795BC01772739
S1131340072E000C880B990B16D7A7019601C7D757
S1131350E4D670938B0060938A00FF90EF90DF9047
S1131360CF900895CF92DF92EF92FF926A017B01B2
S113137020918600309187003695279536952795DC
S1131380ABE7B4E10E94F41196958795BC017727E9
S1131390072E000C880B990BEED6A70196019FD758
S11313A0BCD670938D0060938C00FF90EF90DF901B
S11313B0CF9008958DB188638DB988EA80939000A9
S11313C084E180939100109292008EE692E09093D3
S11313D097008093960010929900109298001092B2
S11313E09B0010929A0010929D0010929C00089508
S11313F0CF92DF92EF92FF926A017B0120919600D7
S1131400309197003695279536952795ABE7B4E14B
S1131410EBD796958795BC017727072E000C880B90
S1131420990BA9D6A70196015AD777D6709399003C
S113143060939800FF90EF90DF90CF900895CF9243
S1131440DF92EF92FF926A017B0120919600309126
S113145097003695279536952795ABE7B4E1C4D721
S113146096958795BC017727072E000C880B990B5E
S113147082D6A701960133D750D670939B00609310
S11314809A00FF90EF90DF90CF900895CF92DF9273
S1131490EF92FF926A017B012091960030919700B0
S11314A03695279536952795ABE7B4E19DD7969564
S11314B08795BC017727072E000C880B990B5BD608
S11314C0A70196010CD729D670939D0060939C00C8
S11314D0FF90EF90DF90CF900895FC0103969283E4
S11314E081832FEF3FEF3483238396838583908713
S11314F0878310820895FC01118610860895CF9386
S1131500DF93FC01DB0121813281E9018A819B8126
S113151013969C938E9312978181928115969C9336
S11315208E9314978A819B81EC017D836C83E901FE
S11315307B836A83728361831996FC93EE93189775
S113154080818F5F8083DF91CF910895CF93DF9364
S1131550EB01488159814F3F2FEF520731F4DC01F1
S11315601796ED91FC9118970DC0FC01339603C0BA
S11315700280F381E02DA281B3812D913C91421729
S11315805307B0F7A281B381BB83AA831596DC937A
S1131590CE931497FD83EC83D383C2839987888782
S11315A0FC0120812F5F2083DF91CF910895FC01FE
S11315B0A281B3818481958115969C938E9314970F
S11315C0A481B5818281938113969C938E93129703
S11315D0A085B18511968D919C911297E817F90712
S11315E031F48481958112969C938E931197118680
S11315F010868C9181508C9308951092290189EF63
S1131600809328018BE080932101E3E7F0E080815F
S113161082608083089531E1FC013083319722E2B6
S113162020833197A3E3A08331976083319770833C
S11316303197108231971082319760E86083319737
S113164010823197108231971082319762E0608363
S1131650319763E06083319764E06083319765E09C
S11316606083319766E06083319767E060833197E8
S113167068E06083319769E06083319760E160835B
S113168031973083319732E13083319733E13083BE
S1131690319734E13083319735E13083319736E146
S11316A03083319737E13083319738E13083319794
S11316B039E13083319730E23083319731E230833E
S11316C031972083319723E22083319740833197E8
S11316D05083319726E22083319727E22083319784
S11316E028E22083319729E22083319720E3208365
S11316F0319721E32083899708957FDFA091D9084A
S1131700B091DA08CD91CDBFDD91DEBFFF91EF91AD
S1131710DF91CF91BF91AF919F918F917F916F9105
S11317205F914F913F912F911F910F91FF90EF90F7
S1131730DF90CF90BF90AF909F908F907F906F90ED
S11317405F904F903F902F901F900F900CBE0F9082
S11317500BBE0F900FBE0F90089581E008950F9275
S11317600FB6F8940F920BB60F920CB60F921F920D
S113177011242F923F924F925F926F927F928F9299
S11317809F92AF92BF92CF92DF92EF92FF920F930C
S11317901F932F933F934F935F936F937F938F93F5
S11317A09F93AF93BF93CF93DF93EF93FF93A09156
S11317B0D908B091DA080DB60D920EB60D9284D305
S11317C0A091D908B091DA08CD91CDBFDD91DEBFEB
S11317D0FF91EF91DF91CF91BF91AF919F918F9145
S11317E07F916F915F914F913F912F911F910F9135
S11317F0FF90EF90DF90CF90BF90AF909F908F902D
S11318007F906F905F904F903F902F901F900F901C
S11318100CBE0F900BBE0F900FBE0F9008950F9249
S11318200FB6F8940F920BB60F920CB60F921F924C
S113183011242F923F924F925F926F927F928F92D8
S11318409F92AF92BF92CF92DF92EF92FF920F934B
S11318501F932F933F934F935F936F937F938F9334
S11318609F93AF93BF93CF93DF93EF93FF93A09195
S1131870D908B091DA080DB60D920EB60D92EFD1DB
S113188023D3A091D908B091DA08CD91CDBFDD91D1
S1131890DEBFFF91EF91DF91CF91BF91AF919F9107
S11318A08F917F916F915F914F913F912F911F91F4
S11318B00F91FF90EF90DF90CF90BF90AF909F90EB
S11318C08F907F906F905F904F903F902F901F90DC
S11318D00F900CBE0F900BBE0F900FBE0F9008958B
S11318E09EDF1895CF93DF93EC01B3D12091C8020A
S11318F03091C902C9018C0F9D1F8C3D45E09407AE
S113190058F42817390758F4E901C653DD4F90936A
S1131910C9028093C80205C0C0E0D0E002C0C0E0A4
S1131920D0E044D2CE01DF91CF9108950895809103
S1131930D0088230E0F313DFFACFEF92FF920F93D7
S11319401F93CF93DF937C01EB0181E290E0CADF28
S11319508C01892BA1F0209719F4C701C3DF01C0C2
S1131960CE01F801908F878B009729F4C801DEDF40
S113197000E010E004C0A70165EA70E065D6C80184
S1131980DF91CF911F910F91FF90EF9008951F93D6
S1131990CF93DF93EC01142F48E050E049965BD6D7
S11319A018A2111110E01E8BCE010296A4DDCE0107
S11319B00C96A1DDD987C88781E090E0811B91094D
S11319C09D878C87DB8BCA8BDF91CF911F91089504
S11319D0CF93C0E00FC08C2F90E09C01220F331FE7
S11319E0220F331F220F331F820F931F8053974FF1
S11319F074DDCF5FCC2379F387EC98E06EDD8EEB5A
S1131A0098E06BDD81EB98E068DD87EC98E09093DB
S1131A10BD088093BC088EEB98E09093BB0880933C
S1131A20BA08CF910895CF93DF93EC01E091D908E0
S1131A30F091DA08938382838091AE089091AF0885
S1131A40C817D90760F46091D9087091DA088091B9
S1131A50BA089091BB086E5F7F4F78DD16C0609125
S1131A60D9087091DA088091BC089091BD086E5F26
S1131A707F4F6CDD80910B0290910C02C817D9073F
S1131A8020F4D0930C02C0930B02DF91CF91089500
S1131A902F923F924F925F927F928F929F92AF923A
S1131AA0BF92CF92DF92EF92FF920F931F93CF9347
S1131AB0DF9300D01F92CDB7DEB79A8389834B01A1
S1131AC05C834B831901702EB6012501CA0135DFF1
S1131AD05C01009709F46CC0FC01C788D08C8B8131
S1131AE09C810197C80ED91E0B811C819201472D40
S1131AF0B401C5014CDFA10169817A81C6018BDD86
S1131B00F50191838083E114F10419F0F701B182A6
S1131B10A0820FB6F8940F928091B0088F5F8093E3
S1131B20B0088091D9089091DA08892B51F4B092C9
S1131B30DA08A092D9088091B008813089F448DF8E
S1131B400FC08091AB0881110BC0E091D908F091CE
S1131B50DA088689781620F0B092DA08A092D908BB
S1131B60F50186899091AD08981710F48093AD081B
S1131B709091A6089F5F9093A6089091AC0898173F
S1131B8010F48093AC0890E0B5016E5F7F4F9C0128
S1131B90220F331F220F331F220F331F820F931F75
S1131BA08053974FACDC0F900FBEF1E0F98302C075
S1131BB08FEF8983E981E13061F48091AB08882358
S1131BC041F0E091D908F091DA088689871508F484
S1131BD0C6DD89810F900F900F900F90DF91CF9108
S1131BE01F910F91FF90EF90DF90CF90BF90AF9037
S1131BF09F908F907F905F904F903F902F9008958B
S1131C00AF92BF92CF92DF92EF92FF920F93A12CEB
S1131C10B12CC12CD12CE12CF12C00E020E030E0DF
S1131C2045E550E068EB72E087E99CE031DF813004
S1131C3041F4F8948093AB081092AF081092AE0868
S1131C405CDD0F91FF90EF90DF90CF90BF90AF904D
S1131C5008958091AA088F5F8093AA0808950F932E
S1131C601F93CF93DF938091AA08811195C080912F
S1131C70AE089091AF0801969093AF088093AE0898
S1131C808091AE089091AF08892B99F58091BC089A
S1131C909091BD082091BA083091BB083093BD08DB
S1131CA02093BC089093BB088093BA088091A7083E
S1131CB08F5F8093A708E091BC08F091BD088081F4
S1131CC0811107C08FEF9FEF90930C0280930B025A
S1131CD010C0E091BC08F091BD080580F681E02DAC
S1131CE00680F781E02D8281938190930C0280938A
S1131CF00B022091AE083091AF0880910B029091B5
S1131D000C022817390708F44CC0E091BC08F09184
S1131D10BD088081811107C08FEF9FEF90930C0263
S1131D2080930B023EC0E091BC08F091BD08058091
S1131D30F681E02DC681D7818A819B812091AE08EE
S1131D403091AF082817390728F490930C02809338
S1131D500B0227C08E010E5F1F4FC80128DC8C893F
S1131D609D89892B19F0CE010C9621DC8E899091E6
S1131D70AC08981710F48093AC0890E09C01220FF3
S1131D80331F220F331F220F331F820F931FB801FB
S1131D908053974FB4DBB9CF8091A9088F5F8093AC
S1131DA0A908DF91CF911F910F910895FF920F938E
S1131DB01F93CF93DF930FB6F8940F928091AA08E4
S1131DC081508093AA088091AA08811155C08091FE
S1131DD0B00881112FC053C0E091B608F091B70844
S1131DE0C681D781CE010C96E2DB8E010E5F1F4FB8
S1131DF0C801DDDB8E899091AC08981710F48093AC
S1131E00AC0890E09C01220F331F220F331F220FD6
S1131E10331F820F931FB8018053974F70DB9E8945
S1131E20E091D908F091DA088689981720F0FF2408
S1131E30F39401C0F12C8091B1088111CDCF809130
S1131E40A908811107C00CC00ADF8091A90881503C
S1131E508093A9088091A9088111F6CFFF24F394F7
S1131E6081E0F81621F08091A808813039F41092AD
S1131E70A80875DC81E003C080E001C080E00F9019
S1131E800FBEDF91CF911F910F91FF900895CF93D3
S1131E90DF93EC01892B89F0DCDE8091AE08909110
S1131EA0AF08C80FD91F8091D9089091DA0802961B
S1131EB07EDBCE01B8DD7ADF01C080E0811101C094
S1131EC04EDCDF91CF9108958091AA08882349F0D0
S1131ED081E08093A80808958091AC088150809394
S1131EE0AC088091AC0890E0FC01EE0FFF1FEE0FF0
S1131EF0FF1FEE0FFF1F8E0F9F1FFC01E053F74FD4
S1131F008081882349F38091AC0890E09C01220FE2
S1131F10331F220F331F220F331F280F391FD901FC
S1131F20A053B74F1196ED91FC9112970280F38163
S1131F30E02D1296FC93EE9311972D52374FE21732
S1131F40F30729F422813381FD0132832183FC01CB
S1131F50EE0FFF1FEE0FFF1FEE0FFF1F8E0F9F1FD1
S1131F60FC01E053F74F0180F281E02D86819781D7
S1131F709093DA088093D90808950F931F93522FF2
S1131F808B019C010C52114021093109053D104C73
S1131F9021403105E0F54530D0F14930C0F520E26B
S1131FA02093C00028E12093C1004550440F409382
S1131FB0C200553431F4E2ECF0E020812062208349
S1131FC007C05F3429F4E2ECF0E020812063208331
S1131FD0DC01CB01880F991FAA1FBB1F880F991F13
S1131FE0AA1FBB1F9C01AD01220F331F441F551FA5
S1131FF0220F331F441F551F60E074E284EF90E00A
S1132000D1D1215031093093C5002093C4001F91D0
S11320100F9108958091C0008823E4F78091C60051
S113202008959091C00095FFFCCF8093C600089559
S1132030CF93DF93EC018881882319F0F2DF219696
S1132040FACFDF91CF9108955058BB27AA270ED01D
S113205008C1F9D030F0FED020F031F49F3F11F4E4
S11320601EF4EEC00EF4E095E7FBE4C0E92F0AD1BC
S113207080F3BA17620773078407950718F071F4A1
S11320809EF522C10EF4E0950B2EBA2FA02D0B0164
S1132090B90190010C01CA01A0011124FF27591BA9
S11320A099F0593F50F4503E68F11A16F040A22FAF
S11320B0232F342F4427585FF3CF46953795279520
S11320C0A795F0405395C9F77EF41F16BA0B620B1F
S11320D0730B840BBAF09150A1F0FF0FBB1F661F66
S11320E0771F881FC2F70EC0BA0F621F731F841FA9
S11320F048F4879577956795B795F7959E3F08F0CF
S1132100B3CF9395880F08F09927EE0F979587958D
S113211008956CD008F481E00895BCD088F09F57EE
S113212090F0B92F9927B751A0F0D1F0660F771F1F
S1132130881F991F1AF0BA95C9F712C0B13081F0FF
S1132140C3D0B1E00895C0C0672F782F8827B85F47
S113215039F0B93FCCF3869577956795B395D9F760
S11321603EF490958095709561957F4F8F4F9F4F6A
S11321700895E89409C097FB3EF490958095709576
S113218061957F4F8F4F9F4F9923A9F0F92F96E9BF
S1132190BB279395F695879577956795B795F11134
S11321A0F8CFFAF4BB0F11F460FF1BC06F5F7F4FD1
S11321B08F4F9F4F16C0882311F096E911C07723E3
S11321C021F09EE8872F762F05C0662371F096E8EC
S11321D0862F70E060E02AF09A95660F771F881FBB
S11321E0DAF7880F9695879597F90895990F00085F
S11321F0550FAA0BE0E8FEEF16161706E807F907D5
S1132200C0F012161306E407F50798F0621B730B6F
S1132210840B950B39F40A2661F0232B242B252BF0
S113222021F408950A2609F4A140A6958FEF811D93
S1132230811D089597F99F6780E870E060E0089534
S11322409FEF80EC089500240A94161617061806CA
S11322500906089500240A941216130614060506A6
S11322600895092E0394000C11F4882352F0BB0F37
S113227040F4BF2B11F460FF04C06F5F7F4F8F4F9A
S11322809F4F089557FD9058440F551F59F05F3FD5
S113229071F04795880F97FB991F61F09F3F79F084
S11322A087950895121613061406551FF2CF469506
S11322B0F1DF08C0161617061806991FF1CF869588
S11322C07105610508940895E894BB27662777276C
S11322D0CB0197F908958ADF08F48FEF08950BD0A6
S11322E0C0CFB1DF28F0B6DF18F0952309F0A2CFF4
S11322F0A7CF1124EACFC6DFA0F3959FD1F3950FA2
S113230050E0551F629FF001729FBB27F00DB11D75
S1132310639FAA27F00DB11DAA1F649F6627B00D05
S1132320A11D661F829F2227B00DA11D621F739FEE
S1132330B00DA11D621F839FA00D611D221F749FFC
S11323403327A00D611D231F849F600D211D822F43
S1132350762F6A2F11249F5750408AF0E1F088238A
S11323604AF0EE0FFF1FBB1F661F771F881F915097
S11323705040A9F79E3F510570F05CCFA6CF5F3F58
S1132380ECF3983EDCF3869577956795B795F795CA
S1132390E7959F5FC1F7FE2B880F911D9695879552
S11323A097F90895A1E21A2EAA1BBB1BFD010DC0CB
S11323B0AA1FBB1FEE1FFF1FA217B307E407F507F1
S11323C020F0A21BB30BE40BF50B661F771F881FCD
S11323D0991F1A9469F760957095809590959B0163
S11323E0AC01BD01CF010895A29FB001B39FC0010C
S11323F0A39F700D811D1124911DB29F700D811D2D
S11324001124911D08950F931F93CF93DF9382306E
S1132410910510F482E090E0E091DD08F091DE088F
S113242020E030E0A0E0B0E0309719F14081518124
S11324300281138148175907C8F08417950769F476
S1132440109731F012960C93129713961C9327C091
S11324500093DD081093DE0822C02115310519F020
S11324604217530718F49A01BD01EF01DF01F80187
S1132470DBCF21153105F9F0281B390B2430310548
S113248080F48A819B816115710521F0FB0193839E
S1132490828304C09093DE088093DD08FE013296A7
S11324A044C0FE01E20FF31F81939193225031093E
S11324B0398328833AC02091DB083091DC08232B30
S11324C041F420910202309103023093DC082093FE
S11324D0DB0820910002309101022115310541F4FD
S11324E02DB73EB74091040250910502241B350BD1
S11324F0E091DB08F091DC08E217F307A0F42E1B4F
S11325003F0B2817390778F0AC014E5F5F4F241753
S1132510350748F04E0F5F1F5093DC084093DB08EB
S11325208193919302C0E0E0F0E0CF01DF91CF917D
S11325301F910F910895CF93DF93009709F481C001
S1132540FC01329713821282A091DD08B091DE085B
S1132550109781F420813181820F931F2091DB0831
S11325603091DC082817390751F5F093DC08E09323
S1132570DB0867C0ED0120E030E0CE17DF0740F450
S11325804A815B819E0141155105F1F0EA01F5CFC5
S1132590D383C28340815181840F951FC817D90703
S11325A059F488819981840F951F029691838083C1
S11325B08A819B81938382832115310529F4F093C9
S11325C0DE08E093DD083DC0E901FB83EA8349911D
S11325D05991C40FD51FEC17FD0761F480819181D7
S11325E0840F951F0296E9019983888382819381E0
S11325F09B838A83E0E0F0E012968D919C9113977F
S1132600009719F0FD01DC01F7CF8D919C91119792
S11326109D012E5F3F4F820F931F2091DB08309165
S1132620DC082817390769F4309729F41092DE087A
S11326301092DD0802C013821282B093DC08A093CA
S1132640DB08DF91CF910895DC0101C06D93415007
S11326505040E0F70895FB01DC014150504048F040
S113266001900D920020C9F701C01D9241505040C5
S10B2670E0F70895F894FFCF90
S11326780000DF082000BD37863301FFFF49204AE8
S1132688555354204655434B494E205245535441C3
S11326985254454421210A0D0A0D004D6F76696E86
S11326A867206F6E2031200A0D004D6F76696E67C2
S11326B8206F6E2032200A0D004D6F76696E6720F8
S11326C86F6E2033200A0D005461736B0000000004
S11326D80000000000CA03F503000000001E0424E3
S11326E8042D04F50300000000C404CA04D304F54F
S11326F803000000006A0570057905F50300000071
S113270800100616061F06F50300000000B606BCF6
S113271806C506F5030000000058075E076707F5BD
S1112728034D6F746F72730049444C450000FA
S9030000FC
