S0130000526F626F74536F727465722E737265638C
S113000073C00000A1C000009FC000009DC000009C
S11300109BC000000C94011697C0000095C000001E
S113002093C0000091C000008FC000008DC000008C
S11300308BC0000089C0000087C0000085C000009C
S113004083C0000081C000007FC000007DC00000AC
S11300507BC000000C94BE0F77C0000075C0000088
S113006073C0000071C000006FC000006DC00000CC
S11300706BC0000069C0000067C0000065C00000DC
S113008063C0000061C000005FC000005DC00000EC
S11300905BC0000059C0000057C0000055C00000FC
S11300A053C0000029C200004FC000004DC0000032
S11300B04BC00000FCC1000047C0000045C0000068
S11300C043C0000041C000003FC000003DC000002C
S11300D03BC0000039C0000037C0000035C000003C
S11300E033C000007E04810411241FBECFEFD1E28F
S11300F0DEBFCDBF00E00CBF12E0A0E0B2E0EAEB4F
S1130100FEE300E00BBF02C007900D92AA3FB107C7
S1130110D9F722E1AAEFB2E001C01D92A43EB207D2
S1130120E1F710E0C3E7D0E000E006C02197010941
S1130130802FFE010E940D1EC237D10780E0080700
S1130140A9F7B0D30C944C1F5BCFFC011182108231
S11301501382128215821482178216828FEF80878F
S11301600895FC01808191810895FC01828193812D
S11301700895FC01848195810895FC01868197810D
S11301800895FC01718360830895FC017383628385
S11301900895FC01758364830895FC017783668365
S11301A00895FC0160870895DF92EF92FF920F9308
S11301B01F93CF93DF931F92CDB7DEB77C01D62E6A
S11301C01FD187010F5F1F4F8BE5E80EF11CC8019B
S11301D0BCDF075F1F4F0E151F05C9F7CE0101963F
S11301E00FD180910201816080930201809102010C
S11301F08093020181E0D816D1F0D816C0F082E0D5
S1130200D81619F083E0D81209C0809105018160E5
S11302108093050180910501809305010F90DF9182
S1130220CF911F910F91FF90EF90DF9008958091EF
S113023005018E7F8093050180910501809305015E
S1130240EDCF8F929F92AF92BF92CF92DF92EF92B7
S1130250FF921F93CF93DF93EC01809102018E7F75
S1130260809302018091020180930201CE01E7D0C4
S11302707C01809102018E7F8093020180910201B2
S113028080930201CE01DBD06C0180910201816078
S1130290809302018091020180930201CE01CFD0AC
S11302A05C018091020181608093020180910201CE
S11302B080930201CE01C3D04C01219610E004C00A
S11302C01F5F29961A3089F1CE014BDF0596E81697
S11302D0F906B0F7CE0145DF05978E159F0580F727
S11302E0CE0143DF0596C816D90650F7CE013DDF8F
S11302F005978C159D0520F7CE013BDF0596A816C2
S1130300B906F0F6CE0135DF05978A159B05C0F6D0
S1130310CE0133DF02968816990690F6CE012DDFC2
S113032002978815990560F601C01FEF812FDF91B0
S1130330CF911F91FF90EF90DF90CF90BF90AF903F
S11303409F908F900895FF920F931F93CF93DF9305
S11303506A3030F0DF91CF911F910F91FF90089593
S1130360F62E8C01809102018E7F80930201809190
S1130370020180930201C80162D02F2D30E0E9010F
S1130380CC0FDD1FCC0FDD1FCC0FDD1FC20FD31F21
S11303902196C00FD11FBC01CE01F3DE8091020172
S11303A08E7F809302018091020180930201C80133
S11303B046D0BC01CE01E9DE8091020181608093C8
S11303C002018091020180930201C80138D0BC016E
S11303D0CE01DFDE80910201816080930201809171
S11303E0020180930201C8012AD0BC01CE01D5DEEE
S11303F06F2DCE01DF91CF911F910F91FF90D1CE40
S1130400E5E0F1E080818260808380818160808387
S1130410E2E0F1E08081826080838081816080837A
S11304201092A00083EC8093A1001092A20081E2BC
S113043089BB1092A5001092A4007894089581E0DD
S113044080930A0210920103109200031092FB029F
S11304501092FA021092FC021092FD021092FE0217
S11304601092FF0281E289BB809372000CC08091DC
S1130470FC029091FD02A091FE02B091FF020B9745
S1130480A105B10558F48091FA029091FB02892BE1
S113049071F38091FA029091FB0208951092720018
S11304A081E289BB8091FA029091FB0208951F9228
S11304B00F920FB60F9211248F939F93AF93BF9314
S11304C08091FC029091FD02A091FE02B091FF0286
S11304D00196A11DB11D8093FC029093FD02A0938F
S11304E0FE02B093FF02BF91AF919F918F910F9045
S11304F00FBE0F901F9018951F920F920FB60F9278
S113050011240BB60F92CF92DF92EF92FF920F93CA
S11305101F932F933F934F935F936F937F938F9387
S11305209F93AF93BF93EF93FF936091A600709155
S1130530A70080910A0281119BC0C89B13C08091BF
S1130540FC029091FD02A091FE02B091FF0201967F
S1130550A11DB11D8093FC029093FD02A093FE02A5
S1130560B093FF021092720081E289BB8091000374
S1130570909101036817790708F44FC08091000334
S113058090910103681B790BCB01A0E0B0E040918E
S1130590FC025091FD026091FE027091FF02C09036
S11305A00602D0900702E0900802F0900902BA0116
S11305B0552744278A019B01080F191F2A1F3B1F37
S11305C0C901B8010E94E51CA70196010E949B1D68
S11305D020E034E244E759E40E949B1D0E94B91CC8
S11305E07093FB026093FA02FF91EF91BF91AF9178
S11305F09F918F917F916F915F914F913F912F9137
S11306001F910F91FF90EF90DF90CF900F900BBE52
S11306100F900FBE0F901F9018958091FC0290913F
S1130620FD02A091FE02B091FF02892B8A2B8B2B35
S113063099F08091FC029091FD02A091FE02B0918C
S1130640FF020197A109B1098093FC029093FD0276
S1130650A093FE02B093FF028091000390910103E6
S113066061507109681B790BCB01A0E0B0E08FCF1A
S11306701092FC021092FD021092FE021092FF02F0
S1130680709301036093000310920A02ADCF0895A2
S11306900895CF9380EF809307018093080188E049
S11306A090E00E949712809106018F70E1F3C0914F
S11306B006018FE0809307018093080188E090E0B1
S11306C00E949712E0910601E07FCF70EC2BE1517C
S11306D0E83738F085E490910601907FE1F7CF91F7
S11306E00895F0E0E25FFD4F8081F5CF0F931F93F3
S11306F0CF93DF931F92CDB7DEB78C01C8DFCE0155
S11307000196C5DFCE010196C3DF81E3F801818341
S113071084E3828387E3838382E384838CE4858315
S11307200F90DF91CF911F910F910895B1CFEF9268
S1130730FF921F93CF93DF9300D01F92CDB7DEB704
S11307407C0110E001C010E0C701A3DF8A32D9F3B5
S1130750E1E0F0E0EC0FFD1FE10FF11D80831F5F6E
S1130760143091F79981F7018181981719F18CE47C
S1130770858380E02A81F7019281291719F08CE49E
S1130780858380E02B81F70193812917A9F08CE4FC
S113079085838C819481981719F08CE4F701858303
S11307A00F900F900F900F90DF91CF911F91FF90BA
S11307B0EF90089581E0DECF2C81F7019481291315
S11307C0ECCF882369F3F70185818C3431F785E513
S11307D08583E6CFFC018581089583E093E0A7DF5C
S11307E0FCCFCF93DF93CDB7DEB7CE57D1090FB689
S11307F0F894DEBF0FBECDBF8C0162E0CE0101963E
S1130800D3DCCE01845A9F4F0E943B14CE01845AFC
S11308109F4F0E94A11583E093E0DCDF8535B1F79B
S1130820CE01845A9F4F0E94B615CE01845A9F4F21
S11308300E941915813081F0823069F7CE0101964A
S113084000DD8F3FA1F0682FC801B7D383E093E0A8
S1130850C1DF853529F3DACF60910203CE01019619
S113086072DD809102038F5F80930203D4CFCE01A7
S1130870845A9F4F0E94DA1588EE93E00E949712E3
S1130880CE01845A9F4F0E94A115CE01845A9F4FD6
S11308900E94B615C0CF0C94151E009711F00C944D
S11308A0AD1E0895CF93DF93CDB7DEB72E970FB665
S11308B0F894DEBF0FBECDBFCE01019659D0A12C56
S11308C0B12CC12CD12CE12CF12C00E020E030E043
S11308D048E552E066E872E08DEE93E00E949810DD
S11308E09E012F5F3F4F48E552E062E972E081EFDD
S11308F093E00E9498100E945011FFCF83E093E090
S1130900F5CE83E093E012CFCF93DF93FC012689E9
S11309102617B0F0EC0170E080E090E00E94E71C44
S11309202E813F81488559850E949B1D2A893B89D8
S11309304C895D890E94E91B6A877B878C879D8728
S1130940DF91CF9108958C010E5F1F4F9C01225FB0
S11309503F4F7901E80189919991DC01ED91FC9176
S11309600480F581E02D1995EC16FD0699F3F3CF7B
S1130970AF92BF92CF92DF92EF92FF920F931F93A9
S1130980CF93DF93EC01C2D78E010F5F1F4FC801D5
S11309900E941F0D89E190E07EDF7C01BE016DD4D1
S11309A0FB82EA8289E190E076DF7C01BE0105D515
S11309B0FD82EC8289E190E06EDF7C01BE019DD571
S11309C0FF82EE8289E190E066DF7C01B80134D6D3
S11309D0F986E88689E190E05EDF7C01B801CBD638
S11309E0FB86EA8689E190E056DF7C01B8015ED798
S11309F0FD86EC86A12CB12CC12CD12CE12CF12C40
S1130A0000E09E0148E552E065EA72E083EA94E082
S1130A100E949810DF91CF911F910F91FF90EF905A
S1130A20DF90CF90BF90AF9008950F931F93CF9313
S1130A30DF93EC0108851985D801ED91FC910680BE
S1130A40F781E02DB4E0E438FB0709F06BC1F8014D
S1130A5086898832C0F020E030E040E252E46681CA
S1130A607781808591850E949B1DD80152962D9196
S1130A703D914D915C9155970E94E91BF801628765
S1130A807387848795870A851B85D801ED91FC912E
S1130A900680F781E02DB4E0E438FB0709F052C189
S1130AA0F80186898A35C0F020E030E044EB52E456
S1130AB066817781808591850E949B1DD80152961D
S1130AC02D913D914D915C9155970E94E91BF80140
S1130AD062877387848795870A811B81D801ED918A
S1130AE0FC910680F781E02DB4E0E438FB0709F0BF
S1130AF021C120E030E0A901F80166817781808579
S1130B0091850E949B1DD80152962D913D914D9146
S1130B105C9155970E94E91BF8016287738784876B
S1130B2095878CED95E00E9497120C811D81D80168
S1130B30ED91FC910680F781E02DB4E0E438FB07E9
S1130B4009F0F4C0F80186898332C0F020E030E077
S1130B504CE052E466817781808591850E949B1DDB
S1130B60D80152962D913D914D915C9155970E94DB
S1130B70E91BF80162877387848795870E811F813B
S1130B80D801ED91FC910680F781E02DB4E0E438C2
S1130B90FB0709F0D3C0F80186898F33C0F020E049
S1130BA030E04CE752E466817781808591850E942C
S1130BB09B1DD80152962D913D914D915C91559775
S1130BC00E94E91BF80162877387848795878CEDFF
S1130BD095E00E9497120C851D85D801ED91FC913A
S1130BE00680F781E02DB4E0E438FB0709F0B2C0D9
S1130BF0F80186898F33C0F020E030E04CE752E4FE
S1130C0066817781808591850E949B1DD8015296CB
S1130C102D913D914D915C9155970E94E91BF801EE
S1130C2062877387848795878AEF90E00E94971282
S1130C300C811D81D801ED91FC910680F781E02D96
S1130C40B4E0E438FB0709F081C0F80186898634F2
S1130C50C0F020E030E04CE852E466817781808582
S1130C6091850E949B1DD80152962D913D914D91E5
S1130C705C9155970E94E91BF8016287738784870A
S1130C8095870E811F81D801ED91FC910680F78133
S1130C90E02DB4E0E438FB0709F067C0F801868969
S1130CA08634C0F020E030E04CE852E4668177817D
S1130CB0808591850E949B1DD80152962D913D916E
S1130CC04D915C9155970E94E91BF80162877387E7
S1130CD0848795870884D985C02DE881F9810680A9
S1130CE0F781E02D84E0E438F807C1F58E89863475
S1130CF0A0F020E030E04CE852E46E817F818885EA
S1130D0099850E949B1D2A893B894C895D890E9493
S1130D10E91B6A877B878C879D87DF91CF911F9121
S1130D200F91089568E2C8011995ADCE63E2C80138
S1130D30199524CF60E0C8011995F3CE6FE3C8017B
S1130D40199545CF6AE5C8011995C6CE66E4C80170
S1130D50199597CF6FE3C801199566CF66E4CE0164
S1130D60DF91CF911F910F91199466E4C8011995F1
S1130D70B1CF0F931F93CF93DF93EC018CED95E0EC
S1130D800E9497120C811D81D801ED91FC9106807F
S1130D90F781E02DB4E0E438FB0709F0F3C0F80173
S1130DA086898332C0F020E030E04CE052E4668172
S1130DB07781808591850E949B1DD80152962D9143
S1130DC03D914D915C9155970E94E91BF801628712
S1130DD07387848795870E811F81D801ED91FC91DB
S1130DE00680F781E02DB4E0E438FB0709F0C6C0C3
S1130DF0F80186898832C0F020E030E040E252E415
S1130E0066817781808591850E949B1DD8015296C9
S1130E102D913D914D915C9155970E94E91BF801EC
S1130E2062877387848795878CED95E00E9497127B
S1130E300C851D85D801ED91FC910680F781E02D8C
S1130E40B4E0E438FB0709F0B4C020E030E0A901C5
S1130E50F80166817781808591850E949B1DD80168
S1130E6052962D913D914D915C9155970E94E91BAD
S1130E70F80162877387848795878AEF90E00E94E0
S1130E8097120C811D81D801ED91FC910680F781A8
S1130E90E02DB4E0E438FB0709F087C0F801868947
S1130EA08A35C0F020E030E044EB52E4668177817B
S1130EB0808591850E949B1DD80152962D913D916C
S1130EC04D915C9155970E94E91BF80162877387E5
S1130ED0848795870E811F81D801ED91FC9106804E
S1130EE0F781E02DB4E0E438FB0709F05AC0F801BB
S1130EF086898A35C0F020E030E044EB52E4668114
S1130F007781808591850E949B1DD80152962D91F1
S1130F103D914D915C9155970E94E91BF8016287C0
S1130F207387848795870884D985C02DE881F981E2
S1130F300680F781E02D84E0E438F80739F58E89DE
S1130F408A35A0F020E030E044EB52E46E817F81EA
S1130F50888599850E949B1D2A893B894C895D89D6
S1130F600E94E91B6A877B878C879D878AEF90E0C4
S1130F70DF91CF911F910F910C94971268E2C801F1
S1130F80199552CF63E2C801199525CF6AE5CE01C0
S1130F9019958AEF90E0DF91CF911F910F910C94F6
S1130FA097126AE5C8011995BECF6AE5C80119957B
S1130FB091CF60E0C801199560CF0F931F93CF9331
S1130FC0DF93EC01623009F4B9C018F1643009F41C
S1130FD05EC008F498C0653009F074C026DD84EF63
S1130FE091E00E9497120A811B81D801ED91FC9136
S1130FF00680F781E02DB4E0E438FB0709F0C9C0AE
S1131000F8018689843BC8F120E030E044E353E4EE
S113101020C0662309F45BC0613009F053C005DDCC
S113102084EF91E00E9497120A811B81D801ED910F
S1131030FC910680F781E02DB4E0E438FB0709F069
S113104098C0F80186898434C0F020E030E048E894
S113105052E466817781808591850E949B1DD80129
S113106052962D913D914D915C9155970E94E91BAB
S1131070F8016287738784879587CE017ADE84EFCF
S113108091E0DF91CF911F910F910C949712CDDCD9
S113109084EF91E00E9497120A811B81D801ED919F
S11310A0FC910680F781E02DB4E0E438FB0709F0F9
S11310B074C0F8018689883900F320E030E048E103
S11310C053E4C7CFDF91CF911F910F910895ADDC09
S11310D084EF91E00E9497120A811B81D801ED915F
S11310E0FC910680F781E02DB4E0E438FB0709F0B9
S11310F04CC0F8018689883208F4BFCF20E030E084
S113110040E252E4A6CF91DC84EF91E00E94971272
S11311100A811B81D801ED91FC910680F781E02DB5
S1131120B4E0E438FB0769F5F80186898C3708F4E4
S1131130A4CF20E030E048EF52E48BCF76DC84EF9C
S113114091E00E9497120A811B81D801ED91FC91D4
S11311500680F781E02DB4E0E438FB0771F4F80170
S11311608689803608F489CF20E030E040EC52E4F0
S113117070CF64E4C801199580CF60E6C801199561
S11311807CCF6CE7C801199578CF68E2C80119953E
S113119074CF64EBC801199570CF68E9C80119953B
S11311A06CCF08957ACB4F925F926F927F928F9219
S11311B09F92AF92BF92CF92DF92EF92FF92CF9322
S11311C0DF93EC018A849B84AC84BD84CE84DF8469
S11311D0E888F98820E030E040E85DE3C701B60123
S11311E00E94E91B2B013C019B01AC01C501B40128
S11311F00E94971D1816D4F1A7019601C501B401E8
S11312000E944D1C87FD0FC0DF91CF91FF90EF909E
S1131210DF90CF90BF90AF909F908F907F906F9012
S11312205F904F90089520E030E040E85DE3C7010F
S1131230B6010E94E81BAB01BC014E875F87688B37
S1131240798B8A819B8180D38F89988DDF91CF910F
S1131250FF90EF90DF90CF90BF90AF909F908F90D2
S11312607F906F905F904F900C9497124E865F869C
S1131270688A798AB301A201E4CFCF93DF93EC01AA
S1131280CB0120EB32E0398328837B836A8349E3F3
S11312905EE863E67DE34E835F836887798740E099
S11312A050E060E270E44A8B5B8B6C8B7D8B2AE0B0
S11312B030E0388F2F8B24EB2E8B40E050E060EF32
S11312C070E44A875B876C877D873ED38A859B85DC
S11312D0AC85BD858E879F87A88BB98BDF91CF9115
S11312E008950895DACA4F925F926F927F928F9217
S11312F09F92AF92BF92CF92DF92EF92FF92CF93E1
S1131300DF93EC018A849B84AC84BD84CE84DF8427
S1131310E888F98820E030E040E85DE3C701B601E1
S11313200E94E91B2B013C019B01AC01C501B401E6
S11313300E94971D1816D4F1A7019601C501B401A6
S11313400E944D1C87FD0FC0DF91CF91FF90EF905D
S1131350DF90CF90BF90AF909F908F907F906F90D1
S11313605F904F90089520E030E040E85DE3C701CE
S1131370B6010E94E81BAB01BC014E875F87688BF6
S1131380798B8A819B8109D38F89988DDF91CF9145
S1131390FF90EF90DF90CF90BF90AF909F908F9091
S11313A07F906F905F904F900C9497124E865F865B
S11313B0688A798AB301A201E4CFCF93DF93EC0169
S11313C0CB012CEB32E0398328837B836A834FE89B
S11313D052EC65E77DE34E835F836887798740E05D
S11313E050E060E470E44A8B5B8B6C8B7D8B2AE06D
S11313F030E0388F2F8B26E92E8B46E656E666E0E2
S113140071E44A875B876C877D87C7D28A859B8511
S1131410AC85BD858E879F87A88BB98BDF91CF91D3
S1131420089508953ACA4F925F926F927F928F9275
S11314309F92AF92BF92CF92DF92EF92FF92CF939F
S1131440DF93EC018A849B84AC84BD84CE84DF84E6
S1131450E888F98820E030E040E85DE3C701B601A0
S11314600E94E91B2B013C019B01AC01C501B401A5
S11314700E94971D1816D4F1A7019601C501B40165
S11314800E944D1C87FD0FC0DF91CF91FF90EF901C
S1131490DF90CF90BF90AF909F908F907F906F9090
S11314A05F904F90089520E030E040E85DE3C7018D
S11314B0B6010E94E81BAB01BC014E875F87688BB5
S11314C0798B8A819B8192D28F89988DDF91CF917C
S11314D0FF90EF90DF90CF90BF90AF909F908F9050
S11314E07F906F905F904F900C9497124E865F861A
S11314F0688A798AB301A201E4CFCF93DF93EC0128
S1131500CB0128EC32E0398328837B836A8349E367
S11315105EE863E67DE34E835F836887798740E016
S113152050E060E270E44A8B5B8B6C8B7D8B2AE02D
S113153030E0388F2F8B24EB2E8B40E050E060EFAF
S113154070E44A875B876C877D8750D28A859B8548
S1131550AC85BD858E879F87A88BB98BDF91CF9192
S1131560089508959AC94F925F926F927F928F92D5
S11315709F92AF92BF92CF92DF92EF92FF92CF935E
S1131580DF93EC018A849B84AC84BD84CE84DF84A5
S1131590E888F98820E030E040E85DE3C701B6015F
S11315A00E94E91B2B013C019B01AC01C501B40164
S11315B00E94971D1816CCF1A7019601C501B4012C
S11315C00E944D1C87FD0FC0DF91CF91FF90EF90DB
S11315D0DF90CF90BF90AF909F908F907F906F904F
S11315E05F904F90089520E030E040E85DE3C7014C
S11315F0B6010E94E81BAB01BC014E875F87688B74
S1131600798B8C819D8141D28AE090E0DF91CF91EA
S1131610FF90EF90DF90CF90BF90AF909F908F900E
S11316207F906F905F904F9082C74E865F86688AE6
S1131630798AB301A201E5CFCF93DF93EC01CB010B
S113164024ED32E0398328837D836C8349E35EE8AB
S113165063E67DE34E835F836887798740E050E0EB
S113166060E270E44A8B5B8B6C8B7D8B25E030E011
S1131670388F2F8B24EB2E8B40E050E060EF70E42A
S11316804A875B876C877D8700D28A859B85AC857A
S1131690BD858E879F87A88BB98BDF91CF910895E5
S11316A00895FBC84F925F926F927F928F929F92A0
S11316B0AF92BF92CF92DF92EF92FF92CF93DF93DC
S11316C0EC018A849B84AC84BD84CE84DF84E88866
S11316D0F98820E030E040E85DE3C701B6010E94EC
S11316E0E91B2B013C019B01AC01C501B4010E9423
S11316F0971D1816CCF1A7019601C501B4010E94EB
S11317004D1C87FD0FC0DF91CF91FF90EF90DF90CC
S1131710CF90BF90AF909F908F907F906F905F908D
S11317204F90089520E030E040E85DE3C701B60142
S11317300E94E81BAB01BC014E875F87688B798BE5
S11317408C819D81CBD18F89988DDF91CF91FF9032
S1131750EF90DF90CF90BF90AF909F908F907F904D
S11317606F905F904F90E3C64E865F86688A798A51
S1131770B301A201E5CFCF93DF93EC01CB0120EEBF
S113178032E0398328837D836C8349E35EE863E632
S11317907DE34E835F836887798740E050E060E2B1
S11317A070E44A8B5B8B6C8B7D8B21E030E0388F4F
S11317B02F8B24EB2E8B4A875B876C877D878ED19A
S11317C08A859B85AC85BD858E879F87A88BB98BC1
S11317D0DF91CF910895089560C84F925F926F9200
S11317E07F928F929F92AF92BF92CF92DF92EF92AD
S11317F0FF92CF93DF93EC018A849B84AC84BD84F5
S1131800CE84DF84E888F98820E030E040E85DE3B6
S1131810C701B6010E94E91B2B013C019B01AC01ED
S1131820C501B4010E94971D1816CCF1A7019601B9
S1131830C501B4010E944D1C87FD0FC0DF91CF91FB
S1131840FF90EF90DF90CF90BF90AF909F908F90DC
S11318507F906F905F904F90089520E030E040E8D3
S11318605DE3C701B6010E94E81BAB01BC014E87D2
S11318705F87688B798B8C819D8159D18F89988DF5
S1131880DF91CF91FF90EF90DF90CF90BF90AF901A
S11318909F908F907F906F905F904F9048C64E8638
S11318A05F86688A798AB301A201E5CFCF93DF937B
S11318B0EC01CB012CEE32E0398328837D836C83E9
S11318C049E25AE862EA7DE34E835F836887798759
S11318D040E050E060E270E44A8B5B8B6C8B7D8B64
S11318E021E030E0388F2F8B2FE32E8B4A875B87E4
S11318F06C877D871CD18A859B85AC85BD858E8749
S11319009F87A88BB98BDF91CF910895259A269A4A
S1131910279A88EA8093800084E180938100109262
S113192082008EE692E09093870080938600109266
S113193089001092880010928B0010928A001092F5
S11319408D0010928C000895CF92DF92EF92FF9257
S11319506A017B0120918600309187003695279596
S113196036952795ABE7B4E10E94FE1D96958795C1
S1131970682F70E080E090E00E94E71CA7019601C8
S11319800E949B1D0E94B91C70938900609388007B
S1131990FF90EF90DF90CF900895CF92DF92EF9277
S11319A0FF926A017B012091860030918700369571
S11319B0279536952795ABE7B4E10E94FE1D9695D1
S11319C08795682F70E080E090E00E94E71CA701F3
S11319D096010E949B1D0E94B91C70938B0060931A
S11319E08A00FF90EF90DF90CF900895CF92DF921E
S11319F0EF92FF926A017B0120918600309187006B
S1131A003695279536952795ABE7B4E10E94FE1DE0
S1131A1096958795682F70E080E090E00E94E71C1F
S1131A20A70196010E949B1D0E94B91C70938D0012
S1131A3060938C00FF90EF90DF90CF900895EAE0E0
S1131A40F1E08081886080838081806180838081EF
S1131A508062808388EA8093200184E1809321015D
S1131A60109222018EE692E0909327018093260142
S1131A70109229011092280110922B0110922A0130
S1131A8010922D0110922C010895CF92DF92EF92C3
S1131A90FF926A017B01209126013091270136953E
S1131AA0279536952795ABE7B4E10E94FE1D9695E0
S1131AB08795682F70E080E090E00E94E71CA70102
S1131AC096010E949B1D0E94B91C7093290160938A
S1131AD02801FF90EF90DF90CF900895CF92DF928E
S1131AE0EF92FF926A017B01209126013091270138
S1131AF03695279536952795ABE7B4E10E94FE1DF0
S1131B0096958795682F70E080E090E00E94E71C2E
S1131B10A70196010E949B1D0E94B91C70932B0182
S1131B2060932A01FF90EF90DF90CF900895CF92B9
S1131B30DF92EF92FF926A017B012091260130919E
S1131B4027013695279536952795ABE7B4E10E9492
S1131B50FE1D96958795682F70E080E090E00E94C6
S1131B60E71CA70196010E949B1D0E94B91C70935B
S1131B702D0160932C01FF90EF90DF90CF9008959A
S1131B80FC010396928381832FEF3FEF34832383F9
S1131B90968385839087878310820895FC0111863C
S1131BA010860895CF93DF93FC01DB0121813281FC
S1131BB0E9018A819B8113969C938E93129781816C
S1131BC0928115969C938E9314978A819B81EC0144
S1131BD07D836C83E9017B836A83728361831996B5
S1131BE0FC93EE93189780818F5F8083DF91CF9170
S1131BF00895CF93DF93EB01488159814F3F2FEF35
S1131C00520731F4DC011796ED91FC9118970DC041
S1131C10FC01339603C00280F381E02DA281B381DD
S1131C202D913C9142175307B0F7A281B381BB8336
S1131C30AA831596DC93CE931497FD83EC83D38308
S1131C40C28399878887FC0120812F5F2083DF91DD
S1131C50CF910895FC01A281B38184819581159669
S1131C609C938E931497A481B5818281938113965A
S1131C709C938E931297A085B18511968D919C911A
S1131C801297E817F90731F48481958112969C9391
S1131C908E931197118610868C9181508C930895A0
S1131CA08AEF87BD82E084BD93E095BD80936E008A
S1131CB0089531E1FC013083319722E2208331978A
S1131CC0A3E3A083319760833197708331971082A7
S1131CD031971082319760E8608331971082319791
S1131CE0108231971082319762E06083319763E00C
S1131CF06083319764E06083319765E06083319756
S1131D0066E06083319767E06083319768E06083C1
S1131D10319769E06083319760E160833197308364
S1131D20319732E13083319733E13083319734E1B5
S1131D303083319735E13083319736E13083319701
S1131D4037E13083319738E13083319739E130839B
S1131D50319730E23083319731E2308331972083F9
S1131D60319723E220833197408331975083319711
S1131D7026E22083319727E22083319728E22083CB
S1131D80319729E22083319720E32083319721E39F
S1131D9020838997089584DFA091DE12B091DF1229
S1131DA0CD91CDBFDD91DEBFFF91EF91DF91CF915A
S1131DB0BF91AF919F918F917F916F915F914F915F
S1131DC03F912F911F910F91FF90EF90DF90CF9053
S1131DD0BF90AF909F908F907F906F905F904F9047
S1131DE03F902F901F900F900CBE0F900BBE0F9042
S1131DF00FBE0F90089581E008950F920FB6F894E6
S1131E000F920BB60F920CB60F921F9211242F92C1
S1131E103F924F925F926F927F928F929F92AF9276
S1131E20BF92CF92DF92EF92FF920F931F932F9363
S1131E303F934F935F936F937F938F939F93AF934E
S1131E40BF93CF93DF93EF93FF93A091DE12B091F2
S1131E50DF120DB60D920EB60D9286D3A091DE124E
S1131E60B091DF12CD91CDBFDD91DEBFFF91EF9137
S1131E70DF91CF91BF91AF919F918F917F916F919E
S1131E805F914F913F912F911F910F91FF90EF9090
S1131E90DF90CF90BF90AF909F908F907F906F9086
S1131EA05F904F903F902F901F900F900CBE0F901B
S1131EB00BBE0F900FBE0F9008950F920FB6F894BB
S1131EC00F920BB60F920CB60F921F9211242F9201
S1131ED03F924F925F926F927F928F929F92AF92B6
S1131EE0BF92CF92DF92EF92FF920F931F932F93A3
S1131EF03F934F935F936F937F938F939F93AF938E
S1131F00BF93CF93DF93EF93FF93A091DE12B09131
S1131F10DF120DB60D920EB60D92F1D125D3A0911C
S1131F20DE12B091DF12CD91CDBFDD91DEBFFF9106
S1131F30EF91DF91CF91BF91AF919F918F917F915D
S1131F406F915F914F913F912F911F910F91FF904E
S1131F50EF90DF90CF90BF90AF909F908F907F9045
S1131F606F905F904F903F902F901F900F900CBEFA
S1131F700F900BBE0F900FBE0F9008959EDF189523
S1131F80CF93DF93EC01B5D12091090330910A037B
S1131F90C9018C0F9D1F803A4FE0940758F428170D
S1131FA0390758F4E901C55FDC4F90930A03809325
S1131FB0090305C0C0E0D0E002C0C0E0D0E046D2D2
S1131FC0CE01DF91CF91089508958091D51282308A
S1131FD0E0F313DFFACFEF92FF920F931F93CF93A7
S1131FE0DF937C01EB0181E290E0CADF8C01892B55
S1131FF0A9F0209719F4C701C3DF01C0CE01F8018D
S1132000908F878B009729F4C801DEDF00E010E091
S113201005C0A70165EA70E00E94361FC801DF9180
S1132020CF911F910F91FF90EF9008951F93CF933D
S1132030DF93EC01142F48E050E049960E943D1FC5
S113204018A2111110E01E8BCE010296A7DDCE015D
S11320500C96A4DDD987C88781E090E0811B9109A3
S11320609D878C87DB8BCA8BDF91CF911F9108955D
S1132070CF93C0E00FC08C2F90E09C01220F331F40
S1132080220F331F220F331F820F931F8B529D4E3B
S113209077DDCF5FCC2379F38CEC92E171DD83ECB7
S11320A092E16EDD86EB92E16BDD8CEC92E1909334
S11320B0C2128093C11283EC92E19093C012809378
S11320C0BF12CF910895CF93DF93EC01E091DE121C
S11320D0F091DF12938382838091B3129091B412B2
S11320E0C817D90760F46091DE127091DF128091F5
S11320F0BF129091C0126E5F7F4F7BDD16C060915E
S1132100DE127091DF128091C1129091C2126E5F43
S11321107F4F6FDD80910B0290910C02C817D90795
S113212020F4D0930C02C0930B02DF91CF91089559
S11321302F923F924F925F927F928F929F92AF9293
S1132140BF92CF92DF92EF92FF920F931F93CF93A0
S1132150DF9300D01F92CDB7DEB79A8389834B01FA
S11321605C834B831901702EB6012501CA0133DF4C
S11321705C01009709F46CC0FC01C788D08C8B818A
S11321809C810197C80ED91E0B811C819201472D99
S1132190B401C5014BDFA10169817A81C60189DDE2
S11321A0F50191838083E114F10419F0F701B18200
S11321B0A0820FB6F8940F928091B5128F5F80932E
S11321C0B5128091DE129091DF12892B51F4B092F6
S11321D0DF12A092DE128091B512813089F448DFBB
S11321E00FC08091B01281110BC0E091DE12F0910A
S11321F0DF128689781620F0B092DF12A092DE12E8
S1132200F50186899091B212981710F48093B21256
S11322109091AB129F5F9093AB129091B11298176B
S113222010F48093B11290E0B5016E5F7F4F9C0172
S1132230220F331F220F331F220F331F820F931FCE
S11322408B529D4EAFDC0F900FBEF1E0F98302C0BC
S11322508FEF8983E981E13061F48091B0128823A2
S113226041F0E091DE12F091DF128689871508F4BF
S1132270C4DD89810F900F900F900F90DF91CF9163
S11322801F910F91FF90EF90DF90CF90BF90AF9090
S11322909F908F907F905F904F903F902F900895E4
S11322A0AF92BF92CF92DF92EF92FF920F93A12C45
S11322B0B12CC12CD12CE12CF12C00E020E030E039
S11322C045E550E064EF72E085EE9FE031DF813058
S11322D041F4F8948093B0121092B4121092B31295
S11322E05ADD0F91FF90EF90DF90CF90BF90AF90A9
S11322F008958091AF128F5F8093AF1208950F936A
S11323001F93CF93DF938091AF12811195C0809179
S1132310B3129091B41201969093B4128093B312B5
S11323208091B3129091B412892B99F58091C112C6
S11323309091C2122091BF123091C0123093C212F8
S11323402093C1129093C0128093BF128091AC125B
S11323508F5F8093AC12E091C112F091C212808120
S1132360811107C08FEF9FEF90930C0280930B02B3
S113237010C0E091C112F091C2120580F681E02DE7
S11323800680F781E02D8281938190930C028093E3
S11323900B022091B3123091B41280910B029091F0
S11323A00C022817390708F44CC0E091C112F091CF
S11323B0C2128081811107C08FEF9FEF90930C02AE
S11323C080930B023EC0E091C112F091C2120580CD
S11323D0F681E02DC681D7818A819B812091B31239
S11323E03091B4122817390728F490930C02809383
S11323F00B0227C08E010E5F1F4FC8012BDC8C8996
S11324009D89892B19F0CE010C9624DC8E8990913C
S1132410B112981710F48093B11290E09C01220F2E
S1132420331F220F331F220F331F820F931FB80154
S11324308B529D4EB7DBB9CF8091AE128F5F8093E4
S1132440AE12DF91CF911F910F910895FF920F93D8
S11324501F93CF93DF930FB6F8940F928091AF122E
S113246081508093AF128091AF12811155C0809139
S1132470B51281112FC053C0E091BB12F091BC1270
S1132480C681D781CE010C96E5DB8E010E5F1F4F0E
S1132490C801E0DB8E899091B112981710F48093F3
S11324A0B11290E09C01220F331F220F331F220F21
S11324B0331F820F931FB8018B529D4E73DB9E898D
S11324C0E091DE12F091DF128689981720F0FF2444
S11324D0F39401C0F12C8091B6128111CDCF80917B
S11324E0AE12811107C00CC00ADF8091AE12815078
S11324F08093AE128091AE128111F6CFFF24F39433
S113250081E0F81621F08091AD12813039F41092F7
S1132510AD1273DC81E003C080E001C080E00F9065
S11325200FBEDF91CF911F910F91FF900895CF932C
S1132530DF93EC01892B89F0DCDE8091B31290915A
S1132540B412C80FD91F8091DE129091DF12029647
S113255081DBCE01B8DD7ADF01C080E0811101C0EA
S11325604CDCDF91CF9108958091AF12882349F01C
S113257081E08093AD1208958091B11281508093CF
S1132580B1128091B11290E0FC01EE0FFF1FEE0F2B
S1132590FF1FEE0FFF1F8E0F9F1FFC01EB52FD4E1E
S11325A08081882349F38091B11290E09C01220F2D
S11325B0331F220F331F220F331F280F391FD90156
S11325C0AB52BD4E1196ED91FC9112970280F381AE
S11325D0E02D1296FC93EE93119728523D4EE2178C
S11325E0F30729F422813381FD0132832183FC0125
S11325F0EE0FFF1FEE0FFF1FEE0FFF1F8E0F9F1F2B
S1132600FC01EB52FD4E0180F281E02D8681978121
S11326109093DF128093DE12089583B3876083BBA7
S1132620579A8FEF81B987B984B3876084BB5F9A67
S1132630A0982FEF89E698E1215080409040E1F77F
S113264000C00000A09A2FEF89E698E12150804055
S11326509040E1F700C000005F98A198000012B814
S11326608AE388B9A2980000A29A0000A19A5F9A0E
S1132670A198000012B885E088B9A2980000A29A37
S11326800000A19A5F98A198000012B886E388B967
S1132690A2980000A29A0000A19A5F9AA198000053
S11326A012B888E088B9A2980000A29A0000A19A02
S11326B05F98A198000012B881E188B9A29800003F
S11326C0A29A0000A19A5F98A198000012B889E22A
S11326D088B9A2980000A29A0000A19A0895CF9206
S11326E0DF92EF920F93FA013197E80FF91F8E17DB
S11326F09F0708F451C0C9010197860F971F6817F7
S1132700790708F484C05F98A198000012B88CE29D
S113271088B9A2980000A29A0000A19ADA010E9446
S1132720FE1DAB01BC01411551056105710521F187
S113273020E2E29EC0011124802BD12CDC2CCC247D
S1132740DD0CDD0CDD0C8C299D29292FC82E80E0A1
S113275090E0DC015F9AA198000022B9C8B8A29861
S11327600000A29A0000A19A0196A11DB11D841730
S11327709507A607B70771F75F98A198000012B8EC
S113278081E188B9A2980000A29A0000A19A0F9151
S1132790EF90DF90CF9008955F98A198000012B851
S11327A0ABE2A8B9A2980000A29A0000A19A5F9A8D
S11327B0A198000012B898B9A2980000A29A00004B
S11327C0A19A5F9AA198000092B988B9A2980000D2
S11327D0A29A0000A19A5F9AA198000012B8F8B9D1
S11327E0A2980000A29A0000A19A5F9AA198000002
S11327F0F2B9E8B9A2980000A29A0000A19AC9010E
S11328000197860F971F6817790708F07CCF5F98A8
S1132810A198000012B8EAE2E8B9A2980000A29ACE
S11328200000A19A5F9AA198000012B878B9A29802
S11328300000A29A0000A19A5F9AA198000072B9C0
S113284068B9A2980000A29A0000A19A5F9AA19880
S1132850000012B898B9A2980000A29A0000A19AA8
S11328605F9AA198000092B988B9A2980000A29A30
S11328700000A19A48CF0F931F93CF93DF931F9229
S11328801F92CDB7DEB78C01A9D1D80112961C9244
S1132890129713961C92139714961C9214971696DB
S11328A01C921E92159717961C92179718961C92B5
S11328B0189719961C9219971B961C921E921A9798
S11328C01C961C921C971D961C921D971E961C927A
S11328D01E971F961C921F9751961C921E925097FA
S11328E052961C92529753961C92539754961C924C
S11328F0549756961C921E92559757961C9257972A
S113290058961C92589759961C9259975A961C920D
S11329105A975C961C921E925B975D961C925D97EB
S11329205E961C925E975F961C925F9791961C929E
S11329301E92909792961C92CE0101964FD1898156
S11329409A81F80191838083CE01019659D184E163
S1132950D80112968C93129766E413966C9313978E
S113296034E614963C93149744E650E016965C9330
S11329704E9315978DE117968C9317979AEE1896A8
S11329809C93189722E019962C931997E8E7F0E0A6
S11329901B96FC93EE931A978AEA1C968C931C97C9
S11329A078EC1D967C931D971E966C931E971F962C
S11329B03C931F9751965C934E9350973CE25296EA
S11329C03C93529753962C93539754969C935497B5
S11329D02CE231E056963C932E93559757968C9360
S11329E0579758961C92589759961C92599780EF6E
S11329F05A968C935A9720E431E05C963C932E933C
S1132A005B979FEF5D969C935D975E961C925E9795
S1132A105F961C925F9791963C932E939097929613
S1132A208C93FBDD0F900F90DF91CF911F910F914D
S1132A300895CF92DF92EF92FF920F931F93CF935B
S1132A40DF931F921F92CDB7DEB78C011A821982D1
S1132A50AE014F5F5F4FBE016E5F7F4FDED06A8174
S1132A6070E080E090E0B3D76B017C01F8016281F3
S1132A7070E080E090E0ABD721E73DE34AEA5FE312
S1132A8010D79B01AC01C701B6010E94971D18160F
S1132A90DCF4F8016285738580E090E096D721E745
S1132AA03DE34AEA5FE3FDD69B01AC01C701B601F1
S1132AB0F4D687FF09C08981F8019381981720F41F
S1132AC09485891708F43BC0F801658570E080E0BF
S1132AD090E07DD721E73DE34AEA5FE3E2D69B013C
S1132AE0AC01C701B6010E94971D1816E4F4F80161
S1132AF06589768980E090E068D721E73DE34AEA7A
S1132B005FE3CFD69B01AC01C701B601C6D687FFF0
S1132B100AC08981F8019685981728F4978989173E
S1132B2010F482E001C080E00F900F90DF91CF910C
S1132B301F910F91FF90EF90DF90CF90089581E067
S1132B40F3CFCF92EF920F93CC24CA94EE24EA945D
S1132B500FEF20EF30E040E451E060E070E080E00F
S1132B6090E0BDDD0F91EF90CF900895CF92EF925A
S1132B700F93CF93DF93EC012C8130E04D815E8184
S1132B806B8170E08A81C884E9840F8190E0A7DDBD
S1132B902F8530E0488959896E8570E08D85CB8812
S1132BA0EC880A8990E09BDDDF91CF910F91EF9043
S1132BB0CF900895CF92EF920F93FC01228D30E0D5
S1132BC0438D548D618D70E0808DC68CE78C058DAE
S1132BD090E085DD0F91EF90CF9008952CE9FC01F2
S1132BE020832CED2183E1E0F1E080818860808303
S1132BF06B9A9D9A82E080936A00EC9A7894089587
S1132C0008951F920F920FB60F92112410920D0285
S1132C100F900FBE0F901F9018952F923F924F92D6
S1132C205F926F927F928F929F92AF92BF92CF9258
S1132C30DF92EF92FF920F931F93CF93DF93CDB761
S1132C40DEB7A5970FB6F894DEBF0FBECDBF20E068
S1132C5031E004C02150310909F4A1C5D0900D021E
S1132C60D110F8CFFC0170807398FAE2FA95F1F76D
S1132C7000C0272D30E0EAE2EA95F1F700C064B223
S1132C806901CC0CCD2CCC1CDD08CC0CDD1CC29411
S1132C90D294E0EFDE22DC24CE22DC24C628C4BA9F
S1132CA030910201386030930201FAE2FA95F1F7AB
S1132CB000C030910201377F30930201A598EAE207
S1132CC0EA95F1F700C034B376FAEE24E0F8F12C7B
S1132CD0EE0CFF1CE294F294F0EFFF22FE24EF22AC
S1132CE0FE24E32AE4BA30910201386030930201F1
S1132CF0FAE2FA95F1F700C030910201377F309380
S1132D000201A598EAE2EA95F1F700C034B375FA36
S1132D10002700F910E0000F111F02951295107F93
S1132D201027007F1027032B04BB30910201386069
S1132D3030930201FAE2FA95F1F700C030910201F2
S1132D40377F30930201A598EAE2EA95F1F700C0D3
S1132D5034B374FAFF27F0F9FCA31DA2ECA1FDA182
S1132D60EE0FFF1FE295F295F07FFE27E07FFE272E
S1132D70FDA3ECA3E32BE4BB309102013860309354
S1132D800201FAE2FA95F1F700C030910201377FAF
S1132D9030930201A598EAE2EA95F1F700C034B352
S1132DA073FAAA27A0F9B0E0AA0FBB1FA295B295A7
S1132DB0B07FBA27A07FBA27A32BA4BB309102010E
S1132DC0386030930201FAE2FA95F1F700C03091CD
S1132DD00201377F30930201A598EAE2EA95F1F700
S1132DE000C034B372FAEE27E0F9F0E0EE0FFF1FF3
S1132DF0E295F295F07FFE27E07FFE27E32BE4BB0C
S1132E0030910201386030930201FAE2FA95F1F749
S1132E1000C030910201377F30930201A598EAE2A5
S1132E20EA95F1F700C034B371FAAA24A0F8B12CE2
S1132E30AA0CBB1CA294B29420EFB222BA24A22200
S1132E40BA24A32AA4BA2091020128602093020183
S1132E50FAE2FA95F1F700C020910201277F20934E
S1132E600201A5982AE22A95F1F700C024B370FA6A
S1132E70882480F8912C880C991C8294929430EFC9
S1132E809322982483229824822A84BA20910201CE
S1132E902860209302013AE23A95F1F700C02091AC
S1132EA00201277F20930201A598EAE2EA95F1F74F
S1132EB000C020910201286020930201FAE2FA95F1
S1132EC0F1F700C020910201277F2093020125E041
S1132ED02A95F1F700002CB13AE23A95F1F700C0D7
S1132EE030910201386030930201EAE2EA95F1F789
S1132EF000C030910201377F30930201F5E0FA956A
S1132F00F1F700003CB135FB442440F8512C002477
S1132F10569447940794569447940794542C402C01
S1132F2025FB222420F8312C3694322C2224379489
S1132F30279442282AE22A95F1F700C02091020141
S1132F402860209302013AE23A95F1F700C02091FB
S1132F500201277F20930201E5E0EA95F1F70000E2
S1132F602CB12072422AFAE2FA95F1F700C02091BE
S1132F7002012860209302012AE22A95F1F700C099
S1132F8020910201277F2093020135E03A95F1F761
S1132F9000002CB125FB222720F929831A822981DC
S1132FA03A8122953295307F3227207F3227422A78
S1132FB0EAE2EA95F1F700C020910201286020932B
S1132FC00201FAE2FA95F1F700C020910201277F8D
S1132FD02093020125E02A95F1F700002CB125FB8E
S1132FE0222720F92B831C82EB81FC81EE0FFF1F2B
S1132FF0EE0FFF1FEE0FFF1F4E2A3AE23A95F1F74C
S113300000C020910201286020930201EAE2EA95BF
S1133010F1F700C020910201277F20930201F5E01F
S1133020FA95F1F700002CB125FB222720F92D8316
S11330301E82AD81BE81AA0FBB1FAA0FBB1F4A2AE5
S11330402AE22A95F1F700C020910201286020931A
S113305002013AE23A95F1F700C020910201277F7C
S113306020930201E5E0EA95F1F700002CB125FB7D
S1133070222720F92F8318862F813885220F331FAA
S11330803A832983242929833AE23A95F1F700C047
S113309020910201286020930201EAE2EA95F1F707
S11330A000C020910201277F20930201F5E0FA95E8
S11330B0F1F700004CB02AE22A95F1F700C0209104
S11330C002012860209302013AE23A95F1F700C028
S11330D020910201277F20930201EAE2EA95F1F7A9
S11330E000C020910201286020930201FAE2FA95BF
S11330F0F1F700C020910201277F209302012AE208
S11331002A95F1F700C02091020128602093020162
S11331103AE23A95F1F700C020910201277F20930B
S11331200201EAE2EA95F1F700C020910201286069
S113313020930201FAE2FA95F1F700C0209102010E
S1133140277F209302012AE22A95F1F700C02091FB
S113315002012860209302013AE23A95F1F700C097
S113316020910201277F20930201EAE2EA95F1F718
S113317000C020910201286020930201FAE2FA952E
S1133180F1F700C020910201277F209302012AE277
S11331902A95F1F700C020910201286020930201D2
S11331A03AE23A95F1F700C020910201277F20937B
S11331B00201EAE2EA95F1F700C0209102012860D9
S11331C020930201FAE2FA95F1F700C0209102017E
S11331D0277F20930201739A45FA442440F82981F9
S11331E0422A4094FB014082FC0161817398FAE217
S11331F0FA95F1F700C0862F90E02AE22A95F1F7BC
S113320000C074B39C01220F232F221F330B220F03
S1133210331F22953295307F3227207F3227272B88
S113322024BB909102019860909302013AE23A958E
S1133230F1F700C090910201977F90930201A59845
S1133240EAE2EA95F1F700C094B366FBFF27F0F9D0
S1133250F9871A8629853A85220F331F22953295DC
S1133260307F3227207F3227292B24BB9091020103
S11332709860909302012AE22A95F1F700C0909198
S11332800201977F90930201A5983AE23A95F1F7EB
S113329000C094B365FBEE27E0F9EB871C862B8511
S11332A03C85220F331F22953295307F3227207FB1
S11332B03227292B24BB909102019860909302013C
S11332C0FAE2FA95F1F700C090910201977F90938A
S11332D00201A5982AE22A95F1F700C094B364FB91
S11332E0332730F93D871E862D853E85220F331FF7
S11332F022953295307F3227207F3227292B24BB19
S113330090910201986090930201EAE2EA95F1F744
S113331000C090910201977F90930201A598FAE270
S1133320FA95F1F700C094B363FB222720F92F87A5
S1133330188A2F853889220F331F22953295307FC2
S11333403227207F3227292B24BB909102019860D9
S1133350909302013AE23A95F1F700C0909102018C
S1133360977F90930201A598EAE2EA95F1F700C0ED
S113337094B362FBFF27F0F9F98B1A8A29893A89F9
S1133380220F331F22953295307F3227207F322738
S1133390292B24BB909102019860909302012AE2A8
S11333A02A95F1F700C090910201977F9093020152
S11333B0A5983AE23A95F1F700C024B361FBEE27F1
S11333C0E0F9EB8B1C8A8B899C89880F991F829565
S11333D09295907F9827807F9827822B84BB809139
S11333E00201886080930201FAE2FA95F1F700C0C5
S11333F080910201877F80930201A5982AE22A9591
S1133400F1F700C024B361706D8B1E8A8D899E898B
S1133410880F991F82959295907F9827807F98278F
S1133420822B84BB809102018860809302013AE27E
S11334303A95F1F700C080910201877F80930201E1
S1133440A5988AE28A95F1F700C08091020188600C
S1133450809302019AE29A95F1F700C080910201EB
S1133460877F80930201E5E0EA95F1F700009CB1C3
S1133470FAE2FA95F1F700C0809102018860809326
S113348002012AE22A95F1F700C080910201877FA8
S11334908093020135E03A95F1F700008CB185FB89
S11334A0882780F98F8B188E2F89388D00243695C4
S11334B027950794369527950794322F202D95FB51
S11334C0992790F9998F1A8E898D9A8D9695982FB0
S11334D0882797958795822B9AE29A95F1F700C0F1
S11334E090910201986090930201EAE2EA95F1F763
S11334F000C090910201977F90930201F5E0FA9544
S1133500F1F700009CB19072892B2AE22A95F1F719
S113351000C0909102019860909302013AE23A95BA
S1133520F1F700C090910201977F9093020195E01A
S11335309A95F1F700009CB195FB992790F99B8F20
S11335401C8E6B8D7C8D62957295707F7627607F63
S11335507627282F262BEAE2EA95F1F700C080911E
S11335600201886080930201FAE2FA95F1F700C043
S113357080910201877F8093020135E03A95F1F74B
S113358000008CB185FB882780F98D8F1E8E6D8D90
S11335907E8D660F771F660F771F660F771F622B6E
S11335A08AE28A95F1F700C08091020188608093D5
S11335B002019AE29A95F1F700C080910201877F97
S11335C080930201E5E0EA95F1F700008CB185FBF8
S11335D0882780F98F8F18A22F8D38A1220F331FCF
S11335E0220F331F262BFAE2FA95F1F700C08091DF
S11335F002018860809302013AE23A95F1F700C033
S113360080910201877F8093020185E08A95F1F71A
S113361000008CB185FB882780F989A31AA289A1AF
S11336209AA1880F991F282B9AE29A95F1F700C066
S113363080910201886080930201EAE2EA95F1F741
S113364000C080910201877F80930201F5E0FA9522
S1133650F1F700008CB13AE23A95F1F700C090918D
S113366002019860909302019AE29A95F1F700C0E2
S113367090910201977F90930201EAE2EA95F1F7B3
S113368000C090910201986090930201FAE2FA95C9
S1133690F1F700C090910201977F909302013AE202
S11336A03A95F1F700C0909102019860909302015D
S11336B09AE29A95F1F700C090910201977F909356
S11336C00201EAE2EA95F1F700C0909102019860E4
S11336D090930201FAE2FA95F1F700C09091020189
S11336E0977F909302013AE23A95F1F700C09091E6
S11336F002019860909302019AE29A95F1F700C052
S113370090910201977F90930201EAE2EA95F1F722
S113371000C090910201986090930201FAE2FA9538
S1133720F1F700C090910201977F909302013AE271
S11337303A95F1F700C090910201986090930201CC
S11337409AE29A95F1F700C090910201977F9093C5
S11337500201EAE2EA95F1F700C090910201986053
S113376090930201FAE2FA95F1F700C090910201F8
S1133770977F90930201739A85FB882780F9282B01
S11337802095FA012083FFEF20E732E0F15020403A
S11337903040E1F700C000008FEF80930D02A59642
S11337A00FB6F894DEBF0FBECDBFDF91CF911F914E
S11337B00F91FF90EF90DF90CF90BF90AF909F90CC
S11337C08F907F906F905F904F903F902F900895CF
S11337D05058BB27AA270ED070C161D130F066D1F2
S11337E020F031F49F3F11F41EF456C10EF4E0951D
S11337F0E7FB4CC1E92F72D180F3BA176207730754
S11338008407950718F071F49EF58AC10EF4E095CB
S11338100B2EBA2FA02D0B01B90190010C01CA0186
S1133820A0011124FF27591B99F0593F50F4503E31
S113383068F11A16F040A22F232F342F4427585F23
S1133840F3CF469537952795A795F0405395C9F73B
S11338507EF41F16BA0B620B730B840BBAF09150F3
S1133860A1F0FF0FBB1F661F771F881FC2F70EC092
S1133870BA0F621F731F841F48F487957795679565
S1133880B795F7959E3F08F0B3CF9395880F08F04E
S11338909927EE0F979587950895D4D008F481E081
S11338A008950CD00AC102D140F0F9D030F021F4CF
S11338B05F3F19F0EBC0511134C1EEC00FD198F342
S11338C09923C9F35523B1F3951B550BBB27AA279D
S11338D062177307840738F09F5F5F4F220F331F0F
S11338E0441FAA1FA9F333D00E2E3AF0E0E830D0DB
S11338F091505040E695001CCAF729D0FE2F27D0DE
S1133900660F771F881FBB1F261737074807AB07AB
S1133910B0E809F0BB0B802DBF01FF2793585F4F20
S11339202AF09E3F510568F0B1C0FBC05F3FECF345
S1133930983EDCF3869577956795B795F7959F5FE5
S1133940C9F7880F911D9695879597F90895E1E039
S1133950660F771F881FBB1F621773078407BA0798
S113396020F0621B730B840BBA0BEE1F88F7E095F3
S11339700895BCD088F09F5790F0B92F9927B7517C
S1133980A0F0D1F0660F771F881F991F1AF0BA951F
S1133990C9F712C0B13081F0C3D0B1E00895C0C0FE
S11339A0672F782F8827B85F39F0B93FCCF3869515
S11339B077956795B395D9F73EF490958095709572
S11339C061957F4F8F4F9F4F0895E89409C097FBEF
S11339D03EF490958095709561957F4F8F4F9F4FE2
S11339E09923A9F0F92F96E9BB279395F695879526
S11339F077956795B795F111F8CFFAF4BB0F11F4E9
S1133A0060FF1BC06F5F7F4F8F4F9F4F16C088238F
S1133A1011F096E911C0772321F09EE8872F762FC5
S1133A2005C0662371F096E8862F70E060E02AF006
S1133A309A95660F771F881FDAF7880F96958795F2
S1133A4097F90895990F0008550FAA0BE0E8FEEFC7
S1133A5016161706E807F907C0F012161306E4074E
S1133A60F50798F0621B730B840B950B39F40A2647
S1133A7061F0232B242B252B21F408950A2609F425
S1133A80A140A6958FEF811D811D089597F99F6729
S1133A9080E870E060E008959FEF80EC08950024D2
S1133AA00A941616170618060906089500240A949F
S1133AB012161306140605060895092E0394000C25
S1133AC011F4882352F0BB0F40F4BF2B11F460FFB4
S1133AD004C06F5F7F4F8F4F9F4F089557FD9058DD
S1133AE0440F551F59F05F3F71F04795880F97FBBE
S1133AF0991F61F09F3F79F0879508951216130678
S1133B001406551FF2CF4695F1DF08C016161706A6
S1133B101806991FF1CF86957105610508940895DB
S1133B20E894BB2766277727CB0197F908958ADFA6
S1133B3008F48FEF08950BD0C0CFB1DF28F0B6DFC3
S1133B4018F0952309F0A2CFA7CF1124EACFC6DF3E
S1133B50A0F3959FD1F3950F50E0551F629FF0019C
S1133B60729FBB27F00DB11D639FAA27F00DB11DF5
S1133B70AA1F649F6627B00DA11D661F829F22277E
S1133B80B00DA11D621F739FB00DA11D621F839F05
S1133B90A00D611D221F749F3327A00D611D231FDB
S1133BA0849F600D211D822F762F6A2F11249F5729
S1133BB050408AF0E1F088234AF0EE0FFF1FBB1F4C
S1133BC0661F771F881F91505040A9F79E3F5105EB
S1133BD070F05CCFA6CF5F3FECF3983EDCF38695A4
S1133BE077956795B795F795E7959F5FC1F7FE2B96
S1133BF0880F911D9695879597F90895A29FB00116
S1133C00B39FC001A39F700D811D1124911DB29F0C
S1133C10700D811D1124911D0895EE0FFF1F881F43
S1133C208BBF0790F691E02D19940F931F93CF93B8
S1133C30DF938230910510F482E090E0E091E2128B
S1133C40F091E31220E030E0A0E0B0E0309719F109
S1133C50408151810281138148175907C8F08417A4
S1133C60950769F4109731F012960C9312971396F6
S1133C701C9327C00093E2121093E31222C0211573
S1133C80310519F04217530718F49A01BD01EF01E9
S1133C90DF01F801DBCF21153105F9F0281B390BC1
S1133CA02430310580F48A819B816115710521F0EE
S1133CB0FB019383828304C09093E3128093E21206
S1133CC0FE01329644C0FE01E20FF31F81939193EB
S1133CD022503109398328833AC02091E01230916F
S1133CE0E112232B41F4209102023091030230931C
S1133CF0E1122093E012209100023091010221157B
S1133D00310541F42DB73EB74091040250910502AC
S1133D10241B350BE091E012F091E112E217F30756
S1133D20A0F42E1B3F0B2817390778F0AC014E5F27
S1133D305F4F2417350748F04E0F5F1F5093E11271
S1133D404093E0128193919302C0E0E0F0E0CF0150
S1133D50DF91CF911F910F910895CF93DF93009737
S1133D6009F481C0FC01329713821282A091E212FD
S1133D70B091E312109781F420813181820F931F57
S1133D802091E0123091E1122817390751F5F09390
S1133D90E112E093E01267C0ED0120E030E0CE17BD
S1133DA0DF0740F44A815B819E0141155105F1F022
S1133DB0EA01F5CFD383C28340815181840F951FDB
S1133DC0C817D90759F488819981840F951F0296E1
S1133DD0918380838A819B8193838283211531051A
S1133DE029F4F093E312E093E2123DC0E901FB836E
S1133DF0EA8349915991C40FD51FEC17FD0761F46B
S1133E0080819181840F951F0296E90199838883AB
S1133E10828193819B838A83E0E0F0E012968D9106
S1133E209C911397009719F0FD01DC01F7CF8D9158
S1133E309C9111979D012E5F3F4F820F931F2091FC
S1133E40E0123091E1122817390769F4309729F408
S1133E501092E3121092E21202C013821282B09303
S1133E60E112A093E012DF91CF910895DC0101C02B
S1133E706D9341505040E0F70895FB01DC0141503F
S1133E80504048F001900D920020C9F701C01D92E6
S1133E9041505040E0F7089510E0C3E7D0E000E05F
S1133EA005C0802FFE01B9DE2196011DC437D1075C
S10D3EB080E00807B1F7F894FFCF93
S1133EBA0000E4122000BD37863601FFFFFF232AE3
S1133ECA45444545453045454545454545453937C4
S1133EDA4543454545384545454545454545454593
S1133EEA454545454545454545454545454533319A
S1133EFA454145454532454545454545454545457B
S1133F0A4545454545454545454545454545454553
S1133F1A4545454545454545454545454545454543
S1133F2A4545454545454545454545454545363453
S1133F3A4542454545354B65797061642054617342
S1133F4A6B00446973706C6179202B2041726D2077
S1133F5A5461736B004D6F746F727300000000003C
S1133F6AD108D208D3088404000000007109720938
S1133F7A7309840400000000110A120A130A840453
S1133F8A00000000B10AB20AB30A84040000000067
S1133F9A500B510B520B840400000000EB0BEC0B8A
S10D3FAAED0B840449444C4500006B
S9030000FC
