S0130000526F626F74536F727465722E737265638C
S113000073C00000A1C000009FC000009DC000009C
S11300109BC0000099C0000097C0000095C000007C
S113002093C0000091C000008FC000008DC000008C
S11300308BC0000089C0000087C0000085C000009C
S113004083C0000081C000007FC000007DC00000AC
S11300507BC0000079C0000077C0000075C00000BC
S113006073C0000071C000006FC000006DC00000CC
S11300706BC0000069C0000067C0000065C00000DC
S113008063C0000061C000005FC000005DC00000EC
S11300905BC0000059C0000057C0000055C00000FC
S11300A053C0000028C200004FC000004DC0000033
S11300B04BC00000FBC1000047C000000C949B0D26
S11300C043C0000041C000003FC000003DC000002C
S11300D03BC0000039C0000037C0000035C000003C
S11300E033C00000B403BA0311241FBECFEFD1E222
S11300F0DEBFCDBF00E00CBF12E0A0E0B2E0EAEB4F
S1130100F8E200E00BBF02C007900D92A237B107DE
S1130110D9F726E1A2E7B2E001C01D92A13DB207E2
S1130120E1F710E0C3E7D0E000E006C02197010941
S1130130802FFE010E940D13C237D10780E008070B
S1130140A9F7EFD20C944C145BCF08950895FC01E9
S113015060817181828193810895FC01648175813C
S1130160868197810895FC016085718582859385D8
S11301700895FC0140835183628373830895FC01D5
S113018044835583668377830895FC0140875187B0
S1130190628773870895FC01648708950F931F9302
S11301A0CF93DF938C01EC01CD57DF4FCE01CEDF2F
S11301B00F5F1F4F39F0C017D10721F02D97CE01E3
S11301C0C5DFF9CFDF91CF911F910F910895613071
S11301D031F0D0F0623089F0633041F0089588B195
S11301E08B7F88B988B1877F88B9089588B18B7F60
S11301F088B988B1886088B9089588B1846088B95D
S113020088B1886088B9089588B1846088B988B154
S1130210877F88B908950F931F93CF93DF93EC01E1
S113022061E0D5DFCE0113D120E030E04AE754E4A9
S11302300E94E8100E94B911AB01BC018E010D5758
S11302401F4FC80196DF63E0CE01C1DFCE01FFD0AE
S113025020E030E04AE754E40E94E8100E94B9111B
S1130260AB01BC01C8018BDF62E0CE01B0DFCE017F
S1130270EED020E030E04AE754E40E94E8100E9407
S1130280B911AB01BC01C80180DFDF91CF911F918F
S11302900F9108958F929F92AF92BF92CF92DF9267
S11302A0EF92FF921F93CF93DF936A3008F055C00B
S11302B0162FEC0161E08BDFCE01C9D04B015C014C
S11302C06E0123E8C20ED11CC60141DF0E94E51174
S11302D09B01AC01C501B4010E94E8100E94B91150
S11302E0AB01BC012DE0129FC001112401967E01D7
S11302F0E80EF91EC7013DDF63E0CE0168DFCE01E1
S1130300A6D04B015C01C60128DF0E94E5119B01C8
S1130310AC01C501B4010E94E8100E94B911AB01FF
S1130320BC01C7012CDF62E0CE0151DFCE018FD0CA
S11303304B015C01C60117DF0E94E5119B01AC0172
S1130340C501B4010E94E8100E94B911AB01BC01BF
S1130350C7011BDF612FC7011EDFDF91CF911F9102
S1130360FF90EF90DF90CF90BF90AF909F908F90D1
S11303700895613069F028F0623089F06330B1F09B
S1130380089588B18E7F88B988B18D7F88B9089522
S113039088B18E7F88B988B1826088B9089588B1A0
S11303A0816088B988B18D7F88B9089588B18160EA
S11303B088B988B1826088B90895BF92CF92DF92DC
S11303C0EF92FF920F931F93CF93DF931F92CDB7BA
S11303D0DEB76C01B62E2DD076018FEFE81AF80A3D
S11303E009E010E00F3F8FEF180741F0C701ADDEC1
S11303F08DE0E80EF11C01501109F4CFC6018D57B0
S11304009F4FA3DE8FEF87B91AB8CE01019611D0A2
S113041060E0C601DCDE6B2DC601ABDF0F90DF911F
S1130420CF911F910F91FF90EF90DF90CF90BF90ED
S113043008951092A00081EC8093A1001092A20074
S113044019BA1092A5001092A4007894089581E03E
S113045080930A0210927A0210927B0210927C021C
S113046010927D0210927202109273021092740222
S11304701092750219BA81E280937200609172023F
S113048070917302809174029091750220E030E0C3
S1130490A9010E944D11882389F360917202709121
S11304A07302809174029091750208951F920F92C5
S11304B00FB60F9211248F939F93AF93BF938091A4
S11304C0760290917702A0917802B0917902019618
S11304D0A11DB11D8093760290937702A0937802B8
S11304E0B0937902BF91AF919F918F910F900FBEFE
S11304F00F901F9018951F920F920FB60F92112410
S11305000BB60F92CF92DF92EF92FF920F931F934D
S11305102F933F934F935F936F937F938F939F9307
S1130520AF93BF93EF93FF936091A6007091A700E0
S113053080910A028823C1F0109276021092770209
S11305401092780210927902CB01A0E0B0E080937F
S11305507A0290937B02A0937C02B0937D02109266
S11305600A0281E089BB8EC01092720019BACB01D5
S1130570A0E0B0E000917A0210917B0220917C020D
S113058030917D0280179107A207B30780F500918F
S11305907602109177022091780230917902012B32
S11305A0022B032BA1F00091760210917702209187
S11305B0780230917902015011092109310900931F
S11305C07602109377022093780230937902009197
S11305D07A0210917B0220917C0230917D02801B73
S11305E0910BA20BB30B0197AF4FBF4F0CC00091FF
S11305F07A0210917B0220917C0230917D02801B53
S1130600910BA20BB30B009176021091770220910B
S1130610780230917902980111270027BC01CD019D
S1130620600F711F821F931FC0900602D0900702B3
S1130630E0900802F09009020E94E511A7019601DA
S11306400E949B129B01AC0160E070E080E89FE394
S11306500E9451116093720270937302809374022A
S1130660909375021092760210927702109278029B
S11306701092790210927A0210927B0210927C02FC
S113068010927D02FF91EF91BF91AF919F918F9155
S11306907F916F915F914F913F912F911F910F9196
S11306A0FF90EF90DF90CF900F900BBE0F900FBE96
S11306B00F901F901895EC018EE792E0ACDD60E09E
S11306C08EE792E0E7DD61E08EE792E0E3DDCE01C4
S11306D0CAD488E893E10E947210CE015ED688E8FD
S11306E093E10E947210F3CF0F931F93CF93DF9384
S11306F0EC018B01019739F46F3F7F4F21F463E0E4
S11307008EE792E05ADECD2B31F40F3F1F4F19F4E0
S11307108EE792E043DDDF91CF911F910F91089511
S1130720FFCFCF93DF93CDB7DEB7CE59D1090FB644
S1130730F894DEBF0FBECDBFCE0101961CD4A12C10
S1130740B12CC12CD12CE12CF12C00E09E012F5FA7
S11307503F4F45E550E06DE072E08BE593E00E9489
S1130760730E0E942B0FFFCF6FEF7FEF81E090E0BD
S1130770BBCF08956FEF7FEF80E090E0B5CF089591
S1130780CF92DF92EF92FF92CF93DF93EC01CE8072
S1130790DF80E884F98470E080E090E00E94E71153
S11307A0A70196010E949B122A893B894C895D8985
S11307B00E94E9106A877B878C879D87DF91CF91A0
S11307C0FF90EF90DF90CF90089526E132E0FC0196
S11307D0318320830895CF93DF93EC01F6DFCE01BC
S11307E00E94AD13DF91CF9108954F925F926F9263
S11307F07F928F929F92AF92BF92CF92DF92EF92AD
S1130800FF92CF93DF93EC018A849B84AC84BD84F4
S1130810CE84DF84E888F98820E030E040E85DE3B6
S1130820C701B6010E94E9102B013C019B01AC01F8
S1130830C501B4010E949712181674F44E865F869F
S1130840688A798AB301A2018A819B81DFD58E8966
S11308509F890E9472101DC0A7019601C501B401B1
S11308600E944D118823ACF420E030E040E85DE3C1
S1130870C701B6010E94E810AB01BC014E875F8737
S1130880688B798B8A819B81C1D58E899F890E94CF
S11308907210DF91CF91FF90EF90DF90CF90BF90D7
S11308A0AF909F908F907F906F905F904F9008953E
S11308B0CF93DF93EC01CB0122E232E0398328832A
S11308C07B836A8349E35EE863E67DE34E835F836B
S11308D06887798740E050E060E270E44A8B5B8B84
S11308E06C8B7D8B21E030E03F8B2E8B40E050E021
S11308F060EF70E44A875B876C877D8787D58A853C
S11309009B85AC85BD858E879F87A88BB98BDF912E
S1130910CF91089526E132E0FC01318320830895CC
S1130920CF93DF93EC01F6DFCE010E94AD13DF918C
S1130930CF9108954F925F926F927F928F929F9280
S1130940AF92BF92CF92DF92EF92FF92CF93DF9359
S1130950EC018A849B84AC84BD84CE84DF84E888E3
S1130960F98820E030E040E85DE3C701B6010E9469
S1130970E9102B013C019B01AC01C501B4010E94AB
S11309809712181674F44E865F86688A798AB301C2
S1130990A2018A819B8179D58E899F890E947210D8
S11309A01DC0A7019601C501B4010E944D11882301
S11309B0ACF420E030E040E85DE3C701B6010E94FA
S11309C0E810AB01BC014E875F87688B798B8A8105
S11309D09B815BD58E899F890E947210DF91CF9194
S11309E0FF90EF90DF90CF90BF90AF909F908F904B
S11309F07F906F905F904F900895CF93DF93EC01B9
S1130A00CB012EE232E0398328837B836A834FE86B
S1130A1052EC65E77DE34E835F836887798740E026
S1130A2050E060E470E44A8B5B8B6C8B7D8B2AE036
S1130A3030E03F8B2E8B46E656E666E071E44A874B
S1130A405B876C877D8721D58A859B85AC85BD8531
S1130A508E879F87A88BB98BDF91CF91089526E16C
S1130A6032E0FC01318320830895CF93DF93EC01BE
S1130A70F6DFCE010E94AD13DF91CF9108954F921E
S1130A805F926F927F928F929F92AF92BF92CF921A
S1130A90DF92EF92FF92CF93DF93EC018A849B84E1
S1130AA0AC84BD84CE84DF84E888F98820E030E01B
S1130AB040E85DE3C701B6010E94E9102B013C0147
S1130AC09B01AC01C501B4010E949712181674F47D
S1130AD04E865F86688A798AB301A2018A819B81E6
S1130AE013D58E899F890E9472101DC0A70196019B
S1130AF0C501B4010E944D118823ACF420E030E01C
S1130B0040E85DE3C701B6010E94E810AB01BC01F7
S1130B104E875F87688B798B8A819B81F5D48E8918
S1130B209F890E947210DF91CF91FF90EF90DF9028
S1130B30CF90BF90AF909F908F907F906F905F9079
S1130B404F900895CF93DF93EC01CB012AE332E079
S1130B50398328837B836A8349E35EE863E67DE324
S1130B604E835F836887798740E050E060E270E4F9
S1130B704A8B5B8B6C8B7D8B27E030E03F8B2E8B1D
S1130B8040E050E060EF70E44A875B876C877D87C4
S1130B90BBD48A859B85AC85BD858E879F87A88BB2
S1130BA0B98BDF91CF91089526E132E0FC013183C6
S1130BB020830895CF93DF93EC01F6DFCE010E94EA
S1130BC0AD13DF91CF9108954F925F926F927F9210
S1130BD08F929F92AF92BF92CF92DF92EF92FF9249
S1130BE0CF93DF93EC018A849B84AC84BD84CE8450
S1130BF0DF84E888F98820E030E040E85DE3C7015D
S1130C00B6010E94E9102B013C019B01AC01C50116
S1130C10B4010E949712181674F44E865F86688A8F
S1130C20798AB301A2018C819D81CAD48AE090E0C3
S1130C300E9472101DC0A7019601C501B4010E9453
S1130C404D118823ACF420E030E040E85DE3C701B7
S1130C50B6010E94E810AB01BC014E875F87688B28
S1130C60798B8C819D81ACD48AE090E00E947210D3
S1130C70DF91CF91FF90EF90DF90CF90BF90AF9036
S1130C809F908F907F906F905F904F900895CF9337
S1130C90DF93EC01CB0126E432E0398328837D83A2
S1130CA06C8349E35EE863E67DE34E835F83688794
S1130CB0798740E050E060E270E44A8B5B8B6C8B98
S1130CC07D8B25E030E03F8B2E8B40E050E060EFE1
S1130CD070E44A875B876C877D8772D48A859B859D
S1130CE0AC85BD858E879F87A88BB98BDF91CF910B
S1130CF0089526E132E0FC01318320830895CF93E7
S1130D00DF93EC01F6DFCE010E94AD13DF91CF91AA
S1130D1008954F925F926F927F928F929F92AF92BB
S1130D20BF92CF92DF92EF92FF92CF93DF93EC01C9
S1130D308A849B84AC84BD84CE84DF84E888F9886B
S1130D4020E030E040E85DE3C701B6010E94E9100D
S1130D502B013C019B01AC01C501B4010E94971217
S1130D60181674F44E865F86688A798AB301A201E4
S1130D708C819D8163D48E899F890E9472101DC0CD
S1130D80A7019601C501B4010E944D118823ACF45A
S1130D9020E030E040E85DE3C701B6010E94E810BE
S1130DA0AB01BC014E875F87688B798B8C819D81F9
S1130DB045D48E899F890E947210DF91CF91FF9054
S1130DC0EF90DF90CF90BF90AF909F908F907F90E7
S1130DD06F905F904F900895CF93DF93EC01CB0118
S1130DE022E532E0398328837D836C8349E35EE81E
S1130DF063E67DE34E835F836887798740E050E054
S1130E0060E270E44A8B5B8B6C8B7D8B21E030E07D
S1130E103F8B2E8B4A875B876C877D870FD48A85AF
S1130E209B85AC85BD858E879F87A88BB98BDF9109
S1130E30CF91089526E132E0FC01318320830895A7
S1130E40CF93DF93EC01F6DFCE010E94AD13DF9167
S1130E50CF9108954F925F926F927F928F929F925B
S1130E60AF92BF92CF92DF92EF92FF92CF93DF9334
S1130E70EC018A849B84AC84BD84CE84DF84E888BE
S1130E80F98820E030E040E85DE3C701B6010E9444
S1130E90E9102B013C019B01AC01C501B4010E9486
S1130EA09712181674F44E865F86688A798AB3019D
S1130EB0A2018C819D81FFD38E899F890E9472102B
S1130EC01DC0A7019601C501B4010E944D118823DC
S1130ED0ACF420E030E040E85DE3C701B6010E94D5
S1130EE0E810AB01BC014E875F87688B798B8C81DE
S1130EF09D81E1D38E899F890E947210DF91CF91E9
S1130F00FF90EF90DF90CF90BF90AF909F908F9025
S1130F107F906F905F904F900895CF93DF93EC0193
S1130F20CB012EE532E0398328837D836C8349E24B
S1130F305AE862EA7DE34E835F836887798740E0FD
S1130F4050E060E270E44A8B5B8B6C8B7D8B21E01C
S1130F5030E03F8B2E8B4A875B876C877D87ABD3D2
S1130F608A859B85AC85BD858E879F87A88BB98B29
S1130F70DF91CF9108954F925F926F927F928F92FB
S1130F809F92AF92BF92CF92DF92EF92FF920F9314
S1130F901F93CF93DF93EC011BD28E010F5F1F4F82
S1130FA0C801F0D25E0182E0A80EB11CBE01C501E9
S1130FB07FDC6E018AE1C80ED11CBE01C6011DDDB5
S1130FC07E0182E3E80EF11CBE01C701BBDD4E01C8
S1130FD08AE4880E911CB801C40159DE3E0182E600
S1130FE0680E711CB801C301F7DE2E018AE7480EB2
S1130FF0511CB801C20191DF84B1806184B9FE0142
S1131000EE56FF4FB182A0823296D182C0823296D0
S1131010F182E0823296918280823296718260827D
S1131020329651824082A12CB12CC12CD12CE12CBE
S1131030F12C01E09E0145E550E066E672E083E3B1
S113104099E051D6DF91CF911F910F91FF90EF90CE
S1131050DF90CF90BF90AF909F908F907F906F90D4
S11310605F904F900895CF92DF92EF92FF920F938B
S11310701F93CF93DF93EC018C01065B1F4FF801A4
S1131080668177818085918520E030E040E252E4FA
S11310900E949B12F80122893389448955890E9450
S11310A0E910F80162877387848795877E01F2E6E9
S11310B0EF0EF11CF701668177818085918520E030
S11310C030E044EB52E40E949B12F70122893389F9
S11310D0448955890E94E910F701628773878487E0
S11310E09587688579858A859B8520E030E0A9010C
S11310F00E949B122C893D894E895F890E94E910C8
S11311006C877D878E879F878CED95E0EBD768A1F0
S113111079A18AA19BA120E030E04CE052E40E9436
S11311209B122CA53DA54EA55FA50E94E9106CA3BA
S11311307DA38EA39FA368AD79AD8AAD9BAD20E05E
S113114030E04CE752E40E949B126E01F4E4CF0EAF
S1131150D11CF60120813181428153810E94E91022
S11311606CAF7DAF8EAF9FAF8CED95E0BBD77E01AA
S1131170FAE7EF0EF11CF70166817781808591858E
S113118020E030E042E852E40E949B12F7012289F9
S11311903389448955890E94E910F701628773876E
S11311A0848795878AEF90E09DD768A179A18AA169
S11311B09BA120E030E04CE852E40E949B122CA555
S11311C03DA54EA55FA50E94E9106CA37DA38EA347
S11311D09FA368AD79AD8AAD9BAD20E030E04CE8CB
S11311E052E40E949B12F601208131814281538195
S11311F0F0D76CAF7DAF8EAF9FAFF801668177817A
S11312008085918520E030E04CE852E40E949B12F6
S1131210F8012289338944895589DBD7F80162872B
S1131220738784879587DF91CF911F910F91FF90EA
S1131230EF90DF90CF9008958C01C0E0C630E8F7BE
S1131240EC2FF0E0E75BFF4FEE0FFF1FE00FF11F05
S113125080819181DC01ED91FC910480F581E02D88
S11312601995CF5FEBCFE8DFEF92FF920F931F93B7
S1131270CF93DF93EC018CED95E034D768A179A18D
S11312808AA19BA120E030E04CE052E40E949B1232
S11312902CA53DA54EA55FA59CD76CA37DA38EA3CD
S11312A09FA368AD79AD8AAD9BAD20E030E040E20C
S11312B052E40E949B127E0124E4E20EF11CF70129
S11312C0208131814281538184D76CAF7DAF8EAF51
S11312D09FAF8CED95E006D78E0106581F4FF8019D
S11312E0668177818085918520E030E0A9010E94A4
S11312F09B12F80122893389448955896AD7F801F8
S113130062877387848795878AEF90E0EBD668A11C
S113131079A18AA19BA120E030E044EB52E40E9431
S11313209B122CA53DA54EA55FA553D76CA37DA309
S11313308EA39FA368AD79AD8AAD9BAD20E030E06C
S113134044EB52E40E949B12F701208131814281D7
S113135053813FD76CAF7DAF8EAF9FAFC65BDF4F7E
S11313606E817F818885998520E030E044EB52E4EA
S11313700E949B122A893B894C895D892AD76A87F6
S11313807B878C879D878AEF90E0ACD6DF91CF91E5
S11313901F910F91FF90EF900895CF93DF93EC018D
S11313A0688579858A859B8520E030E044EB52E4AA
S11313B00E949B122C893D894E895F890AD76C87CC
S11313C07D878E879F87CE014FDFDF91CF91089570
S11313D084B1806E84B988EA8093800084E180932C
S11313E08100109282008EE692E0909387008093B1
S11313F08600109289001092880010928B0010923F
S11314008A0010928D0010928C000895CF92DF9282
S1131410EF92FF92CF93DF9300D01F92CDB7DEB748
S11314206A017B01209186003091870036952795CB
S113143036952795ABE7B4E10E94FE129695879501
S1131440BC0180E090E0C1D769837A838B839C835D
S113145069817A818B819C818CD770E080E090E0F7
S1131460B6D7A70196010E949B1283D77093890077
S1131470609388000F900F900F900F90DF91CF91A1
S1131480FF90EF90DF90CF900895CF92DF92EF928C
S1131490FF92CF93DF9300D01F92CDB7DEB76A01DE
S11314A07B012091860030918700369527953695EB
S11314B02795ABE7B4E10E94FE1296958795BC018F
S11314C080E090E082D769837A838B839C836981EF
S11314D07A818B819C814DD770E080E090E077D752
S11314E0A70196010E949B1244D770938B006093CE
S11314F08A000F900F900F900F90DF91CF91FF9083
S1131500EF90DF90CF900895CF92DF92EF92FF9209
S1131510CF93DF9300D01F92CDB7DEB76A017B0172
S1131520209186003091870036952795369527952A
S1131530ABE7B4E10E94FE1296958795BC0180E06A
S113154090E043D769837A838B839C8369817A8112
S11315508B819C810ED770E080E090E038D7A701A2
S11315609601E9D706D770938D0060938C000F9095
S11315700F900F900F90DF91CF91FF90EF90DF903D
S1131580CF9008958DB188638DB988EA80939000D7
S113159084E180939100109292008EE692E0909301
S11315A097008093960010929900109298001092E0
S11315B09B0010929A0010929D0010929C00089536
S11315C0CF92DF92EF92FF92CF93DF9300D01F92DE
S11315D0CDB7DEB76A017B01209196003091970068
S11315E03695279536952795ABE7B4E10E94FE1210
S11315F096958795BC0180E090E0E7D669837A836D
S11316008B839C8369817A818B819C81B2D670E0C3
S113161080E090E0DCD6A70196018DD7AAD670931E
S11316209900609398000F900F900F900F90DF91A6
S1131630CF91FF90EF90DF90CF900895CF92DF92FB
S1131640EF92FF92CF93DF9300D01F92CDB7DEB716
S11316506A017B0120919600309197003695279579
S113166036952795ABE7B4E1C9D796958795BC0124
S113167080E090E0AAD669837A838B839C83698116
S11316807A818B819C8175D670E080E090E09FD652
S1131690A701960150D76DD670939B0060939A0072
S11316A00F900F900F900F90DF91CF91FF90EF90DC
S11316B0DF90CF900895CF92DF92EF92FF92CF9375
S11316C0DF9300D01F92CDB7DEB76A017B01209172
S11316D09600309197003695279536952795ABE778
S11316E0B4E18CD796958795BC0180E090E06DD6E7
S11316F069837A838B839C8369817A818B819C81C2
S113170038D670E080E090E062D6A701960113D746
S113171030D670939D0060939C000F900F900F90B3
S11317200F90DF91CF91FF90EF90DF90CF900895CD
S1131730FC010396928381832FEF3FEF348323834D
S1131740968385839087878310820895FC01118690
S113175010860895CF93DF93FC01DB012181328150
S1131760E9018A819B8113969C938E9312978181C0
S1131770928115969C938E9314978A819B81EC0198
S11317807D836C83E9017B836A8372836183199609
S1131790FC93EE93189780818F5F8083DF91CF91C4
S11317A00895CF93DF93EB01488159814F3F2FEF89
S11317B0520731F4DC011796ED91FC9118970DC096
S11317C0FC01339603C00280F381E02DA281B38132
S11317D02D913C9142175307B0F7A281B381BB838B
S11317E0AA831596DC93CE931497FD83EC83D3835D
S11317F0C28399878887FC0120812F5F2083DF9132
S1131800CF910895FC01A281B381848195811596BD
S11318109C938E931497A481B581828193811396AE
S11318209C938E931297A085B18511968D919C916E
S11318301297E817F90731F48481958112969C93E5
S11318408E931197118610868C9181508C930895F4
S11318501092290189EF809328018BE08093210164
S1131860E3E7F0E0808182608083089531E1FC0148
S11318703083319722E220833197A3E3A083319709
S1131880608331977083319710823197108231973A
S113189060E860833197108231971082319710820B
S11318A0319762E06083319763E06083319764E04D
S11318B06083319765E06083319766E06083319798
S11318C067E06083319768E06083319769E0608303
S11318D0319760E1608331973083319732E130830F
S11318E0319733E13083319734E13083319735E1F7
S11318F03083319736E13083319737E13083319744
S113190038E13083319739E13083319730E23083E5
S1131910319731E2308331972083319723E220835A
S11319203197408331975083319726E22083319752
S113193027E22083319728E22083319729E220830C
S1131940319720E32083319721E3208389970895F9
S11319507FDFA091CB16B091CC16CD91CDBFDD9198
S1131960DEBFFF91EF91DF91CF91BF91AF919F9136
S11319708F917F916F915F914F913F912F911F9123
S11319800F91FF90EF90DF90CF90BF90AF909F901A
S11319908F907F906F905F904F903F902F901F900B
S11319A00F900CBE0F900BBE0F900FBE0F900895BA
S11319B081E008950F920FB6F8940F920BB60F9230
S11319C00CB60F921F9211242F923F924F925F9266
S11319D06F927F928F929F92AF92BF92CF92DF923B
S11319E0EF92FF920F931F932F933F934F935F9325
S11319F06F937F938F939F93AF93BF93CF93DF9313
S1131A00EF93FF93A091CB16B091CC160DB60D9227
S1131A100EB60D9284D3A091CB16B091CC16CD9175
S1131A20CDBFDD91DEBFFF91EF91DF91CF91BF91EB
S1131A30AF919F918F917F916F915F914F913F9162
S1131A402F911F910F91FF90EF90DF90CF90BF9057
S1131A50AF909F908F907F906F905F904F903F904A
S1131A602F901F900F900CBE0F900BBE0F900FBEC7
S1131A700F9008950F920FB6F8940F920BB60F9231
S1131A800CB60F921F9211242F923F924F925F92A5
S1131A906F927F928F929F92AF92BF92CF92DF927A
S1131AA0EF92FF920F931F932F933F934F935F9364
S1131AB06F937F938F939F93AF93BF93CF93DF9352
S1131AC0EF93FF93A091CB16B091CC160DB60D9267
S1131AD00EB60D92EFD123D3A091CB16B091CC16B4
S1131AE0CD91CDBFDD91DEBFFF91EF91DF91CF911D
S1131AF0BF91AF919F918F917F916F915F914F9122
S1131B003F912F911F910F91FF90EF90DF90CF9015
S1131B10BF90AF909F908F907F906F905F904F9009
S1131B203F902F901F900F900CBE0F900BBE0F9004
S1131B300FBE0F9008959EDF1895CF93DF93EC01AD
S1131B40B3D120910E0330910F03C9018C0F9D1F57
S1131B50883843E1940758F42817390758F4E90101
S1131B60C05FDC4F90930F0380930E0305C0C0E069
S1131B70D0E002C0C0E0D0E044D2CE01DF91CF91EA
S1131B80089508958091C2168230E0F313DFFACFEE
S1131B90EF92FF920F931F93CF93DF937C01EB019E
S1131BA081E290E0CADF8C01892BA1F0209719F41F
S1131BB0C701C3DF01C0CE01F801908F878B009766
S1131BC029F4C801DEDF00E010E004C0A70165EAE3
S1131BD070E04CD6C801DF91CF911F910F91FF9017
S1131BE0EF9008951F93CF93DF93EC01142F48E0F7
S1131BF050E0499642D618A2111110E01E8BCE0176
S1131C000296A4DDCE010C96A1DDD987C88781E0B8
S1131C1090E0811B91099D878C87DB8BCA8BDF91B8
S1131C20CF911F910895CF93C0E00FC08C2F90E007
S1131C309C01220F331F220F331F220F331F820FE9
S1131C40931F8E53994E74DDCF5FCC2379F389EBC8
S1131C5096E16EDD80EB96E16BDD83EA96E168DD6B
S1131C6089EB96E19093AF168093AE1680EB96E1E4
S1131C709093AD168093AC16CF910895CF93DF93D4
S1131C80EC01E091CB16F091CC1693838283809182
S1131C90A0169091A116C817D90760F46091CB16CD
S1131CA07091CC168091AC169091AD166E5F7F4FFB
S1131CB078DD16C06091CB167091CC168091AE166B
S1131CC09091AF166E5F7F4F6CDD80910B02909107
S1131CD00C02C817D90720F4D0930C02C0930B024E
S1131CE0DF91CF9108952F923F924F925F927F920E
S1131CF08F929F92AF92BF92CF92DF92EF92FF9218
S1131D000F931F93CF93DF9300D01F92CDB7DEB70D
S1131D109A8389834B015C834B831901702EB6012E
S1131D202501CA0135DF5C01009709F46CC0FC0190
S1131D30C788D08C8B819C810197C80ED91E0B81DA
S1131D401C819201472DB401C5014CDFA1016981B9
S1131D507A81C6018BDDF50191838083E114F1045E
S1131D6019F0F701B182A0820FB6F8940F92809116
S1131D70A2168F5F8093A2168091CB169091CC16F9
S1131D80892B51F4B092CC16A092CB168091A21656
S1131D90813089F448DF0FC080919D1681110BC0FA
S1131DA0E091CB16F091CC168689781620F0B0928B
S1131DB0CC16A092CB16F501868990919F169817A0
S1131DC010F480939F16909198169F5F90939816A5
S1131DD090919E16981710F480939E1690E0B5018A
S1131DE06E5F7F4F9C01220F331F220F331F220F80
S1131DF0331F820F931F8E53994EACDC0F900FBE8E
S1131E00F1E0F98302C08FEF8983E981E13061F465
S1131E1080919D16882341F0E091CB16F091CC1669
S1131E208689871508F4C6DD89810F900F900F907D
S1131E300F90DF91CF911F910F91FF90EF90DF9062
S1131E40CF90BF90AF909F908F907F905F904F9076
S1131E503F902F900895AF92BF92CF92DF92EF926E
S1131E60FF920F93A12CB12CC12CD12CE12CF12C7D
S1131E7000E020E030E045E550E06DE672E082EC01
S1131E809DE031DF813041F4F89480939D161092E7
S1131E90A1161092A0165CDD0F91FF90EF90DF90D9
S1131EA0CF90BF90AF90089580919C168F5F8093E0
S1131EB09C1608950F931F93CF93DF9380919C16E4
S1131EC0811195C08091A0169091A11601969093CE
S1131ED0A1168093A0168091A0169091A116892B2B
S1131EE099F58091AE169091AF162091AC16309171
S1131EF0AD163093AF162093AE169093AD16809323
S1131F00AC16809199168F5F80939916E091AE1666
S1131F10F091AF168081811107C08FEF9FEF9093EE
S1131F200C0280930B0210C0E091AE16F091AF1634
S1131F300580F681E02D0680F781E02D8281938172
S1131F4090930C0280930B022091A0163091A1165D
S1131F5080910B0290910C022817390708F44CC0A9
S1131F60E091AE16F091AF168081811107C08FEF1A
S1131F709FEF90930C0280930B023EC0E091AE164B
S1131F80F091AF160580F681E02DC681D7818A8154
S1131F909B812091A0163091A1162817390728F4A7
S1131FA090930C0280930B0227C08E010E5F1F4F8B
S1131FB0C80128DC8C899D89892B19F0CE010C96E7
S1131FC021DC8E8990919E16981710F480939E16AA
S1131FD090E09C01220F331F220F331F220F331F67
S1131FE0820F931FB8018E53994EB4DBB9CF809101
S1131FF09B168F5F80939B16DF91CF911F910F915A
S11320000895FF920F931F93CF93DF930FB6F89425
S11320100F9280919C16815080939C1680919C16FF
S1132020811155C08091A21681112FC053C0E09137
S1132030A816F091A916C681D781CE010C96E2DBD1
S11320408E010E5F1F4FC801DDDB8E8990919E16B5
S1132050981710F480939E1690E09C01220F331F72
S1132060220F331F220F331F820F931FB8018E5389
S1132070994E70DB9E89E091CB16F091CC1686893F
S1132080981720F0FF24F39401C0F12C8091A3163B
S11320908111CDCF80919B16811107C00CC00ADF3E
S11320A080919B16815080939B1680919B16811181
S11320B0F6CFFF24F39481E0F81621F080919A166C
S11320C0813039F410929A1675DC81E003C080E007
S11320D001C080E00F900FBEDF91CF911F910F914F
S11320E0FF900895CF93DF93EC01892B89F0DCDE18
S11320F08091A0169091A116C80FD91F8091CB167C
S11321009091CC1602967EDBCE01B8DD7ADF01C059
S113211080E0811101C04EDCDF91CF910895809160
S11321209C16882349F081E080939A160895809143
S11321309E16815080939E1680919E1690E0FC011D
S1132140EE0FFF1FEE0FFF1FEE0FFF1F8E0F9F1FDF
S1132150FC01EE53F94E8081882349F380919E1649
S113216090E09C01220F331F220F331F220F331FD5
S1132170280F391FD901AE53B94E1196ED91FC9138
S113218012970280F381E02D1296FC93EE9311973F
S11321902B53394EE217F30729F422813381FD01D1
S11321A032832183FC01EE0FFF1FEE0FFF1FEE0FA2
S11321B0FF1F8E0F9F1FFC01EE53F94E0180F28129
S11321C0E02D868197819093CC168093CB16089549
S11321D05058BB27AA270ED070C161D130F066D108
S11321E020F031F49F3F11F41EF456C10EF4E09533
S11321F0E7FB4CC1E92F72D180F3BA17620773076A
S11322008407950718F071F49EF58AC10EF4E095E1
S11322100B2EBA2FA02D0B01B90190010C01CA019C
S1132220A0011124FF27591B99F0593F50F4503E47
S113223068F11A16F040A22F232F342F4427585F39
S1132240F3CF469537952795A795F0405395C9F751
S11322507EF41F16BA0B620B730B840BBAF0915009
S1132260A1F0FF0FBB1F661F771F881FC2F70EC0A8
S1132270BA0F621F731F841F48F48795779567957B
S1132280B795F7959E3F08F0B3CF9395880F08F064
S11322909927EE0F979587950895D4D008F481E097
S11322A008950CD00AC102D140F0F9D030F021F4E5
S11322B05F3F19F0EBC0511134C1EEC00FD198F358
S11322C09923C9F35523B1F3951B550BBB27AA27B3
S11322D062177307840738F09F5F5F4F220F331F25
S11322E0441FAA1FA9F333D00E2E3AF0E0E830D0F1
S11322F091505040E695001CCAF729D0FE2F27D0F4
S1132300660F771F881FBB1F261737074807AB07C1
S1132310B0E809F0BB0B802DBF01FF2793585F4F36
S11323202AF09E3F510568F0B1C0FBC05F3FECF35B
S1132330983EDCF3869577956795B795F7959F5FFB
S1132340C9F7880F911D9695879597F90895E1E04F
S1132350660F771F881FBB1F621773078407BA07AE
S113236020F0621B730B840BBA0BEE1F88F7E09509
S11323700895BCD088F09F5790F0B92F9927B75192
S1132380A0F0D1F0660F771F881F991F1AF0BA9535
S1132390C9F712C0B13081F0C3D0B1E00895C0C014
S11323A0672F782F8827B85F39F0B93FCCF386952B
S11323B077956795B395D9F73EF490958095709588
S11323C061957F4F8F4F9F4F0895E89409C097FB05
S11323D03EF490958095709561957F4F8F4F9F4FF8
S11323E09923A9F0F92F96E9BB279395F69587953C
S11323F077956795B795F111F8CFFAF4BB0F11F4FF
S113240060FF1BC06F5F7F4F8F4F9F4F16C08823A5
S113241011F096E911C0772321F09EE8872F762FDB
S113242005C0662371F096E8862F70E060E02AF01C
S11324309A95660F771F881FDAF7880F9695879508
S113244097F90895990F0008550FAA0BE0E8FEEFDD
S113245016161706E807F907C0F012161306E40764
S1132460F50798F0621B730B840B950B39F40A265D
S113247061F0232B242B252B21F408950A2609F43B
S1132480A140A6958FEF811D811D089597F99F673F
S113249080E870E060E008959FEF80EC08950024E8
S11324A00A941616170618060906089500240A94B5
S11324B012161306140605060895092E0394000C3B
S11324C011F4882352F0BB0F40F4BF2B11F460FFCA
S11324D004C06F5F7F4F8F4F9F4F089557FD9058F3
S11324E0440F551F59F05F3F71F04795880F97FBD4
S11324F0991F61F09F3F79F087950895121613068E
S11325001406551FF2CF4695F1DF08C016161706BC
S11325101806991FF1CF86957105610508940895F1
S1132520E894BB2766277727CB0197F908958ADFBC
S113253008F48FEF08950BD0C0CFB1DF28F0B6DFD9
S113254018F0952309F0A2CFA7CF1124EACFC6DF54
S1132550A0F3959FD1F3950F50E0551F629FF001B2
S1132560729FBB27F00DB11D639FAA27F00DB11D0B
S1132570AA1F649F6627B00DA11D661F829F222794
S1132580B00DA11D621F739FB00DA11D621F839F1B
S1132590A00D611D221F749F3327A00D611D231FF1
S11325A0849F600D211D822F762F6A2F11249F573F
S11325B050408AF0E1F088234AF0EE0FFF1FBB1F62
S11325C0661F771F881F91505040A9F79E3F510501
S11325D070F05CCFA6CF5F3FECF3983EDCF38695BA
S11325E077956795B795F795E7959F5FC1F7FE2BAC
S11325F0880F911D9695879597F90895A29FB0012C
S1132600B39FC001A39F700D811D1124911DB29F22
S1132610700D811D1124911D0895EE0FFF1F881F59
S11326208BBF0790F691E02D19940F931F93CF93CE
S1132630DF938230910510F482E090E0E091CF16B0
S1132640F091D01620E030E0A0E0B0E0309719F12E
S1132650408151810281138148175907C8F08417BA
S1132660950769F4109731F012960C93129713960C
S11326701C9327C00093CF161093D01622C02115A7
S1132680310519F04217530718F49A01BD01EF01FF
S1132690DF01F801DBCF21153105F9F0281B390BD7
S11326A02430310580F48A819B816115710521F004
S11326B0FB019383828304C09093D0168093CF163A
S11326C0FE01329644C0FE01E20FF31F8193919301
S11326D022503109398328833AC02091CD16309194
S11326E0CE16232B41F42091020230910302309341
S11326F0CE162093CD1620910002309101022115AF
S1132700310541F42DB73EB74091040250910502C2
S1132710241B350BE091CD16F091CE16E217F3078A
S1132720A0F42E1B3F0B2817390778F0AC014E5F3D
S11327305F4F2417350748F04E0F5F1F5093CE1696
S11327404093CD168193919302C0E0E0F0E0CF0175
S1132750DF91CF911F910F910895CF93DF9300974D
S113276009F481C0FC01329713821282A091CF1622
S1132770B091D016109781F420813181820F931F7C
S11327802091CD163091CE162817390751F5F093C4
S1132790CE16E093CD1667C0ED0120E030E0CE17F1
S11327A0DF0740F44A815B819E0141155105F1F038
S11327B0EA01F5CFD383C28340815181840F951FF1
S11327C0C817D90759F488819981840F951F0296F7
S11327D0918380838A819B81938382832115310530
S11327E029F4F093D016E093CF163DC0E901FB83A2
S11327F0EA8349915991C40FD51FEC17FD0761F481
S113280080819181840F951F0296E90199838883C1
S1132810828193819B838A83E0E0F0E012968D911C
S11328209C911397009719F0FD01DC01F7CF8D916E
S11328309C9111979D012E5F3F4F820F931F209112
S1132840CD163091CE162817390769F4309729F43C
S11328501092D0161092CF1602C013821282B09337
S1132860CE16A093CD16DF91CF910895DC0101C05F
S11328706D9341505040E0F70895FB01DC01415055
S1132880504048F001900D920020C9F701C01D92FC
S113289041505040E0F7089510E0C3E7D0E000E075
S11328A005C0802FFE01B9DE2196011DC437D10772
S10D28B080E00807B1F7F894FFCFA9
S11328BA0000D1162000BD37863301FFFF5461732F
S11328CA6B0000000000000000009003C003000039
S11328DA0000E503EB03F503C003000000008A04CB
S11328EA90049A04C003000000002F0535053F0533
S11328FAC00300000000D405DA05E405C0030000A3
S113290A000079067F068906C003000000001A0742
S113291A20072A07C0034D6F746F72730049444C31
S105292A450062
S9030000FC
