S0130000526F626F74536F727465722E737265638C
S1130000EAC0000018C1000016C1000014C10000BD
S113001012C100000C9433140EC100000CC1000086
S11300200AC1000008C1000006C1000004C10000AC
S113003002C1000000C10000FEC00000FCC00000BE
S1130040FAC00000F8C00000F6C00000F4C00000D0
S1130050F2C000000C94940EEEC00000ECC000004E
S1130060EAC00000E8C00000E6C00000E4C00000F0
S1130070E2C00000E0C00000DEC00000DCC0000000
S1130080DAC00000D8C00000D6C00000D4C0000010
S1130090D2C00000D0C00000CEC00000CCC0000020
S11300A0CAC00000C0C20000C6C00000C4C0000036
S11300B0C2C0000093C20000BEC00000BCC000006B
S11300C0BAC00000B8C00000B6C00000B4C0000050
S11300D0B2C00000B0C00000AEC00000ACC0000060
S11300E0AAC0000005040104090407040904090462
S11300F0090403040904090409040904090409049A
S113010009040904FD03F9030904FF0309040904AC
S11301100904FB0309040904090409040904090482
S11301200904090409040904090409040904090463
S11301300904090409040904090409040904090453
S113014009040904ED03EB030904EF03090409049A
S113015009040B0409040904090409040904090431
S11301600904090409040904090409040904090423
S11301700904090409040904090409040904090413
S11301800904090409040904090409040904090403
S113019009040904090409040904090409040904F3
S11301A009040904090409040904090409040904E3
S11301B009040904090409040904090409040904D3
S11301C009040904F503F1030904F7030904090404
S11301D00904F3034D0511241FBECFEFD1E2DEBFA6
S11301E0CDBF00E00CBF12E0A0E0B2E0ECE4F2E32B
S11301F000E00BBF02C007900D92A03DB107D9F7F4
S113020022E1A0EDB2E001C01D92AA3BB207E1F7E2
S113021010E0CBEED0E000E006C021970109802F6A
S1130220FE010E94A317CA3ED10780E00807A9F780
S113023000D40C942419E4CE0895FC0180819181AA
S11302400895FC01828193810895FC018481958144
S11302500895FC01868197810895FC017183608370
S11302600895FC01738362830895FC01758364839C
S11302700895FC01778366830895FC0160870895DF
S1130280613031F0E8F0623099F0633049F008955C
S1130290E2E0F1E080818E7F808380818083089515
S11302A0E2E0F1E080818E7F808380818083089505
S11302B0E2E0F1E080818160808380818083089521
S11302C0E2E0F1E080818160808380818083089511
S11302D06F927F928F929F92AF92BF92CF92DF9252
S11302E0EF92FF920F931F93CF93DF938C0161E002
S11302F0C7DFC80141D17C0163E0C801C1DFC80187
S11303003BD16C0162E0C801BBDFC80135D15C019F
S113031060E0C801B5DFC8012FD14C01712C89E020
S1130320871508F45AC0C72DD0E0CE01880F991F55
S1130330880F991F880F991FC80FD91F2196C00FC6
S1130340D11FCE017ADF0596E816F90648F4CE01EE
S113035074DF05978E159F0528F46624639403C003
S1130360612C01C0612C6620B1F1CE016ADF0596D3
S1130370C816D90638F4CE0164DF05978C159D059F
S113038018F403C0612C01C0612C662021F1CE0158
S11303905CDF0596A816B90638F4CE0156DF05973A
S11303A08A159B0518F403C0612C01C0612C6620DA
S11303B091F0CE014EDF02968816990638F4CE01EC
S11303C048DF02978815990518F403C0612C01C011
S11303D0612C611004C07394A2CF77247A94872D82
S11303E0DF91CF911F910F91FF90EF90DF90CF900D
S11303F0BF90AF909F908F907F906F900895FF92E1
S11304000F931F93CF93DF936A3008F033C0F62E17
S1130410EC0161E035DFCE01AFD02F2D30E0890152
S1130420000F111F000F111F000F111F020F131FC8
S11304300F5F1F4F0C0F1D1FBC01C8010EDF63E0CF
S1130440CE011EDFCE0198D0BC01C8010ADF62E0F4
S1130450CE0116DFCE0190D0BC01C80106DF60E0FA
S1130460CE010EDFCE0188D0BC01C80102DF6F2DA2
S1130470C80103DFDF91CF911F910F91FF90089581
S1130480613071F028F0623099F06330C9F008955A
S1130490E5E0F1E080818E7F808380818083089510
S11304A0E5E0F1E080818E7F808380818083089500
S11304B0E5E0F1E08081816080838081808308951C
S11304C0E5E0F1E08081816080838081808308950C
S11304D0BF92CF92DF92EF92FF920F931F93CF932D
S11304E0DF931F92CDB7DEB76C01B62E26D076010E
S11304F08FEFE81AF80A09E010E00F3F8FEF1807B2
S113050041F0C70199DE89E0E80EF11C01501109A0
S1130510F4CFCE01019611D060E0C601B1DE6B2D9F
S1130520C601AEDF0F90DF91CF911F910F91FF9025
S1130530EF90DF90CF90BF900895E5E0F1E08081E7
S113054082608083808181608083E2E0F1E0808149
S1130550826080838081816080831092A00083EC1C
S11305608093A1001092A20081E289BB1092A500A1
S11305701092A4007894089581E080930A02109266
S1130580D7021092D6021092D1021092D002109289
S1130590D2021092D3021092D4021092D50281E2B8
S11305A089BB809372008091D0029091D102892BF3
S11305B081F48091D2029091D302A091D402B0919F
S11305C0D5020B97A105B10570F31092720081E278
S11305D089BB8091D0029091D10208951F920F920D
S11305E00FB60F9211248F939F93AF93BF93809173
S11305F0D2029091D302A091D402B091D502019677
S1130600A11DB11D8093D2029093D302A093D40272
S1130610B093D502BF91AF919F918F910F900FBE70
S11306200F901F9018951F920F920FB60F921124DE
S11306300BB60F92CF92DF92EF92FF920F931F931C
S11306402F933F934F935F936F937F938F939F93D6
S1130650AF93BF93EF93FF936091A6007091A700AF
S113066080910A02882379F01092D2021092D30268
S11306701092D4021092D5027093D7026093D602DE
S113068010920A0281C0C89B13C08091D20290913B
S1130690D302A091D402B091D5020196A11DB11D3F
S11306A08093D2029093D302A093D402B093D50244
S11306B01092720081E289BB8091D6029091D70298
S11306C06817790758F58091D2029091D302A091CE
S11306D0D402B091D502892B8A2B8B2B99F080916F
S11306E0D2029091D302A091D402B091D502019785
S11306F0A109B1098093D2029093D302A093D402AA
S1130700B093D5028091D6029091D702681B790BE1
S113071061507109CB01A0E0B0E009C08091D6021C
S11307209091D702681B790BCB01A0E0B0E0409117
S1130730D2025091D3026091D4027091D502BA01D1
S1130740552744278A019B01080F191F2A1F3B1FA5
S1130750C901B801C0900602D0900702E0900802D7
S1130760F09009020E946816A70196010E941E17C4
S113077020E034E244E759E40E941E170E943C162C
S11307807093D1026093D002FF91EF91BF91AF912A
S11307909F918F917F916F915F914F913F912F9195
S11307A01F910F91FF90EF90DF90CF900F900BBEB1
S11307B00F900FBE0F901F9018950895862F90E00C
S11307C0FC017197E837F10520F58827EE58FF4FB3
S11307D08F4F0C94A31781E3089583E3089581E474
S11307E0089584E3089585E3089586E3089582E4F3
S11307F0089587E3089588E3089589E3089583E4D9
S113080008958AE2089580E3089583E2089584E4D4
S1130810089585E4089582E30895EF92FF920F937B
S11308201F93CF938C0180EF80930701809308017D
S113083088E090E00E946D11809106018F70E1F3D1
S11308400F2EF6E0EF2EFF24F394F02DF701C08174
S1130850CF708FE0809307018093080188E090E0D7
S11308600E946D11F7016081607F6C2BC801A6DFC7
S1130870C82F80910601807FE1F78EE092E00E940C
S113088044158C2F90E00E9450158AE192E00E945A
S113089044158C2FCF911F910F91FF90EF900895E5
S11308A00F931F93CF93DF931F92CDB7DEB78C01C5
S11308B084DFCE01019681DF81E3F801818384E343
S11308C0828387E3838382E384838CE485830F902C
S11308D0DF91CF911F910F910895FC0185810895B7
S11308E0FC0165830895EF92FF921F93CF93DF93EA
S11308F000D01F92CDB7DEB77C0110E001C010E03C
S1130900143068F4C70189DF8A32C9F3E1E0F0E00A
S1130910EC0FFD1FE10FF11D80831F5FF1CF10E08D
S11309201430A0F4812F90E0E1E0F0E0EC0FFD1F23
S1130930E80FF91F2081F701E80FF91F81812817BB
S113094019F06CE4C701CCDF1F5FEACFC701C5DF34
S11309508C3421F465E5C701C3DF03C06CE4C7012F
S1130960BFDF0F900F900F900F90DF91CF911F91E9
S1130970FF90EF90089589ED92E0B5DFFCCFCF931F
S1130980DF93CDB7DEB7C157D1090FB6F894DEBFF8
S11309900FBECDBF8C0162E0CE01019699DDCE0180
S11309A0845A9F4F0E94DE12CE01845A9F4F0E94A8
S11309B0E01389ED92E091DF8535B1F7CE01845AD9
S11309C09F4F0E94F513CE01845A9F4F0E944613F5
S11309D0813019F0823081F0ECCF8DE192E00E94F9
S11309E044156091D802CE01019609DD8091D802A8
S11309F08F5F8093D802DDCF8CE292E00E94441591
S1130A00CE01019665DC682FC801E9D1D2CF0197E8
S1130A1031F46F3F7F4F19F489ED92E041CF08958F
S1130A20FFCF0C94BA170895009711F00C94521844
S1130A300895CF93DF93CDB7DEB72E970FB6F89412
S1130A40DEBF0FBECDBFCE01019643D02EE448E0F9
S1130A5060E875E280E090E00E94F014A12CB12CD3
S1130A60C12CD12CE12CF12C00E020E030E048E551
S1130A7052E06CE372E08BEB94E00E946E0F9E01F7
S1130A802F5F3F4F48E552E068E472E08FEB94E05B
S1130A900E946E0F0E942610FFCF6FEF7FEF81E060
S1130AA090E0B5CF08958C01C0E0C630E8F7EC2F94
S1130AB0F0E03196EE0FFF1FE00FF11F808191816E
S1130AC0DC01ED91FC910480F581E02D1995CF5F57
S1130AD0ECCFAF92BF92CF92DF92EF92FF920F933F
S1130AE01F93CF93DF93EC01D5D58E010F5F1F4F7A
S1130AF0C80175D689E190E094DF7C01BE0166D21D
S1130B00FB82EA8289E190E08CDF7C01BE0104D3A0
S1130B10FD82EC8289E190E084DF7C01BE01A2D3F6
S1130B20FF82EE8289E190E07CDF7C01B8013ED453
S1130B30F986E88689E190E074DF7C01B801DAD4B3
S1130B40FB86EA8689E190E06CDF7C01B80172D50E
S1130B50FD86EC86A12CB12CC12CD12CE12CF12CDE
S1130B6000E09E0148E552E06BE572E083E595E024
S1130B700E946E0FDF91CF911F910F91FF90EF9024
S1130B80DF90CF90BF90AF900895CF93DF93EC01A7
S1130B9088859985DC01ED91FC910680F781E02D33
S1130BA068E219958A859B85DC01ED91FC910680AC
S1130BB0F781E02D6AE519958A819B81DC01ED912D
S1130BC0FC910680F781E02D60E019958CED95E0AD
S1130BD00E946D118C819D81DC01ED91FC91068058
S1130BE0F781E02D63E219958E819F81DC01ED91FF
S1130BF0FC910680F781E02D6FE319958CED95E06B
S1130C000E946D118C859D85DC01ED91FC9106801F
S1130C10F781E02D6FE319958AEF90E00E946D1142
S1130C208C819D81DC01ED91FC910680F781E02DA2
S1130C3066E419958E819F81DC01ED91FC9106801B
S1130C40F781E02D66E4199588859985DC01ED919D
S1130C50FC910680F781E02D66E41995DF91CF9130
S1130C600895CF93DF93EC018CED95E00E946D1114
S1130C708C819D81DC01ED91FC910680F781E02D52
S1130C8063E219958E819F81DC01ED91FC910680D0
S1130C90F781E02D68E219958CED95E00E946D11C5
S1130CA08C859D85DC01ED91FC910680F781E02D1A
S1130CB060E019958AEF90E00E946D118C819D810E
S1130CC0DC01ED91FC910680F781E02D6AE5199530
S1130CD08E819F81DC01ED91FC910680F781E02DEE
S1130CE06AE5199588859985DC01ED91FC9106806A
S1130CF0F781E02D6AE519958AEF90E00E946D1165
S1130D00DF91CF910895CF93DF93EC018A819B818A
S1130D10DC01ED91FC910680F781E02D68E21995E4
S1130D20CE019FDFDF91CF910895CF93DF93EC0144
S1130D308A819B81DC01ED91FC910680F781E02D95
S1130D4064E41995CE018DDFDF91CF910895CF939F
S1130D50DF93EC018A819B81DC01ED91FC9106809B
S1130D60F781E02D60E61995CE017BDFDF91CF910D
S1130D700895CF93DF93EC018A819B81DC01ED918F
S1130D80FC910680F781E02D6CE71995CE0169DFAF
S1130D90DF91CF910895CF93DF93EC018A819B81FA
S1130DA0DC01ED91FC910680F781E02D68E919954D
S1130DB0CE0157DFDF91CF910895CF93DF93EC01FC
S1130DC08A819B81DC01ED91FC910680F781E02D05
S1130DD064EB1995CE0145DFDF91CF910895CF9350
S1130DE0DF93EC01623029F128F4662351F061307D
S1130DF0A1F04EC06430A9F140F1653009F43DC062
S1130E0047C0C3DE84EF91E00E946D11CE017BDF09
S1130E1084EF91E00E946D113BC0B7DE84EF91E056
S1130E200E946D11CE0181DF84EF91E00E946D116B
S1130E302FC0ABDE84EF91E00E946D11CE0187DFFD
S1130E4084EF91E00E946D1123C09FDE84EF91E056
S1130E500E946D11CE018DDF84EF91E00E946D112F
S1130E6017C093DE84EF91E00E946D11CE0193DFF1
S1130E7084EF91E00E946D110BC087DE84EF91E056
S1130E800E946D11CE0199DF84EF91E00E946D11F3
S1130E90DF91CF910895CF92DF92EF92FF92CF939B
S1130EA0DF93FC0126892617C0F0EC01C680D780A9
S1130EB0E084F18470E080E090E00E946A16A7016B
S1130EC096010E941E172A893B894C895D890E94DC
S1130ED06C156A877B878C879D87DF91CF91FF9004
S1130EE0EF90DF90CF90089526E632E0FC01318345
S1130EF020830895CF93DF93EC01F6DFCE0194DDD8
S1130F00DF91CF9108954F925F926F927F928F926B
S1130F109F92AF92BF92CF92DF92EF92FF92CF93C4
S1130F20DF93EC018A849B84AC84BD84CE84DF840B
S1130F30E888F98820E030E040E85DE3C701B601C5
S1130F400E946C152B013C019B01AC01C501B4014D
S1130F500E941A17181674F44E865F86688A798A76
S1130F60B301A2018A819B81B9D38F89988D0E9494
S1130F706D111DC0A7019601C501B4010E94D015D1
S1130F808823ACF420E030E040E85DE3C701B6011B
S1130F900E946B15AB01BC014E875F87688B798B10
S1130FA08A819B819BD38F89988D0E946D11DF91DB
S1130FB0CF91FF90EF90DF90CF90BF90AF909F9034
S1130FC08F907F906F905F904F900895CF93DF93B1
S1130FD0EC01CB0122E732E0398328837B836A83E7
S1130FE049E35EE863E67DE34E835F836887798740
S1130FF040E050E060E270E44A8B5B8B6C8B7D8B4D
S11310002AE030E0388F2F8B24EB2E8B40E050E029
S113101060EF70E44A875B876C877D875FD38A853E
S11310209B85AC85BD858E879F87A88BB98BDF9107
S1131030CF91089526E632E0FC01318320830895A0
S1131040CF93DF93EC01F6DFCE01EEDCDF91CF919D
S113105008954F925F926F927F928F929F92AF9278
S1131060BF92CF92DF92EF92FF92CF93DF93EC0186
S11310708A849B84AC84BD84CE84DF84E888F98828
S113108020E030E040E85DE3C701B6010E946C1542
S11310902B013C019B01AC01C501B4010E941A174C
S11310A0181674F44E865F86688A798AB301A201A1
S11310B08A819B813ED38F89988D0E946D111DC0BA
S11310C0A7019601C501B4010E94D0158823ACF490
S11310D020E030E040E85DE3C701B6010E946B15F3
S11310E0AB01BC014E875F87688B798B8A819B81BA
S11310F020D38F89988D0E946D11DF91CF91FF903D
S1131100EF90DF90CF90BF90AF909F908F907F90A3
S11311106F905F904F900895CF93DF93EC01CB01D4
S11311202EE732E0398328837B836A834FE852ECCD
S113113065E77DE34E835F836887798740E050E00D
S113114060E470E44A8B5B8B6C8B7D8B2AE030E02F
S1131150388F2F8B26E92E8B46E656E666E071E43F
S11311604A875B876C877D87E4D28A859B85AC85BB
S1131170BD858E879F87A88BB98BDF91CF9108950A
S113118026E632E0FC01318320830895CF93DF9378
S1131190EC01F6DFCE0148DCDF91CF9108954F9248
S11311A05F926F927F928F929F92AF92BF92CF92F3
S11311B0DF92EF92FF92CF93DF93EC018A849B84BA
S11311C0AC84BD84CE84DF84E888F98820E030E0F4
S11311D040E85DE3C701B6010E946C152B013C0198
S11311E09B01AC01C501B4010E941A17181674F4CE
S11311F04E865F86688A798AB301A2018A819B81BF
S1131200C3D28F89988D0E946D111DC0A7019601CC
S1131210C501B4010E94D0158823ACF420E030E06D
S113122040E85DE3C701B6010E946B15AB01BC0148
S11312304E875F87688B798B8A819B81A5D28F8942
S1131240988D0E946D11DF91CF91FF90EF90DF9008
S1131250CF90BF90AF909F908F907F906F905F9052
S11312604F900895CF93DF93EC01CB012AE832E04D
S1131270398328837B836A8349E35EE863E67DE3FD
S11312804E835F836887798740E050E060E270E4D2
S11312904A8B5B8B6C8B7D8B2AE030E0388F2F8BF5
S11312A024EB2E8B40E050E060EF70E44A875B87CC
S11312B06C877D8769D28A859B85AC85BD858E8741
S11312C09F87A88BB98BDF91CF91089526E632E0F2
S11312D0FC01318320830895CF93DF93EC01F6DF83
S11312E0CE01A2DBDF91CF9108954F925F926F926E
S11312F07F928F929F92AF92BF92CF92DF92EF92A2
S1131300FF92CF93DF93EC018A849B84AC84BD84E9
S1131310CE84DF84E888F98820E030E040E85DE3AB
S1131320C701B6010E946C152B013C019B01AC0165
S1131330C501B4010E941A1718166CF44E865F8614
S1131340688A798AB301A2018C819D816ED28AE078
S113135090E0C3D71CC0A7019601C501B4010E9447
S1131360D0158823A4F420E030E040E85DE3C70111
S1131370B6010E946B15AB01BC014E875F87688B79
S1131380798B8C819D8151D28AE090E0A6D7DF9140
S1131390CF91FF90EF90DF90CF90BF90AF909F9050
S11313A08F907F906F905F904F900895CF93DF93CD
S11313B0EC01CB0126E932E0398328837D836C83F9
S11313C049E35EE863E67DE34E835F83688779875C
S11313D040E050E060E270E44A8B5B8B6C8B7D8B69
S11313E025E030E0388F2F8B24EB2E8B40E050E04B
S11313F060EF70E44A875B876C877D8716D28A85A5
S11314009B85AC85BD858E879F87A88BB98BDF9123
S1131410CF91089526E632E0FC01318320830895BC
S1131420CF93DF93EC01F6DFCE01FEDADF91CF91AB
S113143008954F925F926F927F928F929F92AF9294
S1131440BF92CF92DF92EF92FF92CF93DF93EC01A2
S11314508A849B84AC84BD84CE84DF84E888F98844
S113146020E030E040E85DE3C701B6010E946C155E
S11314702B013C019B01AC01C501B4010E941A1768
S113148018166CF44E865F86688A798AB301A201C5
S11314908C819D81F5D18F89988D1FD71CC0A701A0
S11314A09601C501B4010E94D0158823A4F420E05C
S11314B030E040E85DE3C701B6010E946B15AB0163
S11314C0BC014E875F87688B798B8C819D81D8D1D5
S11314D08F89988D02D7DF91CF91FF90EF90DF90A5
S11314E0CF90BF90AF909F908F907F906F905F90C0
S11314F04F900895CF93DF93EC01CB0122EA32E0C1
S1131500398328837D836C8349E35EE863E67DE366
S11315104E835F836887798740E050E060E270E43F
S11315204A8B5B8B6C8B7D8B21E030E0388F2F8B6B
S113153024EB2E8B4A875B876C877D87A1D18A85B4
S11315409B85AC85BD858E879F87A88BB98BDF91E2
S1131550CF91089526E632E0FC013183208308957B
S1131560CF93DF93EC01F6DFCE015EDADF91CF910A
S113157008954F925F926F927F928F929F92AF9253
S1131580BF92CF92DF92EF92FF92CF93DF93EC0161
S11315908A849B84AC84BD84CE84DF84E888F98803
S11315A020E030E040E85DE3C701B6010E946C151D
S11315B02B013C019B01AC01C501B4010E941A1727
S11315C018166CF44E865F86688A798AB301A20184
S11315D08C819D8180D18F89988D7FD61CC0A70175
S11315E09601C501B4010E94D0158823A4F420E01B
S11315F030E040E85DE3C701B6010E946B15AB0122
S1131600BC014E875F87688B798B8C819D8163D108
S11316108F89988D62D6DF91CF91FF90EF90DF9004
S1131620CF90BF90AF909F908F907F906F905F907E
S11316304F900895CF93DF93EC01CB012EEA32E073
S1131640398328837D836C8349E25AE862EA7DE327
S11316504E835F836887798740E050E060E270E4FE
S11316604A8B5B8B6C8B7D8B21E030E0388F2F8B2A
S11316702FE32E8B4A875B876C877D872CD18A85E5
S11316809B85AC85BD858E879F87A88BB98BDF91A1
S1131690CF91089584B1806284B984B1806484B99F
S11316A084B1806884B988EA8093800084E180935F
S11316B08100109282008EE692E0909387008093DE
S11316C08600109289001092880010928B0010926C
S11316D08A0010928D0010928C000895CF92DF92B0
S11316E0EF92FF926A017B0120918600309187007E
S11316F03695279536952795ABE7B4E10E94AB174D
S113170096958795BC017727072E000C880B990BBB
S11317100E946A16A70196010E941E170E943C1699
S11317207093890060938800FF90EF90DF90CF90D2
S11317300895CF92DF92EF92FF926A017B0120918C
S11317408600309187003695279536952795ABE727
S1131750B4E10E94AB1796958795BC017727072EB5
S1131760000C880B990B0E946A16A70196010E942F
S11317701E170E943C1670938B0060938A00FF90A2
S1131780EF90DF90CF900895CF92DF92EF92FF9287
S11317906A017B0120918600309187003695279558
S11317A036952795ABE7B4E10E94AB1796958795DC
S11317B0BC017727072E000C880B990B0E946A1630
S11317C0A70196010E941E170E943C1670938D007B
S11317D060938C00FF90EF90DF90CF900895EAE043
S11317E0F1E0808188608083808180618083808152
S11317F08062808388EA8093200184E180932101C0
S1131800109222018EE692E09093270180932601A4
S1131810109229011092280110922B0110922A0192
S113182010922D0110922C010895CF92DF92EF9225
S1131830FF926A017B0120912601309127013695A0
S1131840279536952795ABE7B4E10E94AB1796959B
S11318508795BC017727072E000C880B990B0E94F3
S11318606A16A70196010E941E170E943C167093E7
S1131870290160932801FF90EF90DF90CF900895A5
S1131880CF92DF92EF92FF926A017B0120912601B1
S1131890309127013695279536952795ABE7B4E126
S11318A00E94AB1796958795BC017727072E000CED
S11318B0880B990B0E946A16A70196010E941E17B5
S11318C00E943C1670932B0160932A01FF90EF90C5
S11318D0DF90CF900895CF92DF92EF92FF926A014A
S11318E07B01209126013091270136952795369565
S11318F02795ABE7B4E10E94AB1796958795BC0199
S11319007727072E000C880B990B0E946A16A701F3
S113191096010E941E170E943C1670932D0160933D
S11319202C01FF90EF90DF90CF900895FC01039677
S1131930928381832FEF3FEF3483238396838583C0
S11319409087878310820895FC011186108608957C
S1131950CF93DF93FC01DB0121813281E9018A818C
S11319609B8113969C938E931297818192811596F5
S11319709C938E9314978A819B81EC017D836C8365
S1131980E9017B836A83728361831996FC93EE93E6
S1131990189780818F5F8083DF91CF910895CF93D3
S11319A0DF93EB01488159814F3F2FEF520731F408
S11319B0DC011796ED91FC9118970DC0FC0133964C
S11319C003C00280F381E02DA281B3812D913C916B
S11319D042175307B0F7A281B381BB83AA8315963C
S11319E0DC93CE931497FD83EC83D383C2839987CE
S11319F08887FC0120812F5F2083DF91CF91089598
S1131A00FC01A281B3818481958115969C938E9368
S1131A101497A481B5818281938113969C938E93AC
S1131A201297A085B18511968D919C911297E81714
S1131A30F90731F48481958112969C938E931197C2
S1131A40118610868C9181508C9308958AEF87BDFE
S1131A5082E084BD93E095BD80936E00089531E1EA
S1131A60FC013083319722E220833197A3E3A083E2
S1131A703197608331977083319710823197108248
S1131A80319760E8608331971082319710823197E3
S1131A901082319762E06083319763E0608331970D
S1131AA064E06083319765E06083319766E060832A
S1131AB0319767E06083319768E06083319769E02C
S1131AC06083319760E1608331973083319732E1ED
S1131AD03083319733E13083319734E13083319768
S1131AE035E13083319736E13083319737E1308304
S1131AF0319738E13083319739E13083319730E2DF
S1131B003083319731E2308331972083319723E258
S1131B1020833197408331975083319726E2208385
S1131B20319727E22083319728E22083319729E2F5
S1131B302083319720E32083319721E32083899701
S1131B40089584DFA091B412B091B512CD91CDBFA8
S1131B50DD91DEBFFF91EF91DF91CF91BF91AF9106
S1131B609F918F917F916F915F914F913F912F91B1
S1131B701F910F91FF90EF90DF90CF90BF90AF90A7
S1131B809F908F907F906F905F904F903F902F9099
S1131B901F900F900CBE0F900BBE0F900FBE0F90B6
S1131BA0089581E008950F920FB6F8940F920BB642
S1131BB00F920CB60F921F9211242F923F924F92C4
S1131BC05F926F927F928F929F92AF92BF92CF92C9
S1131BD0DF92EF92FF920F931F932F933F934F93B4
S1131BE05F936F937F938F939F93AF93BF93CF93A1
S1131BF0DF93EF93FF93A091B412B091B5120DB699
S1131C000D920EB60D9286D3A091B412B091B51276
S1131C10CD91CDBFDD91DEBFFF91EF91DF91CF91EB
S1131C20BF91AF919F918F917F916F915F914F91F0
S1131C303F912F911F910F91FF90EF90DF90CF90E4
S1131C40BF90AF909F908F907F906F905F904F90D8
S1131C503F902F901F900F900CBE0F900BBE0F90D3
S1131C600FBE0F9008950F920FB6F8940F920BB613
S1131C700F920CB60F921F9211242F923F924F9203
S1131C805F926F927F928F929F92AF92BF92CF9208
S1131C90DF92EF92FF920F931F932F933F934F93F3
S1131CA05F936F937F938F939F93AF93BF93CF93E0
S1131CB0DF93EF93FF93A091B412B091B5120DB6D8
S1131CC00D920EB60D92F1D125D3A091B412B0911C
S1131CD0B512CD91CDBFDD91DEBFFF91EF91DF91C4
S1131CE0CF91BF91AF919F918F917F916F915F91B0
S1131CF04F913F912F911F910F91FF90EF90DF90A3
S1131D00CF90BF90AF909F908F907F906F905F9097
S1131D104F903F902F901F900F900CBE0F900BBED2
S1131D200F900FBE0F9008959EDF1895CF93DF9309
S1131D30EC01B5D12091DF023091E002C9018C0F92
S1131D409D1F803A4FE0940758F42817390758F438
S1131D50E901CF51DD4F9093E0028093DF0205C08B
S1131D60C0E0D0E002C0C0E0D0E046D2CE01DF91B6
S1131D70CF91089508958091AB128230E0F313DF80
S1131D80FACFEF92FF920F931F93CF93DF937C01CF
S1131D90EB0181E290E0CADF8C01892BA9F0209746
S1131DA019F4C701C3DF01C0CE01F801908F878BFE
S1131DB0009729F4C801DEDF00E010E005C0A701A8
S1131DC065EA70E00E94DB18C801DF91CF911F9192
S1131DD00F91FF90EF9008951F93CF93DF93EC0141
S1131DE0142F48E050E049960E94E21818A21111FD
S1131DF010E01E8BCE010296A7DDCE010C96A4DD69
S1131E00D987C88781E090E0811B91099D878C87E1
S1131E10DB8BCA8BDF91CF911F910895CF93C0E0E4
S1131E200FC08C2F90E09C01220F331F220F331F11
S1131E30220F331F820F931F85559D4E77DDCF5F91
S1131E40CC2379F382EA92E171DD89E992E16EDDD6
S1131E508CE892E16BDD82EA92E190939812809390
S1131E60971289E992E19093961280939512CF91FB
S1131E700895CF93DF93EC01E091B412F091B51281
S1131E80938382838091891290918A12C817D9070B
S1131E9060F46091B4127091B51280919512909192
S1131EA096126E5F7F4F7BDD16C06091B412709105
S1131EB0B51280919712909198126E5F7F4F6FDDEB
S1131EC080910B0290910C02C817D90720F4D0938B
S1131ED00C02C0930B02DF91CF9108952F923F9291
S1131EE04F925F927F928F929F92AF92BF92CF92C6
S1131EF0DF92EF92FF920F931F93CF93DF9300D063
S1131F001F92CDB7DEB79A8389834B015C834B83E1
S1131F101901702EB6012501CA0133DF5C01009757
S1131F2009F46CC0FC01C788D08C8B819C8101971B
S1131F30C80ED91E0B811C819201472DB401C50125
S1131F404BDFA10169817A81C60189DDF5019183A5
S1131F508083E114F10419F0F701B182A0820FB675
S1131F60F8940F9280918B128F5F80938B128091E3
S1131F70B4129091B512892B51F4B092B512A0927B
S1131F80B41280918B12813089F448DF0FC08091A4
S1131F90861281110BC0E091B412F091B5128689BA
S1131FA0781620F0B092B512A092B412F501868989
S1131FB090918812981710F480938812909181124E
S1131FC09F5F9093811290918712981710F48093D9
S1131FD0871290E0B5016E5F7F4F9C01220F331F83
S1131FE0220F331F220F331F820F931F85559D4EDF
S1131FF0AFDC0F900FBEF1E0F98302C08FEF89834D
S1132000E981E13061F480918612882341F0E09106
S1132010B412F091B5128689871508F4C4DD89815C
S11320200F900F900F900F90DF91CF911F910F9110
S1132030FF90EF90DF90CF90BF90AF909F908F90E4
S11320407F905F904F903F902F900895AF92BF92F2
S1132050CF92DF92EF92FF920F93A12CB12CC12C5F
S1132060D12CE12CF12C00E020E030E045E550E0FB
S113207066EB72E08BEB9EE031DF813041F4F89443
S11320808093861210928A12109289125ADD0F914F
S1132090FF90EF90DF90CF90BF90AF900895809124
S11320A085128F5F8093851208950F931F93CF93AA
S11320B0DF9380918512811195C08091891290914E
S11320C08A12019690938A128093891280918912C0
S11320D090918A12892B99F5809197129091981278
S11320E02091951230919612309398122093971262
S11320F09093961280939512809182128F5F8093B1
S11321008212E0919712F09198128081811107C098
S11321108FEF9FEF90930C0280930B0210C0E0911D
S11321209712F09198120580F681E02D0680F781D0
S1132130E02D8281938190930C0280930B02209175
S1132140891230918A1280910B0290910C02281707
S1132150390708F44CC0E0919712F09198128081ED
S1132160811107C08FEF9FEF90930C0280930B02B5
S11321703EC0E0919712F09198120580F681E02D0F
S1132180C681D7818A819B812091891230918A12DC
S11321902817390728F490930C0280930B0227C068
S11321A08E010E5F1F4FC8012BDC8C899D89892B02
S11321B019F0CE010C9624DC8E8990918712981721
S11321C010F48093871290E09C01220F331F220F9A
S11321D0331F220F331F820F931FB80185559D4E65
S11321E0B7DBB9CF809184128F5F80938412DF9123
S11321F0CF911F910F910895FF920F931F93CF9347
S1132200DF930FB6F8940F928091851281508093DA
S1132210851280918512811155C080918B12811194
S11322202FC053C0E0919112F0919212C681D781D0
S1132230CE010C96E5DB8E010E5F1F4FC801E0DB7B
S11322408E8990918712981710F48093871290E0EA
S11322509C01220F331F220F331F220F331F820FC3
S1132260931FB80185559D4E73DB9E89E091B4128E
S1132270F091B5128689981720F0FF24F39401C0D9
S1132280F12C80918C128111CDCF80918412811117
S113229007C00CC00ADF809184128150809384129D
S11322A0809184128111F6CFFF24F39481E0F81613
S11322B021F080918312813039F41092831273DCFF
S11322C081E003C080E001C080E00F900FBEDF9189
S11322D0CF911F910F91FF900895CF93DF93EC015D
S11322E0892B89F0DCDE8091891290918A12C80FC3
S11322F0D91F8091B4129091B512029681DBCE0160
S1132300B8DD7ADF01C080E0811101C04CDCDF91CF
S1132310CF91089580918512882349F081E08093BC
S1132320831208958091871281508093871280913F
S1132330871290E0FC01EE0FFF1FEE0FFF1FEE0F60
S1132340FF1F8E0F9F1FFC01E555FD4E80818823E2
S113235049F38091871290E09C01220F331F220FD2
S1132360331F220F331F280F391FD901A555BD4E26
S11323701196ED91FC9112970280F381E02D129653
S1132380FC93EE93119722553D4EE217F30729F47F
S113239022813381FD0132832183FC01EE0FFF1F73
S11323A0EE0FFF1FEE0FFF1F8E0F9F1FFC01E55561
S11323B0FD4E0180F281E02D868197819093B512C4
S11323C08093B41208952BB12F772BB924B32D7FAA
S11323D024BB000092B988B984B38B7F84BB00000E
S11323E084B3846084BB000084B3826084BB08959A
S11323F02BB120682BB924B32D7F24BB000092B9E4
S113240088B984B38B7F84BB000084B3846084BBAD
S1132410000084B3826084BB089589E290E0D3CF46
S1132420089581E190E0CFCF0895CF93C82F86E33C
S113243090E0C9DF8C2F90E0DBDFCF910895CF933C
S1132440C82F8AE390E0BFDF8C2F90E0D1DFCF91DB
S1132450089583B3876083BB8AB180688AB98FEF9C
S113246081B987B984B3876084BB8BB180688BB929
S113247084B38E7F84BB2FEF89E698E1215080409E
S11324809040E1F700C0000084B3816084BB2FEF6B
S113249089E698E1215080409040E1F700C00000B7
S11324A085E0CDDF88E0C1DFBCDFB7CF08958CE2E3
S11324B090E089CF089590E0982F8827990F990F7D
S11324C0990F20E2629FB0011124862B972B842B55
S11324D08FCF08950F931F93CF93DF93861797079A
S11324E078F4EB018C018AE290E06DDF812F90E0BB
S11324F07FDFC8017DDF8D2F90E07ADFCE0178DFAA
S1132500DF91CF911F910F9108950F931F93CF9354
S1132510DF938617970778F4EB018C018BE290E048
S113252052DF812F90E064DFC80162DF8D2F90E0DD
S11325305FDFCE015DDFDF91CF911F910F91089591
S11325406F927F928F929F92AF92BF92CF92EF92AF
S11325500F93CF93DF935B013A01E901BC01640F50
S1132560751F61507109D1DFB5016C0F7D1F61507A
S11325707109C501AFDF9BDF812C912C54019301BC
S1132580DE01E9D486169706A806B90650F4402F52
S11325906E2D8C2D90DF8FEF881A980AA80AB80A3E
S11325A0EECF3FDFDF91CF910F91EF90CF90BF90AF
S11325B0AF909F908F907F906F9008950F931F938B
S11325C0CF93DF93CDB7DEB766970FB6F894DEBF2F
S11325D00FBECDBF8C0145D1F80112821382148243
S11325E01582168217821086128611861386148627
S11325F0158616861786108A118A128A148A138AF7
S1132600158ACE0145962DD18D899E89D8018D9349
S11326109D9384E18B8746E44C8788E790E09B8B0D
S11326208A8B3AEA3C8B84E68E878D879DE19F876F
S11326309AEE988B22E0298B5AE0FE013B9601909A
S11326400D925A95E1F758EC59834A834CE251E0D4
S1132650598748873A878C838B838CE28D832E83BA
S11326609F838AE0FE013196D8011C9601900D9259
S11326708A95E1F7EEDE66960FB6F894DEBF0FBEDC
S1132680CDBFDF91CF911F910F910895CF92DF922B
S1132690EF92FF920F931F93CF93DF931F921F929A
S11326A0CDB7DEB78C0119821A82AE014E5F5F4F3F
S11326B0BE016F5F7F4F6AD18BEB92E0E5D18981D8
S11326C090E0EED185EC92E0DFD18A8190E0E8D110
S11326D08AE192E0D9D1698170E080E090E0FAD299
S11326E06B017C01F801628170E080E090E0F2D23D
S11326F021E73DE34AEA5FE357D29B01AC01C701FE
S1132700B60198D31816D4F4F8016185728580E077
S113271090E0DED221E73DE34AEA5FE345D29B0144
S1132720AC01C701B6013CD2882344F4F80193817B
S11327308A81981718F49385891770F1F8016485D4
S113274070E080E090E0C6D221E73DE34AEA5FE32F
S11327502BD29B01AC01C701B6016CD31816F4F45B
S1132760F8016389748980E090E0B2D221E73DE307
S11327704AEA5FE319D29B01AC01C701B60110D24A
S1132780882374F4F80195858A81981758F49589FB
S1132790891750F080E009C081E007C080E005C0DF
S11327A080E003C080E001C082E00F900F90DF91D1
S11327B0CF911F910F91FF90EF90DF90CF900895EC
S11327C0CF92EF920F93CC24CA94EE24EA940FEFA5
S11327D020EF30E040E451E060E070E080E090E021
S11327E0AFDE0F91EF90CF900895CF92EF920F93B9
S11327F0CF93DF93EC01CF80E8840E812C8130E00D
S11328004D8150E06B8170E08A8190E099DEC98847
S1132810EA8808892E8530E04F8550E06D8570E0A8
S11328208C8590E08DDEDF91CF910F91EF90CF906A
S113283008952CE9FC0120832CED2183E1E0F1E0F3
S11328408081886080838DB188608DB983B3806214
S113285083BB82E080936A008DB380618DBB7894E2
S11328600895E7CF08951F920F920FB60F92112487
S113287010920D020F900FBE0F901F90189568359F
S113288019F4FC01708105C0693509F07DC0FC01B3
S113289071818EB1877F8EB9FAE2FA95F1F700C0A3
S11328A027E030E033235CF18AE28A95F1F700C037
S11328B064B3872F90E0022E02C0959587950A9401
S11328C0E2F781709927880F991F82959295907FDE
S11328D09827807F9827862B84BBE2E0F1E08081F3
S11328E0886080839AE29A95F1F700C08081877F9F
S11328F0808384B38F7D84BB21503109D3CF27E0FB
S113290030E080E0332324F1EAE2EA95F1F700C0F5
S1132910E2E0F1E09081986090839AE29A95F1F771
S113292000C09081977F9083E5E0EA95F1F700007D
S11329309CB195FB442740F950E0BA01022E02C035
S1132940660F771F0A94E2F7862B21503109DACFFC
S113295027E030E033239CF0FAE2FA95F1F700C067
S1132960E2E0F1E09081986090839AE29A95F1F721
S113297000C09081977F908321503109EBCF9EB1A5
S113298098609EB9809508958FEF0895EF92FF9215
S11329900F931F93CF93DF93EC017B018A01809106
S11329A00D028111FCCF68E5CE0169DFF701808358
S11329B069E5CE0164DFF8018083FFEF20E782E060
S11329C0F15020408040E1F700C000008FEF809379
S11329D00D02DF91CF911F910F91FF90EF90089519
S11329E00F931F93522F8B019C010C52114021090C
S11329F03109053D104C21403105E0F54530D0F159
S1132A004930C0F520E22093C00028E12093C100A2
S1132A104550440F4093C200553431F4E2ECF0E0E9
S1132A2020812062208307C05F3429F4E2ECF0E0C7
S1132A30208120632083DC01CB01880F991FAA1F0A
S1132A40BB1F880F991FAA1FBB1F9C01AD01220F3A
S1132A50331F441F551F220F331F441F551F60E0AF
S1132A6074E284EF90E04DD2215031093093C500D7
S1132A702093C4001F910F9108959091C00095FF79
S1132A80FCCF8093C6000895CF93DF93EC01888137
S1132A90882319F0F2DF2196FACFDF91CF910895C0
S1132AA0CF93DF93CDB7DEB727970FB6F894DEBF89
S1132AB00FBECDBF4AE0BE016F5F7F4F92D3CE0100
S1132AC00196E2DF27960FB6F894DEBF0FBECDBFA6
S1132AD0DF91CF9108955058BB27AA270ED070C11B
S1132AE061D130F066D120F031F49F3F11F41EF42F
S1132AF056C10EF4E095E7FB4CC1E92F72D180F387
S1132B00BA17620773078407950718F071F49EF5E6
S1132B108AC10EF4E0950B2EBA2FA02D0B01B9013A
S1132B2090010C01CA01A0011124FF27591B99F03F
S1132B30593F50F4503E68F11A16F040A22F232F4B
S1132B40342F4427585FF3CF469537952795A7959B
S1132B50F0405395C9F77EF41F16BA0B620B730B42
S1132B60840BBAF09150A1F0FF0FBB1F661F771FB3
S1132B70881FC2F70EC0BA0F621F731F841F48F468
S1132B80879577956795B795F7959E3F08F0B3CFEE
S1132B909395880F08F09927EE0F979587950895D8
S1132BA0D4D008F481E008950CD00AC102D140F0D9
S1132BB0F9D030F021F45F3F19F0EBC0511134C16A
S1132BC0EEC00FD198F39923C9F35523B1F3951BA4
S1132BD0550BBB27AA2762177307840738F09F5F3A
S1132BE05F4F220F331F441FAA1FA9F333D00E2EA9
S1132BF03AF0E0E830D091505040E695001CCAF716
S1132C0029D0FE2F27D0660F771F881FBB1F2617DA
S1132C1037074807AB07B0E809F0BB0B802DBF01AD
S1132C20FF2793585F4F2AF09E3F510568F0B1C0CB
S1132C30FBC05F3FECF3983EDCF386957795679590
S1132C40B795F7959F5FC9F7880F911D969587955E
S1132C5097F90895E1E0660F771F881FBB1F62177D
S1132C6073078407BA0720F0621B730B840BBA0B3B
S1132C70EE1F88F7E0950895BCD088F09F5790F038
S1132C80B92F9927B751A0F0D1F0660F771F881F8D
S1132C90991F1AF0BA95C9F712C0B13081F0C3D0A8
S1132CA0B1E00895C0C0672F782F8827B85F39F046
S1132CB0B93FCCF3869577956795B395D9F73EF4EC
S1132CC090958095709561957F4F8F4F9F4F089594
S1132CD0E89409C097FB3EF49095809570956195B2
S1132CE07F4F8F4F9F4F9923A9F0F92F96E9BB2768
S1132CF09395F695879577956795B795F111F8CFE4
S1132D00FAF4BB0F11F460FF1BC06F5F7F4F8F4F4E
S1132D109F4F16C0882311F096E911C0772321F044
S1132D209EE8872F762F05C0662371F096E8862FDC
S1132D3070E060E02AF09A95660F771F881FDAF733
S1132D40880F9695879597F90895990F0008550F60
S1132D50AA0BE0E8FEEF16161706E807F907C0F01D
S1132D6012161306E407F50798F0621B730B840B25
S1132D70950B39F40A2661F0232B242B252B21F4FF
S1132D8008950A2609F4A140A6958FEF811D811D9F
S1132D90089597F99F6780E870E060E008959FEFD9
S1132DA080EC089500240A941616170618060906DE
S1132DB0089500240A9412161306140605060895AD
S1132DC0092E0394000C11F4882352F0BB0F40F435
S1132DD0BF2B11F460FF04C06F5F7F4F8F4F9F4F75
S1132DE0089557FD9058440F551F59F05F3F71F0F7
S1132DF04795880F97FB991F61F09F3F79F087955E
S1132E000895121613061406551FF2CF4695F1DFE6
S1132E1008C0161617061806991FF1CF8695710576
S1132E20610508940895E894BB2766277727CB01AA
S1132E3097F908958ADF08F48FEF08950BD0C0CF77
S1132E40B1DF28F0B6DF18F0952309F0A2CFA7CFA1
S1132E501124EACFC6DFA0F3959FD1F3950F50E07C
S1132E60551F629FF001729FBB27F00DB11D639F38
S1132E70AA27F00DB11DAA1F649F6627B00DA11DDE
S1132E80661F829F2227B00DA11D621F739FB00D84
S1132E90A11D621F839FA00D611D221F749F3327F4
S1132EA0A00D611D231F849F600D211D822F762F8D
S1132EB06A2F11249F5750408AF0E1F088234AF08A
S1132EC0EE0FFF1FBB1F661F771F881F91505040D6
S1132ED0A9F79E3F510570F05CCFA6CF5F3FECF39E
S1132EE0983EDCF3869577956795B795F795E795C2
S1132EF09F5FC1F7FE2B880F911D9695879597F9D3
S1132F000895A1E21A2EAA1BBB1BFD010DC0AA1F26
S1132F10BB1FEE1FFF1FA217B307E407F50720F03E
S1132F20A21BB30BE40BF50B661F771F881F991FB9
S1132F301A9469F760957095809590959B01AC0102
S1132F40BD01CF010895EE0FFF1F881F8BBF0790AF
S1132F50F691E02D1994A29FB001B39FC001A39FE5
S1132F60700D811D1124911DB29F700D811D1124BE
S1132F70911D08950F931F93CF93DF938230910592
S1132F8010F482E090E0E091B812F091B91220E0E0
S1132F9030E0A0E0B0E0309719F140815181028126
S1132FA0138148175907C8F08417950769F41097D7
S1132FB031F012960C93129713961C9327C000932A
S1132FC0B8121093B91222C02115310519F0421715
S1132FD0530718F49A01BD01EF01DF01F801DBCFBB
S1132FE021153105F9F0281B390B2430310580F403
S1132FF08A819B816115710521F0FB019383828392
S113300004C09093B9128093B812FE01329644C062
S1133010FE01E20FF31F819391932250310939830A
S113302028833AC02091B6123091B712232B41F471
S113303020910202309103023093B7122093B6120A
S113304020910002309101022115310541F42DB780
S11330503EB74091040250910502241B350BE091C8
S1133060B612F091B712E217F307A0F42E1B3F0B30
S11330702817390778F0AC014E5F5F4F24173507E6
S113308048F04E0F5F1F5093B7124093B6128193CE
S1133090919302C0E0E0F0E0CF01DF91CF911F9166
S11330A00F910895CF93DF93009709F481C0FC0139
S11330B0329713821282A091B812B091B91210976C
S11330C081F420813181820F931F2091B6123091B7
S11330D0B7122817390751F5F093B712E093B612D7
S11330E067C0ED0120E030E0CE17DF0740F44A81ED
S11330F05B819E0141155105F1F0EA01F5CFD383BF
S1133100C28340815181840F951FC817D90759F490
S113311088819981840F951F0296918380838A8187
S11331209B81938382832115310529F4F093B9128D
S1133130E093B8123DC0E901FB83EA8349915991B8
S1133140C40FD51FEC17FD0761F480819181840FB2
S1133150951F0296E90199838883828193819B83D9
S11331608A83E0E0F0E012968D919C91139700978A
S113317019F0FD01DC01F7CF8D919C9111979D0110
S11331802E5F3F4F820F931F2091B6123091B712DA
S11331902817390769F4309729F41092B91210925C
S11331A0B81202C013821282B093B712A093B6125F
S11331B0DF91CF910895DC0101C06D9341505040DF
S11331C0E0F70895FB01DC014150504048F00190C4
S11331D00D920020C9F701C01D9241505040E0F704
S11331E00895BB274A3031F4992322F4BDE2909527
S11331F081959F4F01C0BB27FB015527AA27880F44
S1133200991FAA1FA41710F0A41B83955051B9F756
S1133210A05DAA3308F0A95DA193009779F7B111D5
S1133220B1931192CB0100C0DC01FC01672F7191B5
S11332307723E1F7329704C07C916D937083629198
S10F3240AE17BF07C8F30895F894FFCF41
S113324C0000BA122000BD37863601FFFFFF7072F2
S113325C6573736564206B65793A0D0A0041646487
S113326C696E6720636F6C6F720D0A00477261623E
S113327C62696E67206974656D0D0A004B6579701F
S113328C6164205461736B00446973706C617920C0
S113329C2B2041726D205461736B004D6F746F72EF
S11332AC7300000000000000000010054B07000034
S11332BC000074077A0783074B07000000001A0804
S11332CC200829084B0700000000C008C608CF08D6
S11332DC4B070000000066096C0975094B070000D8
S11332EC00000A0A100A190A4B0700000000AA0A77
S11332FCB00AB90A4B0749444C4500582076616C16
S113330C75653A2000792076616C75653A20000069
S9030000FC
