S0130000526F626F74536F727465722E737265638C
S113000071C000008FC000008DC000008BC00000D4
S113001089C0000087C0000085C0000083C00000C4
S113002081C000007FC000007DC000007BC00000D4
S113003079C0000077C0000075C0000073C00000E4
S113004071C000006FC000006DC000006BC00000F4
S113005069C0000067C0000065C0000063C0000004
S113006061C000005FC000005DC000005BC0000014
S113007059C0000057C0000055C0000053C0000024
S113008051C000004FC000004DC000004BC0000034
S113009049C0000047C0000045C0000043C0000044
S11300A041C0000065C000003DC000003BC000002E
S11300B039C0000038C0000035C00000DCC70000B3
S11300C031C000002FC000002DC000002BC0000074
S11300D029C0000027C0000025C0000023C0000084
S11300E021C0000011241FBECFEFD1E2DEBFCDBF7F
S11300F000E00CBF12E0A0E0B2E0EAE8FBE100E0BF
S11301000BBF02C007900D92A831B107D9F725E1C2
S1130110A8E1B2E001C01D92A33EB207E1F717D1F6
S11301200C94C30D6DCF1F920F920FB60F92112432
S11301308F939F93AF93BF9380911C0290911D0264
S1130140A0911E02B0911F020196A11DB11D8093C2
S11301501C0290931D02A0931E02B0931F02BF9134
S1130160AF919F918F910F900FBE0F901F90189594
S11301701F920F920FB60F9211240BB60F92CF92CB
S1130180DF92EF92FF920F931F932F933F934F931E
S11301905F936F937F938F939F93AF93BF93EF93EB
S11301A0FF936091A6007091A700809104028823B8
S11301B0C1F010921C0210921D0210921E021092A5
S11301C01F02CB01A0E0B0E08093200290932102B3
S11301D0A0932202B09323021092040281E089BB0F
S11301E08EC01092720019BACB01A0E0B0E0009169
S11301F020021091210220912202309123028017C3
S11302009107A207B30780F500911C0210911D020B
S113021020911E0230911F02012B022B032BA1F00F
S113022000911C0210911D0220911E0230911F02A8
S1130230015011092109310900931C0210931D0278
S113024020931E0230931F0200912002109121027C
S11302502091220230912302801B910BA20BB30B3D
S11302600197AF4FBF4F0CC00091200210912102A3
S11302702091220230912302801B910BA20BB30B1D
S113028000911C0210911D0220911E0230911F0248
S1130290C0900002D0900102E0900202F0900302AC
S11302A0980111270027BC01CD01600F711F821F27
S11302B0931F0E94850CA70196010E943B0D9B0190
S11302C0AC0160E070E080E89FE30E94F10B609372
S11302D018027093190280931A0290931B021092D1
S11302E01C0210921D0210921E0210921F02109204
S11302F02002109221021092220210922302FF91F6
S1130300EF91BF91AF919F918F917F916F915F9189
S11303104F913F912F911F910F91FF90EF90DF909C
S1130320CF900F900BBE0F900FBE0F901F9018959B
S1130330EC01D2D0CE01D0D088E893E10E94120B18
S1130340CE0100D188E893E10E94120BF3CFCF9342
S1130350DF93CDB7DEB7E3970FB6F894DEBF0FBED9
S1130360CDBFCE01019615D0A12CB12CC12CD12C1E
S1130370E12CF12C00E09E012F5F3F4F45E550E05A
S113038067E072E088E991E04ED78BAB0E94CB091D
S1130390FFCF8F929F92AF92BF92CF92DF92EF9254
S11303A0FF920F931F93CF93DF9300D0CDB7DEB7A7
S11303B04C01AED284010F5F1F4FC80183D3249A2E
S11303C0CE010296A5D2CE0101967CD340E050E046
S11303D060EC70E4C401BAD20F2EC12CD12CF0EC25
S11303E0EF2EF0E4FF2EF02DF401C282D382E482DA
S11303F0F582C682D782E086F18640E050E060EE66
S113040070E4C401E2D280E090E0A0EEB0E4F40134
S113041082879387A487B58786879787A08BB18BBC
S1130420B701A601C40110D3F401C28AD38AE48AB5
S1130430F58AC68AD78AE08EF18EB701A601C80173
S11304405FD3F401C28ED38EE48EF58EC68ED78E22
S1130450E0A2F1A240E050E060E470E4C8018ED371
S1130460C12CD12C6894EE24E6F8FE2CF401C2A22F
S1130470D3A2E4A2F5A2C6A2D7A2E0A6F1A6B70130
S1130480A601C801B8D3F401C2A6D3A6E4A6F5A672
S1130490C6A6D7A6E0AAF1AAA12CB12CC12CD12CB6
S11304A0E12CF12C00E0940145E550E06CE072E0B1
S11304B087E894E0B8D68B830F900F900F90DF916C
S11304C0CF911F910F91FF90EF90DF90CF90BF904D
S11304D0AF909F908F900895CF93DF93EC0186E6C1
S11304E096E6A6EFB0E48AA39BA3ACA3BDA380E0E9
S11304F090E0A0E2B0E48A839B83AC83BD838CED5F
S113050095E00E94120B86E696E6A6EAB0E48A8796
S11305109B87AC87BD8780E090E0A0EAB0E48A8B3B
S11305209B8BAC8BBD8B8CED95E00E94120B8AE902
S113053099E9A9EEB0E48AA79BA7ACA7BDA7DF9170
S1130540CF9108954F925F926F927F928F929F9274
S1130550AF92BF92CF92DF92EF92FF92CF93DF934D
S1130560EC01412C512C3201689465F876F84A82EA
S11305705B826C827D820F2E812C912CF0EEAF2E4B
S1130580F0E4BF2EF02D8A869B86AC86BD860F2EA6
S1130590C12CD12CF0ECEF2EF0E4FF2EF02DCA8A02
S11305A0DB8AEC8AFD8ACA8EDB8EEC8EFD8E88EBAC
S11305B09BE00E94120B86E696E6A6EAB0E48A87E0
S11305C09B87AC87BD8780E090E0A0EAB0E48A8B8B
S11305D09B8BAC8BBD8B8CED95E00E94120B4AA6D5
S11305E05BA66CA67DA68CED95E00E94120B8A8614
S11305F09B86AC86BD86CA8ADB8AEC8AFD8ACA8E53
S1130600DB8EEC8EFD8EDF91CF91FF90EF90DF902B
S1130610CF90BF90AF909F908F907F906F905F909E
S11306204F900895EC018C010F5F1F4F8A809B80CF
S1130630AC80BD80CE80DF80E884F984A701960178
S1130640C501B4010E94370D1816A4F420E030E06F
S113065040E85DE3C701B6010E94890BAB01BC0110
S11306604E835F8368877987CE0170D18AE090E0FA
S1130670D9D71BC0A7019601C501B4010E94ED0B97
S113068088239CF420E030E040E85DE3C701B60134
S11306900E94880BAB01BC014E835F836887798716
S11306A0CE0154D18AE090E0BDD78A849B84AC8487
S11306B0BD84CE84DF84E888F988A7019601C5014A
S11306C0B4010E94370D1816A4F420E030E040E88D
S11306D05DE3C701B6010E94890BAB01BC014E87E3
S11306E05F87688B798BCE0170D18AE090E09AD7CE
S11306F01BC0A7019601C501B4010E94ED0B88231C
S11307009CF420E030E040E85DE3C701B6010E94BC
S1130710880BAB01BC014E875F87688B798BCE0158
S113072054D18AE090E07ED78A889B88AC88BD88C3
S1130730CE88DF88E88CF98CA7019601C501B40145
S11307400E94370D18169CF420E030E040E85DE389
S1130750C701B601DED7AB01BC014E8B5F8B688F3E
S1130760798FCE0171D18AE090E05CD71AC0A701DD
S11307709601C501B4010E94ED0B882394F420E096
S113078030E040E85DE3C701B601C2D7AB01BC016C
S11307904E8B5F8B688F798FCE0156D18AE090E0C3
S11307A041D78A8C9B8CAC8CBD8CCE8CDF8CE8A022
S11307B0F9A0A7019601C501B4010E94370D1816CE
S11307C09CF420E030E040E85DE3C701B601A1D726
S11307D0AB01BC014E8F5F8F68A379A3C80190D190
S11307E08AE090E01FD719C0A7019601C501B401A2
S11307F0F4D7882394F420E030E040E85DE3C701B7
S1130800B60186D7AB01BC014E8F5F8F68A379A375
S1130810CE019CD08AE090E005D78AA09BA0ACA032
S1130820BDA0CEA0DFA0E8A4F9A4A7019601C5014C
S1130830B4010E94370D18169CF420E030E040E823
S11308405DE3C701B60165D7AB01BC014EA35FA34D
S113085068A779A7C80192D18AE090E0E3D619C0CD
S1130860A7019601C501B401B8D7882394F420E008
S113087030E040E85DE3C701B6014AD7AB01BC01F3
S11308804EA35FA368A779A7C80178D18AE090E056
S1130890C9D68AA49BA4ACA4BDA4CEA4DFA4E8A812
S11308A0F9A8A7019601C501B4010E94370D1816D5
S11308B09CF420E030E040E85DE3C701B60129D7AD
S11308C0AB01BC014EA75FA768AB79ABC80193D15C
S11308D08AE090E0A7D6AACEA7019601C501B4018B
S11308E07CD788230CF0A2CE20E030E040E85DE322
S11308F0C701B6010DD7AB01BC014EA75FA768AB1A
S113090079ABC80178D18AE090E08CD68FCE8ADEAC
S113091084B1806E84B988EA8093800084E18093F6
S11309208100109282008EE692E09093870080937B
S11309308600109289001092880010928B00109209
S11309408A0010928D0010928C000895CF92DF924D
S1130950EF92FF92CF93DF9300D01F92CDB7DEB713
S11309606A017B0120918600309187003695279596
S113097036952795ABE7B4E10E949E0D9695879531
S1130980BC0180E090E0C1D769837A838B839C8328
S113099069817A818B819C818CD770E080E090E0C2
S11309A0B6D7A70196010E943B0D83D770938900A7
S11309B0609388000F900F900F900F90DF91CF916C
S11309C0FF90EF90DF90CF900895CF92DF92EF9257
S11309D0FF92CF93DF9300D01F92CDB7DEB76A01A9
S11309E07B012091860030918700369527953695B6
S11309F02795ABE7B4E10E949E0D96958795BC01BF
S1130A0080E090E082D769837A838B839C836981B9
S1130A107A818B819C814DD770E080E090E077D71C
S1130A20A70196010E943B0D44D770938B006093FD
S1130A308A000F900F900F900F90DF91CF91FF904D
S1130A40EF90DF90CF900895CF92DF92EF92FF92D4
S1130A50CF93DF9300D01F92CDB7DEB76A017B013D
S1130A6020918600309187003695279536952795F5
S1130A70ABE7B4E10E949E0D96958795BC0180E09A
S1130A8090E043D769837A838B839C8369817A81DD
S1130A908B819C810ED770E080E090E038D7A7016D
S1130AA09601E9D706D770938D0060938C000F9060
S1130AB00F900F900F90DF91CF91FF90EF90DF9008
S1130AC0CF9008958DB188638DB988EA80939000A2
S1130AD084E180939100109292008EE692E09093CC
S1130AE097008093960010929900109298001092AB
S1130AF09B0010929A0010929D0010929C00089501
S1130B00CF92DF92EF92FF92CF93DF9300D01F92A8
S1130B10CDB7DEB76A017B01209196003091970032
S1130B203695279536952795ABE7B4E10E949E0D3F
S1130B3096958795BC0180E090E0E7D669837A8337
S1130B408B839C8369817A818B819C81B2D670E08E
S1130B5080E090E0DCD6A70196018DD7AAD67093E9
S1130B609900609398000F900F900F900F90DF9171
S1130B70CF91FF90EF90DF90CF900895CF92DF92C6
S1130B80EF92FF92CF93DF9300D01F92CDB7DEB7E1
S1130B906A017B0120919600309197003695279544
S1130BA036952795ABE7B4E1C9D796958795BC01EF
S1130BB080E090E0AAD669837A838B839C836981E1
S1130BC07A818B819C8175D670E080E090E09FD61D
S1130BD0A701960150D76DD670939B0060939A003D
S1130BE00F900F900F900F90DF91CF91FF90EF90A7
S1130BF0DF90CF900895CF92DF92EF92FF92CF9340
S1130C00DF9300D01F92CDB7DEB76A017B0120913C
S1130C109600309197003695279536952795ABE742
S1130C20B4E18CD796958795BC0180E090E06DD6B1
S1130C3069837A838B839C8369817A818B819C818C
S1130C4038D670E080E090E062D6A701960113D711
S1130C5030D670939D0060939C000F900F900F907E
S1130C600F90DF91CF91FF90EF90DF90CF90089598
S1130C70FC010396928381832FEF3FEF3483238318
S1130C80968385839087878310820895FC0111865B
S1130C9010860895CF93DF93FC01DB01218132811B
S1130CA0E9018A819B8113969C938E93129781818B
S1130CB0928115969C938E9314978A819B81EC0163
S1130CC07D836C83E9017B836A83728361831996D4
S1130CD0FC93EE93189780818F5F8083DF91CF918F
S1130CE00895CF93DF93EB01488159814F3F2FEF54
S1130CF0520731F4DC011796ED91FC9118970DC061
S1130D00FC01339603C00280F381E02DA281B381FC
S1130D102D913C9142175307B0F7A281B381BB8355
S1130D20AA831596DC93CE931497FD83EC83D38327
S1130D30C28399878887FC0120812F5F2083DF91FC
S1130D40CF910895FC01A281B38184819581159688
S1130D509C938E931497A481B58182819381139679
S1130D609C938E931297A085B18511968D919C9139
S1130D701297E817F90731F48481958112969C93B0
S1130D808E931197118610868C9181508C930895BF
S1130D901092290189EF809328018BE0809321012F
S1130DA0E3E7F0E0808182608083089531E1FC0113
S1130DB03083319722E220833197A3E3A0833197D4
S1130DC06083319770833197108231971082319705
S1130DD060E86083319710823197108231971082D6
S1130DE0319762E06083319763E06083319764E018
S1130DF06083319765E06083319766E06083319763
S1130E0067E06083319768E06083319769E06083CD
S1130E10319760E1608331973083319732E13083D9
S1130E20319733E13083319734E13083319735E1C1
S1130E303083319736E13083319737E1308331970E
S1130E4038E13083319739E13083319730E23083B0
S1130E50319731E2308331972083319723E2208325
S1130E603197408331975083319726E2208331971D
S1130E7027E22083319728E22083319729E22083D7
S1130E80319720E32083319721E3208389970895C4
S1130E907FDFA091E115B091E215CD91CDBFDD9139
S1130EA0DEBFFF91EF91DF91CF91BF91AF919F9101
S1130EB08F917F916F915F914F913F912F911F91EE
S1130EC00F91FF90EF90DF90CF90BF90AF909F90E5
S1130ED08F907F906F905F904F903F902F901F90D6
S1130EE00F900CBE0F900BBE0F900FBE0F90089585
S1130EF081E008950F920FB6F8940F920BB60F92FB
S1130F000CB60F921F9211242F923F924F925F9230
S1130F106F927F928F929F92AF92BF92CF92DF9205
S1130F20EF92FF920F931F932F933F934F935F93EF
S1130F306F937F938F939F93AF93BF93CF93DF93DD
S1130F40EF93FF93A091E115B091E2150DB60D92C8
S1130F500EB60D9284D3A091E115B091E215CD9116
S1130F60CDBFDD91DEBFFF91EF91DF91CF91BF91B6
S1130F70AF919F918F917F916F915F914F913F912D
S1130F802F911F910F91FF90EF90DF90CF90BF9022
S1130F90AF909F908F907F906F905F904F903F9015
S1130FA02F901F900F900CBE0F900BBE0F900FBE92
S1130FB00F9008950F920FB6F8940F920BB60F92FC
S1130FC00CB60F921F9211242F923F924F925F9270
S1130FD06F927F928F929F92AF92BF92CF92DF9245
S1130FE0EF92FF920F931F932F933F934F935F932F
S1130FF06F937F938F939F93AF93BF93CF93DF931D
S1131000EF93FF93A091E115B091E2150DB60D9207
S11310100EB60D92EFD123D3A091E115B091E21554
S1131020CD91CDBFDD91DEBFFF91EF91DF91CF91E7
S1131030BF91AF919F918F917F916F915F914F91EC
S11310403F912F911F910F91FF90EF90DF90CF90E0
S1131050BF90AF909F908F907F906F905F904F90D4
S11310603F902F901F900F900CBE0F900BBE0F90CF
S11310700FBE0F9008959EDF1895CF93DF93EC0178
S1131080B3D12091240230912502C9018C0F9D1FF8
S1131090883843E1940758F42817390758F4E901CC
S11310A0CA5DDD4F909325028093240205C0C0E001
S11310B0D0E002C0C0E0D0E044D2CE01DF91CF91B5
S11310C0089508958091D8158230E0F313DFFACFA4
S11310D0EF92FF920F931F93CF93DF937C01EB0169
S11310E081E290E0CADF8C01892BA1F0209719F4EA
S11310F0C701C3DF01C0CE01F801908F878B009731
S113110029F4C801DEDF00E010E004C0A70165EAAD
S113111070E023D5C801DF91CF911F910F91FF900B
S1131120EF9008951F93CF93DF93EC01142F48E0C1
S113113050E0499619D518A2111110E01E8BCE016A
S11311400296A4DDCE010C96A1DDD987C88781E083
S113115090E0811B91099D878C87DB8BCA8BDF9183
S1131160CF911F910895CF93C0E00FC08C2F90E0D2
S11311709C01220F331F220F331F220F331F820FB4
S1131180931F88529A4E74DDCF5FCC2379F38FEC92
S113119095E16EDD86EC95E16BDD89EB95E168DD2B
S11311A08FEC95E19093C5158093C41586EC95E179
S11311B09093C3158093C215CF910895CF93DF9375
S11311C0EC01E091E115F091E21593838283809123
S11311D0B6159091B715C817D90760F46091E11559
S11311E07091E2158091C2159091C3156E5F7F4F87
S11311F078DD16C06091E1157091E2158091C415F7
S11312009091C5156E5F7F4F6CDD809105029091C2
S11312100602C817D90720F4D0930602C09305022A
S1131220DF91CF9108952F923F924F925F927F92D8
S11312308F929F92AF92BF92CF92DF92EF92FF92E2
S11312400F931F93CF93DF9300D01F92CDB7DEB7D8
S11312509A8389834B015C834B831901702EB601F9
S11312602501CA0135DF5C01009709F46CC0FC015B
S1131270C788D08C8B819C810197C80ED91E0B81A5
S11312801C819201472DB401C5014CDFA101698184
S11312907A81C6018BDDF50191838083E114F10429
S11312A019F0F701B182A0820FB6F8940F928091E1
S11312B0B8158F5F8093B8158091E1159091E21570
S11312C0892B51F4B092E215A092E1158091B815E2
S11312D0813089F448DF0FC08091B31581110BC0B0
S11312E0E091E115F091E2158689781620F0B0922C
S11312F0E215A092E115F50186899091B51598172C
S113130010F48093B5159091AE159F5F9093AE1530
S11313109091B415981710F48093B41590E0B5012A
S11313206E5F7F4F9C01220F331F220F331F220F4A
S1131330331F820F931F88529A4EACDC0F900FBE5E
S1131340F1E0F98302C08FEF8983E981E13061F430
S11313508091B315882341F0E091E115F091E215F5
S11313608689871508F4C6DD89810F900F900F9048
S11313700F90DF91CF911F910F91FF90EF90DF902D
S1131380CF90BF90AF909F908F907F905F904F9041
S11313903F902F900895AF92BF92CF92DF92EF9239
S11313A0FF920F93A12CB12CC12CD12CE12CF12C48
S11313B000E020E030E045E550E063E172E082E6E1
S11313C098E031DF813041F4F8948093B3151092A2
S11313D0B7151092B6155CDD0F91FF90EF90DF907A
S11313E0CF90BF90AF9008958091B2158F5F809396
S11313F0B21508950F931F93CF93DF938091B21585
S1131400811195C08091B6159091B715019690936E
S1131410B7158093B6158091B6159091B715892BA1
S113142099F58091C4159091C5152091C2153091FC
S1131430C3153093C5152093C4159093C315809399
S1131440C2158091AF158F5F8093AF15E091C415DD
S1131450F091C5158081811107C08FEF9FEF9093A4
S113146006028093050210C0E091C415F091C515E1
S11314700580F681E02D0680F781E02D828193813D
S113148090930602809305022091B6153091B7150A
S113149080910502909106022817390708F44CC080
S11314A0E091C415F091C5158081811107C08FEFBB
S11314B09FEF90930602809305023EC0E091C4150D
S11314C0F091C5150580F681E02DC681D7818A810A
S11314D09B812091B6153091B7152817390728F448
S11314E0909306028093050227C08E010E5F1F4F62
S11314F0C80128DC8C899D89892B19F0CE010C96B2
S113150021DC8E899091B415981710F48093B4154A
S113151090E09C01220F331F220F331F220F331F31
S1131520820F931FB80188529A4EB4DBB9CF8091D1
S1131530B1158F5F8093B115DF91CF911F910F91FA
S11315400895FF920F931F93CF93DF930FB6F894F0
S11315500F928091B21581508093B2158091B2158B
S1131560811155C08091B81581112FC053C0E091ED
S1131570BE15F091BF15C681D781CE010C96E2DB72
S11315808E010E5F1F4FC801DDDB8E899091B4156B
S1131590981710F48093B41590E09C01220F331F28
S11315A0220F331F220F331F820F931FB80188525B
S11315B09A4E70DB9E89E091E115F091E2158689DF
S11315C0981720F0FF24F39401C0F12C8091B915F1
S11315D08111CDCF8091B115811107C00CC00ADFF4
S11315E08091B11581508093B1158091B11581110D
S11315F0F6CFFF24F39481E0F81621F08091B01522
S1131600813039F41092B01575DC81E003C080E0BC
S113161001C080E00F900FBEDF91CF911F910F9119
S1131620FF900895CF93DF93EC01892B89F0DCDEE2
S11316308091B6159091B715C80FD91F8091E11507
S11316409091E21502967EDBCE01B8DD7ADF01C00F
S113165080E0811101C04EDCDF91CF91089580912B
S1131660B215882349F081E08093B01508958091E4
S1131670B41581508093B4158091B41590E0FC01A9
S1131680EE0FFF1FEE0FFF1FEE0FFF1F8E0F9F1FAA
S1131690FC01E852FA4E8081882349F38091B41505
S11316A090E09C01220F331F220F331F220F331FA0
S11316B0280F391FD901A852BA4E1196ED91FC9109
S11316C012970280F381E02D1296FC93EE9311970A
S11316D025523A4EE217F30729F422813381FD01A2
S11316E032832183FC01EE0FFF1FEE0FFF1FEE0F6D
S11316F0FF1F8E0F9F1FFC01E852FA4E0180F281FA
S1131700E02D868197819093E2158093E1150895E9
S11317105058BB27AA270ED070C161D130F066D1D2
S113172020F031F49F3F11F41EF456C10EF4E095FD
S1131730E7FB4CC1E92F72D180F3BA176207730734
S11317408407950718F071F49EF58AC10EF4E095AC
S11317500B2EBA2FA02D0B01B90190010C01CA0167
S1131760A0011124FF27591B99F0593F50F4503E12
S113177068F11A16F040A22F232F342F4427585F04
S1131780F3CF469537952795A795F0405395C9F71C
S11317907EF41F16BA0B620B730B840BBAF09150D4
S11317A0A1F0FF0FBB1F661F771F881FC2F70EC073
S11317B0BA0F621F731F841F48F487957795679546
S11317C0B795F7959E3F08F0B3CF9395880F08F02F
S11317D09927EE0F979587950895D4D008F481E062
S11317E008950CD00AC102D140F0F9D030F021F4B0
S11317F05F3F19F0EBC0511134C1EEC00FD198F323
S11318009923C9F35523B1F3951B550BBB27AA277D
S113181062177307840738F09F5F5F4F220F331FEF
S1131820441FAA1FA9F333D00E2E3AF0E0E830D0BB
S113183091505040E695001CCAF729D0FE2F27D0BE
S1131840660F771F881FBB1F261737074807AB078C
S1131850B0E809F0BB0B802DBF01FF2793585F4F01
S11318602AF09E3F510568F0B1C0FBC05F3FECF326
S1131870983EDCF3869577956795B795F7959F5FC6
S1131880C9F7880F911D9695879597F90895E1E01A
S1131890660F771F881FBB1F621773078407BA0779
S11318A020F0621B730B840BBA0BEE1F88F7E095D4
S11318B00895BCD088F09F5790F0B92F9927B7515D
S11318C0A0F0D1F0660F771F881F991F1AF0BA9500
S11318D0C9F712C0B13081F0C3D0B1E00895C0C0DF
S11318E0672F782F8827B85F39F0B93FCCF38695F6
S11318F077956795B395D9F73EF490958095709553
S113190061957F4F8F4F9F4F0895E89409C097FBCF
S11319103EF490958095709561957F4F8F4F9F4FC2
S11319209923A9F0F92F96E9BB279395F695879506
S113193077956795B795F111F8CFFAF4BB0F11F4C9
S113194060FF1BC06F5F7F4F8F4F9F4F16C0882370
S113195011F096E911C0772321F09EE8872F762FA6
S113196005C0662371F096E8862F70E060E02AF0E7
S11319709A95660F771F881FDAF7880F96958795D3
S113198097F90895990F0008550FAA0BE0E8FEEFA8
S113199016161706E807F907C0F012161306E4072F
S11319A0F50798F0621B730B840B950B39F40A2628
S11319B061F0232B242B252B21F408950A2609F406
S11319C0A140A6958FEF811D811D089597F99F670A
S11319D080E870E060E008959FEF80EC08950024B3
S11319E00A941616170618060906089500240A9480
S11319F012161306140605060895092E0394000C06
S1131A0011F4882352F0BB0F40F4BF2B11F460FF94
S1131A1004C06F5F7F4F8F4F9F4F089557FD9058BD
S1131A20440F551F59F05F3F71F04795880F97FB9E
S1131A30991F61F09F3F79F0879508951216130658
S1131A401406551FF2CF4695F1DF08C01616170687
S1131A501806991FF1CF86957105610508940895BC
S1131A60E894BB2766277727CB0197F908958ADF87
S1131A7008F48FEF08950BD0C0CFB1DF28F0B6DFA4
S1131A8018F0952309F0A2CFA7CF1124EACFC6DF1F
S1131A90A0F3959FD1F3950F50E0551F629FF0017D
S1131AA0729FBB27F00DB11D639FAA27F00DB11DD6
S1131AB0AA1F649F6627B00DA11D661F829F22275F
S1131AC0B00DA11D621F739FB00DA11D621F839FE6
S1131AD0A00D611D221F749F3327A00D611D231FBC
S1131AE0849F600D211D822F762F6A2F11249F570A
S1131AF050408AF0E1F088234AF0EE0FFF1FBB1F2D
S1131B00661F771F881F91505040A9F79E3F5105CB
S1131B1070F05CCFA6CF5F3FECF3983EDCF3869584
S1131B2077956795B795F795E7959F5FC1F7FE2B76
S1131B30880F911D9695879597F90895A29FB001F6
S1131B40B39FC001A39F700D811D1124911DB29FED
S1131B50700D811D1124911D0895DC0101C06D9348
S1131B6041505040E0F70895FB01DC0141505040E2
S1131B7048F001900D920020C9F701C01D92415018
S10D1B805040E0F70895F894FFCFF9
S1131B8ABD37863301FFFF5461736B004D6F746F69
S10B1B9A72730049444C45003C
S9030000FC
