S0130000526F626F74536F727465722E737265638C
S113000071C000008EC000008CC000008AC00000D7
S113001088C0000086C0000084C0000082C00000C8
S113002080C000007EC000007CC000007AC00000D8
S113003078C0000076C0000074C0000072C00000E8
S113004070C000006EC000006CC000006AC00000F8
S113005068C0000066C0000064C0000062C0000008
S113006060C000005EC000005CC000005AC0000018
S113007058C0000056C0000054C0000052C0000028
S113008050C000004EC000004CC000004AC0000038
S113009048C0000046C0000044C0000042C0000048
S11300A040C0000049C100003CC000003AC000004C
S11300B038C000001CC1000034C0000032C0000081
S11300C030C000002EC000002CC000002AC0000078
S11300D028C0000026C0000024C0000022C0000088
S11300E020C0000011241FBECFEFD1E2DEBFCDBF80
S11300F000E00CBF12E0A0E0B2E0E8E0FAE000E0CB
S11301000BBF02C007900D92A233B107D9F722E0CA
S1130110A2E3B2E001C01D92AE33B207E1F7E9D128
S113012071C46ECF613031F070F0623049F06330E9
S113013021F008954298439808954298439A089567
S1130140429A439A0895429A439808950F931F93AD
S1130150CF93DF9300D000D0CDB7DEB78C011A82E5
S113016019821C821B821E821D8261E0DBDFC801B2
S113017090D0E5D27A83698363E0C801D3DFC801F4
S113018088D0DDD27C836B8362E0C801CBDFC801F9
S113019080D0D5D27E836D8329813A818B819C81E5
S11301A082179307F8F429813A818D819E81821701
S11301B0930790F017C029813A818D819E8182171F
S11301C0930760F016C02D813E8189819A81821740
S11301D0930730F481E015C080E013C082E011C0C1
S11301E083E00FC02B813C8189819A818217930718
S11301F010F32D813E818B819C818217930718F324
S113020083E026960FB6F894DEBF0FBECDBFDF9114
S1130210CF911F910F910895613049F028F0623019
S113022049F0633051F008954098419808954098FA
S1130230419A0895409A41980895409A419A0895A0
S11302400F931F93CF93DF931F92CDB7DEB78C012B
S113025012D08FEF87B91AB8CE0101960CD060E0A6
S1130260C80160DF62E0C801D7DF0F90DF91CF9152
S11302701F910F9108951092A00081EC8093A1002A
S11302801092A20019BA1092A5001092A4007894BA
S1130290089581E08093040210923A0210923B0286
S11302A010923C0210923D021092320210923302DC
S11302B0109234021092350219BA81E280937200CE
S11302C06091320270913302809134029091350230
S11302D020E030E0A901C7D1882391F36091320274
S11302E070913302809134029091350208951F92E7
S11302F00F920FB60F9211248F939F93AF93BF93D6
S11303008091360290913702A0913802B09139025F
S11303100196A11DB11D8093360290933702A093DC
S11303203802B0933902BF91AF919F918F910F9092
S11303300FBE0F901F9018951F920F920FB60F9239
S113034011240BB60F92CF92DF92EF92FF920F938C
S11303501F932F933F934F935F936F937F938F9349
S11303609F93AF93BF93EF93FF936091A600709117
S1130370A700809104028823C1F0109236021092E3
S113038037021092380210923902CB01A0E0B0E09B
S113039080933A0290933B02A0933C02B0933D02B7
S11303A01092040281E089BB8BC01092720019BACA
S11303B0CB01A0E0B0E000913A0210913B02209101
S11303C03C0230913D0280179107A207B30780F5E4
S11303D0009136021091370220913802309139028F
S11303E0012B022B032BA1F000913602109137024E
S11303F02091380230913902015011092109310943
S11304000093360210933702209338023093390256
S113041000913A0210913B0220913C0230913D023E
S1130420801B910BA20BB30B0197AF4FBF4F0CC0B6
S113043000913A0210913B0220913C0230913D021E
S1130440801B910BA20BB30B009136021091370263
S11304502091380230913902C0900002D0900102FC
S1130460E0900202F0900302980111270027BC01DA
S1130470CD01600F711F821F931F8DD1A7019601BB
S11304803CD29B01AC0160E070E080E89FE3EFD0D8
S11304906093320270933302809334029093350256
S11304A010923602109237021092380210923902DA
S11304B010923A0210923B0210923C0210923D02BA
S11304C0FF91EF91BF91AF919F918F917F916F9128
S11304D05F914F913F912F911F910F91FF90EF905A
S11304E0DF90CF900F900BBE0F900FBE0F901F9018
S11304F01895CF93DF931F92CDB7DEB70EE428E0B3
S113050040E855E260E070E080EC90E03FD0CE013E
S1130510019696DECE01019619DE813071F465E014
S113052072E080EC90E08BD06DE080EC90E081D0C4
S11305306AE080EC90E07DD01FC0823071F465E108
S113054072E080EC90E07BD06DE080EC90E071D0C4
S11305506AE080EC90E06DD00FC081110DC064E2C0
S113056072E080EC90E06BD06DE080EC90E061D0C4
S11305706AE080EC90E05DD02FEF81EE94E02150B2
S113058080409040E1F700C00000C4CF0F93CF93A8
S1130590DF93EC01DB01CA018C529140A109B1093E
S11305A0853D904CA140B10508F03FC02550243052
S11305B0E0F580E2888388E18983220F2A83053469
S11305C021F48A8180628A8305C00F3419F48A81F8
S11305D080638A83DB01CA0180589B47A14EBF4FC9
S11305E0880F991FAA1FBB1F880F991FAA1FBB1F23
S11305F0880F991FAA1FBB1F440F551F661F771F23
S1130600440F551F661F771F9A01AB01220F331F3A
S1130610441F551F220F331F441F551FBC01CD011A
S1130620CFD1215031093D832C83DF91CF910F919C
S11306300895FC01908195FFFDCF668308950F9383
S11306401F93CF93DF93EB016881662339F08C010C
S11306502196C801EEDF69916111FBCFDF91CF9143
S11306601F910F910895D4D008F481E008950CD01F
S11306700AC102D140F0F9D030F021F45F3F19F003
S1130680EBC0511134C1EEC00FD198F39923C9F3D3
S11306905523B1F3951B550BBB27AA276217730784
S11306A0840738F09F5F5F4F220F331F441FAA1F38
S11306B0A9F333D00E2E3AF0E0E830D091505040F8
S11306C0E695001CCAF729D0FE2F27D0660F771FA6
S11306D0881FBB1F261737074807AB07B0E809F088
S11306E0BB0B802DBF01FF2793585F4F2AF09E3F1D
S11306F0510568F0B1C0FBC05F3FECF3983EDCF3FA
S1130700869577956795B795F7959F5FC9F7880F95
S1130710911D9695879597F90895E1E0660F771FE7
S1130720881FBB1F621773078407BA0720F0621B78
S1130730730B840BBA0BEE1F88F7E0950895BCD0B9
S113074088F09F5790F0B92F9927B751A0F0D1F0B6
S1130750660F771F881F991F1AF0BA95C9F712C040
S1130760B13081F0C3D0B1E00895C0C0672F782FB5
S11307708827B85F39F0B93FCCF3869577956795AC
S1130780B395D9F73EF490958095709561957F4F18
S11307908F4F9F4F0895E89409C097FB3EF49095BE
S11307A08095709561957F4F8F4F9F4F9923A9F046
S11307B0F92F96E9BB279395F695879577956795D5
S11307C0B795F111F8CFFAF4BB0F11F460FF1BC019
S11307D06F5F7F4F8F4F9F4F16C0882311F096E9AC
S11307E011C0772321F09EE8872F762F05C066235A
S11307F071F096E8862F70E060E02AF09A95660F13
S1130800771F881FDAF7880F9695879597F90895CB
S1130810990F0008550FAA0BE0E8FEEF161617060D
S1130820E807F907C0F012161306E407F50798F075
S1130830621B730B840B950B39F40A2661F0232B8E
S1130840242B252B21F408950A2609F4A140A6950A
S11308508FEF811D811D089597F99F6780E870E0EF
S113086060E008959FEF80EC089500240A94161622
S1130870170618060906089500240A94121613068A
S1130880140605060895092E0394000C11F4882318
S113089052F0BB0F40F4BF2B11F460FF04C06F5F34
S11308A07F4F8F4F9F4F089557FD9058440F551F0A
S11308B059F05F3F71F04795880F97FB991F61F0DE
S11308C09F3F79F087950895121613061406551F55
S11308D0F2CF4695F1DF08C0161617061806991FC1
S11308E0F1CF86957105610508940895E894BB27B6
S11308F066277727CB0197F908950BD0C4CFB5DFCE
S113090028F0BADF18F0952309F0A6CFABCF112455
S1130910EECFCADFA0F3959FD1F3950F50E0551F9A
S1130920629FF001729FBB27F00DB11D639FAA2740
S1130930F00DB11DAA1F649F6627B00DA11D661F8F
S1130940829F2227B00DA11D621F739FB00DA11DB0
S1130950621F839FA00D611D221F749F3327A00D6A
S1130960611D231F849F600D211D822F762F6A2F06
S113097011249F5750408AF0E1F088234AF0EE0F8B
S1130980FF1FBB1F661F771F881F91505040A9F798
S11309909E3F510570F060CFAACF5F3FECF3983EC5
S11309A0DCF3869577956795B795F795E7959F5FFF
S11309B0C1F7FE2B880F911D9695879597F9089599
S11309C0A1E21A2EAA1BBB1BFD010DC0AA1FBB1F4F
S11309D0EE1FFF1FA217B307E407F50720F0A21BC1
S11309E0B30BE40BF50B661F771F881F991F1A942E
S11309F069F760957095809590959B01AC01BD0158
S10B0A00CF010895F894FFCF23
S1130A08BD37863301436F6C6F7220697320677238
S1130A1865656E2100436F6C6F7220697320626C88
S1130A2875652100436F6C6F722069732072656469
S1050A38210097
S9030000FC
