S0130000526F626F74536F727465722E737265638C
S113000073C00000A1C000009FC000009DC000009C
S11300109BC000000C942F0F97C0000095C00000F7
S113002093C0000091C000008FC000008DC000008C
S11300308BC0000089C0000087C0000085C000009C
S113004083C0000081C000007FC000007DC00000AC
S11300507BC000000C945C0A77C0000075C00000EF
S113006073C0000071C000006FC000006DC00000CC
S11300706BC0000069C0000067C0000065C00000DC
S113008063C0000061C000005FC000005DC00000EC
S11300905BC0000059C0000057C0000055C00000FC
S11300A053C000003AC100004FC000004DC0000022
S11300B04BC000000DC1000047C0000045C0000057
S11300C043C0000041C000003FC000003DC000002C
S11300D03BC0000039C0000037C0000035C000003C
S11300E033C000009C02A20211241FBECFEFD1E254
S11300F0DEBFCDBF00E00CBF12E0A0E0B2E0E0E95B
S1130100F4E200E00BBF02C007900D92A437B107E0
S1130110D9F729E0A4E7B2E001C01D92A231B207E9
S1130120E1F710E0C3E7D0E000E006C02197010941
S1130130802FFE010E94E910C237D10780E0080732
S1130140A9F7E6D10C9437125BCF089508950F9365
S11301501F93CF93DF938C010F5F1F4F51F0EC017E
S1130160C55ADF4FC017D10721F02997CE01EEDF22
S1130170F9CFDF91CF911F910F910895613031F044
S113018000F16230A9F0633051F00895E8E0F1E045
S113019080818A7F808380818B7F80830895E8E0DB
S11301A0F1E080818A7F80838081846080830895E8
S11301B0E8E0F1E0808185608083808184608083D1
S11301C00895E8E0F1E080818560808380818B7F01
S11301D080830895613079F028F06230A9F06330AB
S11301E0E1F00895E8E0F1E08081887F80838081F8
S11301F0897F80830895E8E0F1E08081887F8083AF
S11302008081866080830895E8E0F1E080818760E2
S113021080838081897F80830895E8E0F1E0808194
S1130220876080838081866080830895BF92CF92A7
S1130230DF92EF92FF920F931F93CF93DF931F925E
S1130240CDB7DEB76C01B62E26D076018FEFE81A53
S1130250F80A09E010E00F3F8FEF180741F0C701DB
S113026074DF89E0E80EF11C01501109F4CFCE01CE
S1130270019611D060E0C60181DF6B2DC601AADFB3
S11302800F90DF91CF911F910F91FF90EF90DF902E
S1130290CF90BF900895E8E0F1E08081806880838A
S11302A0808180648083808180628083808180619A
S11302B080831092A00083EC8093A1001092A2008E
S11302C081E289BB1092A5001092A400789408954D
S11302D01F920F920FB60F9211248F939F93AF9397
S11302E0BF938091760290917702A0917802B091A9
S11302F079020196A11DB11D809376029093770235
S1130300A0937802B0937902BF91AF919F918F919E
S11303100F900FBE0F901F9018951F920F920FB65B
S11303200F9211240BB60F92CF92DF92EF92FF92AD
S11303300F931F932F933F934F935F936F937F93E9
S11303408F939F93AF93BF93EF93FF936091A60016
S11303507091A70080910A02882379F010927602A6
S113036010927702109278021092790270937B02B5
S113037060937A0210920A0281C0C89B13C08091D4
S1130380760290917702A0917802B0917902019659
S1130390A11DB11D8093760290937702A0937802F9
S11303A0B09379021092720081E289BB80917A0243
S11303B090917B026817790758F5809176029091A5
S11303C07702A0917802B0917902892B8A2B8B2B2A
S11303D099F08091760290917702A0917802B09181
S11303E079020197A109B10980937602909377026B
S11303F0A0937802B093790280917A0290917B0263
S1130400681B790B61507109CB01A0E0B0E009C011
S113041080917A0290917B02681B790BCB01A0E05A
S1130420B0E0409176025091770260917802709129
S11304307902BA01552744278A019B01080F191F25
S11304402A1F3B1FC901B801C0900602D0900702C1
S1130450E0900802F09009020E94D00FA7019601D3
S11304600E94861020E034E244E759E40E9486109A
S11304700E94A40F7093750260937402FF91EF9130
S1130480BF91AF919F918F917F916F915F914F91A8
S11304903F912F911F910F91FF90EF90DF90CF909C
S11304A00F900BBE0F900FBE0F901F9018958CE706
S11304B092E00E94000FFFCF0F931F93CF93DF931F
S11304C0EC018B01019771F46F3F7F4F59F48DEE6E
S11304D092E054D062E082E992E0A8DE8CE792E0F8
S11304E00E94980ECD2B31F40F3F1F4F19F482E96F
S11304F092E02DDEDF91CF911F910F910895FFCFF0
S11305000C9400110895009711F00C94981108951B
S1130510A12CB12CC12CD12CE12CF12C00E020E039
S113052030E048EC50E06EE072E087E592E00E9433
S1130530340B0E94EC0BFFCF6FEF7FEF81E090E074
S1130540BBCF08956FEF7FEF80E090E0B5CF0895C3
S11305508C01C0E0C630E8F7EC2FF0E03196EE0FE6
S1130560FF1FE00FF11F80819181DC01ED91FC916F
S11305700480F581E02D1995CF5FECCFAF92BF9247
S1130580CF92DF92EF92FF920F931F93CF93DF935B
S1130590EC014FD48E010F5F1F4FC801EED489E1E7
S11305A090E0AEDF7C01BE01E0D0FB82EA8289E10B
S11305B090E0A6DF7C01BE017ED1FD82EC8289E160
S11305C090E09EDF7C01BE011CD2FF82EE8289E1B5
S11305D090E096DF7C01B801B8D2F986E88689E11B
S11305E090E08EDF7C01B80154D3FB86EA8689E172
S11305F090E086DF7C01B801ECD3FD86EC86A12C6B
S1130600B12CC12CD12CE12CF12C00E09E0148EC42
S113061050E063E172E088EA92E00E94340BDF91DB
S1130620CF911F910F91FF90EF90DF90CF90BF90EB
S1130630AF900895CF92DF92EF92FF92CF93DF9322
S1130640FC0126892617C0F0EC01C680D780E0841F
S1130650F18470E080E090E00E94D20FA70196013F
S11306600E9486102A893B894C895D890E943C0F2F
S11306706A877B878C879D87DF91CF91FF90EF906E
S1130680DF90CF9008952EE132E0FC013183208386
S11306900895CF93DF93EC01F6DFCE0134DFDF91D1
S11306A0CF9108954F925F926F927F928F929F9213
S11306B0AF92BF92CF92DF92EF92FF92CF93DF93EC
S11306C0EC018A849B84AC84BD84CE84DF84E88876
S11306D0F98820E030E040E85DE3C701B6010E94FC
S11306E03C0F2B013C019B01AC01C501B4010E94EC
S11306F08210181674F44E865F86688A798AB3016C
S1130700A2018A819B81B9D38F89988D0E94330D70
S11307101DC0A7019601C501B4010E94A00F882342
S1130720ACF420E030E040E85DE3C701B6010E948C
S11307303B0FAB01BC014E875F87688B798B8A8145
S11307409B819BD38F89988D0E94330DDF91CF912C
S1130750FF90EF90DF90CF90BF90AF909F908F90DD
S11307607F906F905F904F900895CF93DF93EC014B
S1130770CB012AE232E0398328837B836A8349E30D
S11307805EE863E67DE34E835F836887798740E0B4
S113079050E060E270E44A8B5B8B6C8B7D8B2AE0CB
S11307A030E0388F2F8B24EB2E8B40E050E060EF4D
S11307B070E44A875B876C877D875FD38A859B85D6
S11307C0AC85BD858E879F87A88BB98BDF91CF9130
S11307D008952EE132E0FC01318320830895CF9304
S11307E0DF93EC01F6DFCE018EDEDF91CF91089529
S11307F04F925F926F927F928F929F92AF92BF922D
S1130800CF92DF92EF92FF92CF93DF93EC018A8431
S11308109B84AC84BD84CE84DF84E888F98820E09E
S113082030E040E85DE3C701B6010E943C0F2B01B4
S11308303C019B01AC01C501B4010E948210181651
S113084074F44E865F86688A798AB301A2018A812C
S11308509B813ED38F89988D0E94330D1DC0A701C3
S11308609601C501B4010E94A00F8823ACF420E0D6
S113087030E040E85DE3C701B6010E943B0FAB01E5
S1130880BC014E875F87688B798B8A819B8120D3DB
S11308908F89988D0E94330DDF91CF91FF90EF9057
S11308A0DF90CF90BF90AF909F908F907F906F908C
S11308B05F904F900895CF93DF93EC01CB0126E333
S11308C032E0398328837B836A834FE852EC65E7FF
S11308D07DE34E835F836887798740E050E060E47E
S11308E070E44A8B5B8B6C8B7D8B2AE030E0388F15
S11308F02F8B26E92E8B46E656E666E071E44A879E
S11309005B876C877D87E4D28A859B85AC85BD85B2
S11309108E879F87A88BB98BDF91CF9108952EE1A5
S113092032E0FC01318320830895CF93DF93EC01FF
S1130930F6DFCE01E8DDDF91CF9108954F925F920B
S11309406F927F928F929F92AF92BF92CF92DF92DB
S1130950EF92FF92CF93DF93EC018A849B84AC8463
S1130960BD84CE84DF84E888F98820E030E040E864
S11309705DE3C701B6010E943C0F2B013C019B01C2
S1130980AC01C501B4010E948210181674F44E869D
S11309905F86688A798AB301A2018A819B81C3D266
S11309A08F89988D0E94330D1DC0A7019601C50142
S11309B0B4010E94A00F8823ACF420E030E040E8AA
S11309C05DE3C701B6010E943B0FAB01BC014E873A
S11309D05F87688B798B8A819B81A5D28F89988D5B
S11309E00E94330DDF91CF91FF90EF90DF90CF9075
S11309F0BF90AF909F908F907F906F905F904F903B
S1130A000895CF93DF93EC01CB0122E432E03983E4
S1130A1028837B836A8349E35EE863E67DE34E8350
S1130A205F836887798740E050E060E270E44A8B36
S1130A305B8B6C8B7D8B2AE030E0388F2F8B24EB23
S1130A402E8B40E050E060EF70E44A875B876C8750
S1130A507D8769D28A859B85AC85BD858E879F8776
S1130A60A88BB98BDF91CF9108952EE132E0FC0180
S1130A70318320830895CF93DF93EC01F6DFCE0119
S1130A8042DDDF91CF9108954F925F926F927F92F2
S1130A908F929F92AF92BF92CF92DF92EF92FF928A
S1130AA0CF93DF93EC018A849B84AC84BD84CE8491
S1130AB0DF84E888F98820E030E040E85DE3C7019E
S1130AC0B6010E943C0F2B013C019B01AC01C50106
S1130AD0B4010E94821018166CF44E865F86688AF0
S1130AE0798AB301A2018C819D816DD28AE090E064
S1130AF0BAD71CC0A7019601C501B4010E94A00F7A
S1130B008823A4F420E030E040E85DE3C701B601A7
S1130B100E943B0FAB01BC014E875F87688B798BCA
S1130B208C819D8150D28AE090E09DD7DF91CF9156
S1130B30FF90EF90DF90CF90BF90AF909F908F90F9
S1130B407F906F905F904F900895CF93DF93EC0167
S1130B50CB012EE432E0398328837D836C8349E31F
S1130B605EE863E67DE34E835F836887798740E0D0
S1130B7050E060E270E44A8B5B8B6C8B7D8B25E0EC
S1130B8030E0388F2F8B24EB2E8B40E050E060EF69
S1130B9070E44A875B876C877D8715D28A859B853D
S1130BA0AC85BD858E879F87A88BB98BDF91CF914C
S1130BB008952EE132E0FC01318320830895CF9320
S1130BC0DF93EC01F6DFCE019EDCDF91CF91089537
S1130BD04F925F926F927F928F929F92AF92BF9249
S1130BE0CF92DF92EF92FF92CF93DF93EC018A844E
S1130BF09B84AC84BD84CE84DF84E888F98820E0BB
S1130C0030E040E85DE3C701B6010E943C0F2B01D0
S1130C103C019B01AC01C501B4010E94821018166D
S1130C206CF44E865F86688A798AB301A2018C814E
S1130C309D81F2D18F89988D16D71CC0A70196018A
S1130C40C501B4010E94A00F8823A4F420E030E081
S1130C5040E85DE3C701B6010E943B0FAB01BC0154
S1130C604E875F87688B798B8C819D81D5D18F89E5
S1130C70988DF9D6DF91CF91FF90EF90DF90CF90D0
S1130C80BF90AF909F908F907F906F905F904F90A8
S1130C900895CF93DF93EC01CB012AE532E0398349
S1130CA028837D836C8349E35EE863E67DE34E83BA
S1130CB05F836887798740E050E060E270E44A8BA4
S1130CC05B8B6C8B7D8B21E030E0388F2F8B24EB9A
S1130CD02E8B4A875B876C877D879ED18A859B850F
S1130CE0AC85BD858E879F87A88BB98BDF91CF910B
S1130CF008952EE132E0FC01318320830895CF93DF
S1130D00DF93EC01F6DFCE01FEDBDF91CF91089596
S1130D104F925F926F927F928F929F92AF92BF9207
S1130D20CF92DF92EF92FF92CF93DF93EC018A840C
S1130D309B84AC84BD84CE84DF84E888F98820E079
S1130D4030E040E85DE3C701B6010E943C0F2B018F
S1130D503C019B01AC01C501B4010E94821018162C
S1130D606CF44E865F86688A798AB301A2018C810D
S1130D709D817BD18F89988D76D61CC0A701960161
S1130D80C501B4010E94A00F8823A4F420E030E040
S1130D9040E85DE3C701B6010E943B0FAB01BC0113
S1130DA04E875F87688B798B8C819D815ED18F891B
S1130DB0988D59D6DF91CF91FF90EF90DF90CF902F
S1130DC0BF90AF909F908F907F906F905F904F9067
S1130DD00895CF93DF93EC01CB0126E632E039830B
S1130DE028837D836C8349E25AE862EA7DE34E837B
S1130DF05F836887798740E050E060E270E44A8B63
S1130E005B8B6C8B7D8B21E030E0388F2F8B2FE355
S1130E102E8B4A875B876C877D8727D18A859B8544
S1130E20AC85BD858E879F87A88BB98BDF91CF91C9
S1130E30089584B1806284B984B1806484B984B132
S1130E40806884B988EA8093800084E1809381007B
S1130E50109282008EE692E0909387008093860041
S1130E60109289001092880010928B0010928A00D0
S1130E7010928D0010928C000895CF92DF92EF9221
S1130E80FF926A017B01209186003091870036959C
S1130E90279536952795ABE7B4E10E94F110969516
S1130EA08795BC017727072E000C880B990B0E94AD
S1130EB0D20FA70196010E9486100E94A40F70937E
S1130EC0890060938800FF90EF90DF90CF900895A1
S1130ED0CF92DF92EF92FF926A017B01209186000C
S1130EE0309187003695279536952795ABE7B4E181
S1130EF00E94F11096958795BC017727072E000C68
S1130F00880B990B0E94D20FA70196010E948610AC
S1130F100E94A40F70938B0060938A00FF90EF905F
S1130F20DF90CF900895CF92DF92EF92FF926A0103
S1130F307B01209186003091870036952795369560
S1130F402795ABE7B4E10E94F11096958795BC0113
S1130F507727072E000C880B990B0E94D20FA7014C
S1130F6096010E948610F0D770938D0060938C00D8
S1130F70FF90EF90DF90CF900895EAE0F1E0808158
S1130F8088608083808180618083808180628083A7
S1130F9088EA8093200184E1809321011092220148
S1130FA08EE692E090932701809326011092290106
S1130FB01092280110922B0110922A0110922D01F7
S1130FC010922C010895CF92DF92EF92FF926A0162
S1130FD07B0120912601309127013695279536957E
S1130FE02795ABE7B4E10E94F11096958795BC0173
S1130FF07727072E000C880B990BD4D7A7019601ED
S11310000E948610A1D77093290160932801FF9054
S1131010EF90DF90CF900895CF92DF92EF92FF92FE
S11310206A017B012091260130912701369527958D
S113103036952795ABE7B4E10E94F1109695879514
S1131040BC017727072E000C880B990BABD7A7019F
S113105096010E94861078D770932B0160932A0121
S1131060FF90EF90DF90CF900895CF92DF92EF92B0
S1131070FF926A017B012091260130912701369568
S1131080279536952795ABE7B4E10E94F110969524
S11310908795BC017727072E000C880B990B82D704
S11310A0A70196010E9486104FD770932D0160937B
S11310B02C01FF90EF90DF90CF900895FC010396F0
S11310C0928381832FEF3FEF348323839683858339
S11310D09087878310820895FC01118610860895F5
S11310E0CF93DF93FC01DB0121813281E9018A8105
S11310F09B8113969C938E9312978181928115966E
S11311009C938E9314978A819B81EC017D836C83DD
S1131110E9017B836A83728361831996FC93EE935E
S1131120189780818F5F8083DF91CF910895CF934B
S1131130DF93EB01488159814F3F2FEF520731F480
S1131140DC011796ED91FC9118970DC0FC013396C4
S113115003C00280F381E02DA281B3812D913C91E3
S113116042175307B0F7A281B381BB83AA831596B4
S1131170DC93CE931497FD83EC83D383C283998746
S11311808887FC0120812F5F2083DF91CF91089510
S1131190FC01A281B3818481958115969C938E93E1
S11311A01497A481B5818281938113969C938E9325
S11311B01297A085B18511968D919C911297E8178D
S11311C0F90731F48481958112969C938E9311973B
S11311D0118610868C9181508C9308958AEF87BD77
S11311E082E084BD93E095BD80936E00089531E163
S11311F0FC013083319722E220833197A3E3A0835B
S113120031976083319770833197108231971082C0
S1131210319760E86083319710823197108231975B
S11312201082319762E06083319763E06083319785
S113123064E06083319765E06083319766E06083A2
S1131240319767E06083319768E06083319769E0A4
S11312506083319760E1608331973083319732E165
S11312603083319733E13083319734E130833197E0
S113127035E13083319736E13083319737E130837C
S1131280319738E13083319739E13083319730E257
S11312903083319731E2308331972083319723E2D1
S11312A020833197408331975083319726E22083FE
S11312B0319727E22083319728E22083319729E26E
S11312C02083319720E32083319721E3208389977A
S11312D0089584DFA0910C09B0910D09CD91CDBF83
S11312E0DD91DEBFFF91EF91DF91CF91BF91AF917F
S11312F09F918F917F916F915F914F913F912F912A
S11313001F910F91FF90EF90DF90CF90BF90AF901F
S11313109F908F907F906F905F904F903F902F9011
S11313201F900F900CBE0F900BBE0F900FBE0F902E
S1131330089581E008950F920FB6F8940F920BB6BA
S11313400F920CB60F921F9211242F923F924F923C
S11313505F926F927F928F929F92AF92BF92CF9241
S1131360DF92EF92FF920F931F932F933F934F932C
S11313705F936F937F938F939F93AF93BF93CF9319
S1131380DF93EF93FF93A0910C09B0910D090DB673
S11313900D920EB60D9284D3A0910C09B0910D0953
S11313A0CD91CDBFDD91DEBFFF91EF91DF91CF9164
S11313B0BF91AF919F918F917F916F915F914F9169
S11313C03F912F911F910F91FF90EF90DF90CF905D
S11313D0BF90AF909F908F907F906F905F904F9051
S11313E03F902F901F900F900CBE0F900BBE0F904C
S11313F00FBE0F9008950F920FB6F8940F920BB68C
S11314000F920CB60F921F9211242F923F924F927B
S11314105F926F927F928F929F92AF92BF92CF9280
S1131420DF92EF92FF920F931F932F933F934F936B
S11314305F936F937F938F939F93AF93BF93CF9358
S1131440DF93EF93FF93A0910C09B0910D090DB6B2
S11314500D920EB60D92EFD123D3A0910C09B09149
S11314600D09CD91CDBFDD91DEBFFF91EF91DF91ED
S1131470CF91BF91AF919F918F917F916F915F9128
S11314804F913F912F911F910F91FF90EF90DF901B
S1131490CF90BF90AF909F908F907F906F905F9010
S11314A04F903F902F901F900F900CBE0F900BBE4B
S11314B00F900FBE0F9008959EDF1895CF93DF9382
S11314C0EC01B3D12091FB023091FC02C9018C0FD5
S11314D09D1F8C3D45E0940758F42817390758F4AC
S11314E0E901C350DD4F9093FC028093FB0205C0D9
S11314F0C0E0D0E002C0C0E0D0E044D2CE01DF9131
S1131500CF9108950895809103098230E0F313DFA9
S1131510FACFEF92FF920F931F93CF93DF937C0147
S1131520EB0181E290E0CADF8C01892BA1F02097C6
S113153019F4C701C3DF01C0CE01F801908F878B76
S1131540009729F4C801DEDF00E010E004C0A70121
S113155065EA70E076D7C801DF91CF911F910F91B2
S1131560FF90EF9008951F93CF93DF93EC01142F16
S113157048E050E049966CD718A2111110E01E8B78
S1131580CE010296A9DDCE010C96A6DDD987C887C7
S113159081E090E0811B91099D878C87DB8BCA8B4E
S11315A0DF91CF911F910895CF93C0E00FC08C2F8E
S11315B090E09C01220F331F220F331F220F331F91
S11315C0820F931F8D5F964F79DDCF5FCC2379F324
S11315D08AEF98E073DD81EF98E070DD84EE98E0A7
S11315E06DDD8AEF98E09093F0088093EF0881EF27
S11315F098E09093EE088093ED08CF910895CF93EF
S1131600DF93EC01E0910C09F0910D09938382833F
S11316108091E1089091E208C817D90760F46091BD
S11316200C0970910D098091ED089091EE086E5FA0
S11316307F4F7DDD16C060910C0970910D0980917A
S1131640EF089091F0086E5F7F4F71DD80910B027F
S113165090910C02C817D90720F4D0930C02C093C0
S11316600B02DF91CF9108952F923F924F925F9298
S11316707F928F929F92AF92BF92CF92DF92EF921E
S1131680FF920F931F93CF93DF9300D01F92CDB798
S1131690DEB79A8389834B015C834B831901702ED7
S11316A0B6012501CA0135DF5C01009709F46CC05D
S11316B0FC01C788D08C8B819C810197C80ED91EF0
S11316C00B811C819201472DB401C5014CDFA1019E
S11316D069817A81C6018BDDF50191838083E114F0
S11316E0F10419F0F701B182A0820FB6F8940F92B9
S11316F08091E3088F5F8093E30880910C099091B7
S11317000D09892B51F4B0920D09A0920C09809116
S1131710E308813089F448DF0FC08091DE0881112D
S11317200BC0E0910C09F0910D098689781620F020
S1131730B0920D09A0920C09F50186899091E008F8
S1131740981710F48093E0089091D9089F5F9093C4
S1131750D9089091DF08981710F48093DF0890E07F
S1131760B5016E5F7F4F9C01220F331F220F331F81
S1131770220F331F820F931F8D5F964FB1DC0F90A2
S11317800FBEF1E0F98302C08FEF8983E981E13074
S113179061F48091DE08882341F0E0910C09F09116
S11317A00D098689871508F4C6DD89810F900F908D
S11317B00F900F90DF91CF911F910F91FF90EF90B9
S11317C0DF90CF90BF90AF909F908F907F905F906D
S11317D04F903F902F900895AF92BF92CF92DF9297
S11317E0EF92FF920F93A12CB12CC12CD12CE12CA0
S11317F0F12C00E020E030E045E550E06EE672E0D8
S113180083E89AE031DF813041F4F8948093DE0874
S11318101092E2081092E1085CDD0F91FF90EF90C6
S1131820DF90CF90BF90AF9008958091DD088F5FD7
S11318308093DD0808950F931F93CF93DF938091D6
S1131840DD08811195C08091E1089091E20801962C
S11318509093E2088093E1088091E1089091E20876
S1131860892B99F58091EF089091F0082091ED086B
S11318703091EE083093F0082093EF089093EE082F
S11318808093ED088091DA088F5F8093DA08E09105
S1131890EF08F091F0088081811107C08FEF9FEF6E
S11318A090930C0280930B0210C0E091EF08F0912A
S11318B0F0080580F681E02D0680F781E02D828115
S11318C0938190930C0280930B022091E108309154
S11318D0E20880910B0290910C022817390708F452
S11318E04CC0E091EF08F091F0088081811107C0AD
S11318F08FEF9FEF90930C0280930B023EC0E09118
S1131900EF08F091F0080580F681E02DC681D781BB
S11319108A819B812091E1083091E20828173907D8
S113192028F490930C0280930B0227C08E010E5F63
S11319301F4FC8012DDC8C899D89892B19F0CE019C
S11319400C9626DC8E899091DF08981710F480930A
S1131950DF0890E09C01220F331F220F331F220F58
S1131960331F820F931FB8018D5F964FB9DBB9CF38
S11319708091DC088F5F8093DC08DF91CF911F9109
S11319800F910895FF920F931F93CF93DF930FB698
S1131990F8940F928091DD0881508093DD08809146
S11319A0DD08811155C08091E30881112FC053C017
S11319B0E091E908F091EA08C681D781CE010C963E
S11319C0E7DB8E010E5F1F4FC801E2DB8E89909129
S11319D0DF08981710F48093DF0890E09C01220F31
S11319E0331F220F331F220F331F820F931FB8019F
S11319F08D5F964F75DB9E89E0910C09F0910D097E
S1131A008689981720F0FF24F39401C0F12C80916B
S1131A10E4088111CDCF8091DC08811107C00CC08E
S1131A200ADF8091DC0881508093DC088091DC0817
S1131A308111F6CFFF24F39481E0F81621F0809110
S1131A40DB08813039F41092DB0875DC81E003C0D7
S1131A5080E001C080E00F900FBEDF91CF911F9115
S1131A600F91FF900895CF93DF93EC01892B89F0B8
S1131A70DCDE8091E1089091E208C80FD91F8091C3
S1131A800C0990910D09029683DBCE01B8DD7ADF53
S1131A9001C080E0811101C04EDCDF91CF91089537
S1131AA08091DD08882349F081E08093DB08089564
S1131AB08091DF0881508093DF088091DF0890E0F7
S1131AC0FC01EE0FFF1FEE0FFF1FEE0FFF1F8E0F27
S1131AD09F1FFC01ED5FF64F8081882349F38091BD
S1131AE0DF0890E09C01220F331F220F331F220FC7
S1131AF0331F280F391FD901AD5FB64F1196ED91F1
S1131B00FC9112970280F381E02D1296FC93EE93E0
S1131B1011972A5F364FE217F30729F422813381A4
S1131B20FD0132832183FC01EE0FFF1FEE0FFF1F27
S1131B30EE0FFF1F8E0F9F1FFC01ED5FF64F01801C
S1131B40F281E02D8681978190930D0980930C0991
S1131B5008952BB12F772BB924B32D7F24BB00001C
S1131B6092B988B984B38B7F84BB000084B384604A
S1131B7084BB000084B3826084BB08952BB12068C9
S1131B802BB924B32D7F24BB000092B988B984B348
S1131B908B7F84BB000084B3846084BB000084B367
S1131BA0826084BB089589E290E0D3CF089581E1F7
S1131BB090E0CFCF0895CF93C82F86E390E0C9DF9C
S1131BC08C2F90E0DBDFCF910895CF93C82F8AE369
S1131BD090E0BFDF8C2F90E0D1DFCF91089583B3E5
S1131BE0876083BB8AB180688AB98FEF81B987B96E
S1131BF084B3876084BB8BB180688BB984B38E7FD8
S1131C0084BB84EF91E02FDF84B3816084BB84EFD5
S1131C1091E029DF85E0D9DF88E0CDDFC8DFC3CFDD
S1131C2008958CE290E095CF089590E0982F88274E
S1131C30990F990F990F20E2629FB0011124862B0E
S1131C40972B842B9BCF08950F931F93CF93DF93F0
S1131C508617970778F4EB018C018AE290E079DF2C
S1131C60812F90E08BDFC80189DF8D2F90E086DF24
S1131C70CE0184DFDF91CF911F910F9108950F93CF
S1131C801F93CF93DF938617970778F4EB018C01AA
S1131C908BE290E05EDF812F90E070DFC8016EDFA1
S1131CA08D2F90E06BDFCE0169DFDF91CF911F9123
S1131CB00F9108956F927F928F929F92AF92BF92ED
S1131CC0CF92EF920F93CF93DF935B013A01E90137
S1131CD0BC01640F751F61507109D1DFB5016C0F30
S1131CE07D1F61507109C501AFDF9BDF812C912CF1
S1131CF054019301DE0175D286169706A806B9062B
S1131D0050F4402F6E2D8C2D90DF8FEF881A980A97
S1131D10A80AB80AEECF4BDFDF91CF910F91EF9075
S1131D20CF90BF90AF909F908F907F906F900895C9
S1131D300F931F93CF93DF93CDB7DEB766970FB69C
S1131D40F894DEBF0FBECDBF8C0187D0F80112829C
S1131D5013821482158216821782108612861186C7
S1131D6013861486158616861786108A118A128A97
S1131D70148A138A158ACE0145966FD08D899E895F
S1131D80D8018D939D9384E18B8746E44C8788E743
S1131D9090E09B8B8A8B3AEA3C8B84E68E878D8716
S1131DA09DE19F879AEE988B22E0298B5AE0FE01F1
S1131DB03B9601900D925A95E1F758EC59834A836A
S1131DC04CE251E0598748873A878C838B838CE2B5
S1131DD08D832E839F838AE0FE013196D8011C9661
S1131DE001900D928A95E1F7FADE66960FB6F894A3
S1131DF0DEBF0FBECDBFDF91CF911F910F9108952C
S1131E00CF92EF920F93CC24CA94EE24EA940FEF6E
S1131E1020EF30E040E451E060E070E080E090E0EA
S1131E2049DF0F91EF90CF9008952CE9FC012083B6
S1131E302CED2183E1E0F1E08081846080838DB129
S1131E4084608DB983B3866083BB88E080936A0025
S1131E508DB380618DBB78940895E7CF08951F9268
S1131E600F920FB60F92112410920D020F900FBE15
S1131E700F901F9018955058BB27AA270ED008C161
S1131E80F9D030F0FED020F031F49F3F11F41EF46D
S1131E90EEC00EF4E095E7FBE4C0E92F0AD180F32D
S1131EA0BA17620773078407950718F071F49EF553
S1131EB022C10EF4E0950B2EBA2FA02D0B01B9010F
S1131EC090010C01CA01A0011124FF27591B99F0AC
S1131ED0593F50F4503E68F11A16F040A22F232FB8
S1131EE0342F4427585FF3CF469537952795A79508
S1131EF0F0405395C9F77EF41F16BA0B620B730BAF
S1131F00840BBAF09150A1F0FF0FBB1F661F771F1F
S1131F10881FC2F70EC0BA0F621F731F841F48F4D4
S1131F20879577956795B795F7959E3F08F0B3CF5A
S1131F309395880F08F09927EE0F97958795089544
S1131F406CD008F481E00895BCD088F09F5790F0DD
S1131F50B92F9927B751A0F0D1F0660F771F881FCA
S1131F60991F1AF0BA95C9F712C0B13081F0C3D0E5
S1131F70B1E00895C0C0672F782F8827B85F39F083
S1131F80B93FCCF3869577956795B395D9F73EF429
S1131F9090958095709561957F4F8F4F9F4F0895D1
S1131FA0E89409C097FB3EF49095809570956195EF
S1131FB07F4F8F4F9F4F9923A9F0F92F96E9BB27A5
S1131FC09395F695879577956795B795F111F8CF21
S1131FD0FAF4BB0F11F460FF1BC06F5F7F4F8F4F8C
S1131FE09F4F16C0882311F096E911C0772321F082
S1131FF09EE8872F762F05C0662371F096E8862F1A
S113200070E060E02AF09A95660F771F881FDAF770
S1132010880F9695879597F90895990F0008550F9D
S1132020AA0BE0E8FEEF16161706E807F907C0F05A
S113203012161306E407F50798F0621B730B840B62
S1132040950B39F40A2661F0232B242B252B21F43C
S113205008950A2609F4A140A6958FEF811D811DDC
S1132060089597F99F6780E870E060E008959FEF16
S113207080EC089500240A9416161706180609061B
S1132080089500240A9412161306140605060895EA
S1132090092E0394000C11F4882352F0BB0F40F472
S11320A0BF2B11F460FF04C06F5F7F4F8F4F9F4FB2
S11320B0089557FD9058440F551F59F05F3F71F034
S11320C04795880F97FB991F61F09F3F79F087959B
S11320D00895121613061406551FF2CF4695F1DF24
S11320E008C0161617061806991FF1CF86957105B4
S11320F0610508940895E894BB2766277727CB01E8
S113210097F908958ADF08F48FEF08950BD0C0CFB4
S1132110B1DF28F0B6DF18F0952309F0A2CFA7CFDE
S11321201124EACFC6DFA0F3959FD1F3950F50E0B9
S1132130551F629FF001729FBB27F00DB11D639F75
S1132140AA27F00DB11DAA1F649F6627B00DA11D1B
S1132150661F829F2227B00DA11D621F739FB00DC1
S1132160A11D621F839FA00D611D221F749F332731
S1132170A00D611D231F849F600D211D822F762FCA
S11321806A2F11249F5750408AF0E1F088234AF0C7
S1132190EE0FFF1FBB1F661F771F881F9150504013
S11321A0A9F79E3F510570F05CCFA6CF5F3FECF3DB
S11321B0983EDCF3869577956795B795F795E795FF
S11321C09F5FC1F7FE2B880F911D9695879597F910
S11321D00895EE0FFF1F881F8BBF0790F691E02D27
S11321E01994A29FB001B39FC001A39F700D811DDC
S11321F01124911DB29F700D811D1124911D08950C
S11322000F931F93CF93DF938230910510F482E0F4
S113221090E0E0911009F091110920E030E0A0E095
S1132220B0E0309719F14081518102811381481740
S11322305907C8F08417950769F4109731F012967E
S11322400C93129713961C9327C0009310091093B4
S1132250110922C02115310519F04217530718F44A
S11322609A01BD01EF01DF01F801DBCF2115310532
S1132270F9F0281B390B2430310580F48A819B81C5
S11322806115710521F0FB019383828304C090934F
S1132290110980931009FE01329644C0FE01E20F39
S11322A0F31F8193919322503109398328833AC0D3
S11322B020910E0930910F09232B41F42091020241
S11322C03091030230930F0920930E0920910002EC
S11322D0309101022115310541F42DB73EB74091EB
S11322E0040250910502241B350BE0910E09F09174
S11322F00F09E217F307A0F42E1B3F0B2817390729
S113230078F0AC014E5F5F4F2417350748F04E0F4D
S11323105F1F50930F0940930E098193919302C05C
S1132320E0E0F0E0CF01DF91CF911F910F9108958C
S1132330CF93DF93009709F481C0FC013297138295
S11323401282A0911009B0911109109781F4208193
S11323503181820F931F20910E0930910F092817A4
S1132360390751F5F0930F09E0930E0967C0ED01A9
S113237020E030E0CE17DF0740F44A815B819E0104
S113238041155105F1F0EA01F5CFD383C2834081B1
S11323905181840F951FC817D90759F488819981F1
S11323A0840F951F0296918380838A819B819383F6
S11323B082832115310529F4F0931109E093100962
S11323C03DC0E901FB83EA8349915991C40FD51FAC
S11323D0EC17FD0761F480819181840F951F0296AB
S11323E0E90199838883828193819B838A83E0E0D6
S11323F0F0E012968D919C911397009719F0FD01CE
S1132400DC01F7CF8D919C9111979D012E5F3F4F79
S1132410820F931F20910E0930910F092817390755
S113242069F4309729F4109211091092100902C02E
S113243013821282B0930F09A0930E09DF91CF91FA
S11324400895DC0101C06D9341505040E0F70895B8
S1132450FB01DC014150504048F001900D920020F6
S1132460C9F701C01D9241505040E0F7089510E0B3
S1132470C3E7D0E000E005C0802FFE01AADE21966C
S1132480011DC437D10780E00807B1F7F894FFCFE6
S1132490000012092000BD37863601FFFFFF54619A
S11324A0736B004D6F746F727300000000000000C6
S11324B000007F021A030000000043034903520393
S11324C01A0300000000E903EF03F8031A030000F5
S11324D000008F0495049E041A03000000003505D3
S11324E03B0544051A0300000000D905DF05E80593
S11324F01A030000000079067F0688061A0349447F
S10725004C45000042
S9030000FC
