S0130000526F626F74536F727465722E737265638C
S113000071C000008FC000008DC000008BC00000D4
S113001089C0000087C0000085C0000083C00000C4
S113002081C000007FC000007DC000007BC00000D4
S113003079C0000077C0000075C0000073C00000E4
S113004071C000006FC000006DC000006BC00000F4
S113005069C000000C94270C65C0000063C0000058
S113006061C000005FC000005DC000005BC0000014
S113007059C0000057C0000055C0000053C0000024
S113008051C000004FC000004DC000004BC0000034
S113009049C0000047C0000045C0000043C0000044
S11300A041C00000F6C100003DC000003BC000009C
S11300B039C00000C9C1000035C0000033C00000D1
S11300C031C000002FC000002DC000002BC0000074
S11300D029C0000027C0000025C0000023C0000084
S11300E021C0000011241FBECFEFD1E2DEBFCDBF7F
S11300F000E00CBF12E0A0E0B2E0E6EEF5E200E0C2
S11301000BBF02C007900D92AC3CB107D9F728E0B1
S1130110ACECB2E001C01D92AB3EB207E1F7FED2F7
S11301200C94F1126DCF0895FC01808191810895A2
S1130130FC01828193810895FC0184819581089555
S1130140FC01718360830895FC01738362830895C5
S1130150FC01758364830895FC0160870895613010
S113016031F0D0F0623089F0633041F0089588B105
S11301708B7F88B988B1877F88B9089588B18B7FD0
S113018088B988B1886088B9089588B1846088B9CD
S113019088B1886088B9089588B1846088B988B1C5
S11301A0877F88B908958F929F92AF92BF92CF9222
S11301B0DF92EF92FF920F931F93CF93DF93EC01A3
S11301C061E0CDDFCE010ED18C0163E0CE01C7DF4B
S11301D0CE0108D17C0162E0CE01C1DFCE0102D1A3
S11301E06C01912C89E0891508F44AC0292D30E06E
S11301F05901AA0CBB1CAA0CBB1CAA0CBB1CA20E4A
S1130200B31E8FEFA81AB80AAC0EBD1EC5018CDF51
S11302100A960817190748F4C50186DF0A9780175C
S1130220910728F48824839403C0812C01C0812C75
S1130230882021F1C5017CDF0A96E816F90638F416
S1130240C50176DF0A978E159F0518F403C0812C2B
S113025001C0812C882091F0C5016EDF0A96C81672
S1130260D90638F4C50168DF0A978C159D0518F482
S113027003C0812C01C0812C811004C09394B2CF9F
S11302808FEF01C0892DDF91CF911F910F91FF90C6
S1130290EF90DF90CF90BF90AF909F908F90089594
S11302A0FF920F931F93CF93DF936A3050F5F62E8E
S11302B08C0161E054DFC80195D02F2D30E0E901B5
S11302C0CC0FDD1FCC0FDD1FCC0FDD1FC20FD31FE2
S11302D02196C00FD11FBC01CE0132DF63E0C801FB
S11302E03EDFC8017FD0BC01CE012EDF62E0C80131
S11302F036DFC80177D0BC01CE012ADF6F2DCE01D5
S11303002BDFDF91CF911F910F91FF900895613002
S113031069F028F0623089F06330B1F0089588B153
S11303208E7F88B988B18D7F88B9089588B18E7F12
S113033088B988B1826088B9089588B1816088B924
S113034088B18D7F88B9089588B1816088B988B1F2
S1130350826088B90895BF92CF92DF92EF92FF92A4
S11303600F931F93CF93DF931F92CDB7DEB76C012A
S1130370B62E29D076018FEFE81AF80A09E010E0CA
S11303800F3F8FEF180741F0C701CDDE89E0E80E7B
S1130390F11C01501109F4CF8FEF87B91AB8CE01BF
S11303A0019611D060E0C601DADE6B2DC601AFDF25
S11303B00F90DF91CF911F910F91FF90EF90DF90FD
S11303C0CF90BF9008951092A00083EC8093A10079
S11303D01092A20081E289BB1092A5001092A400A1
S11303E07894089581E080930A021092D3021092C7
S11303F0D2021092CD021092CC021092CE02109230
S1130400CF021092D0021092D10281E289BB809374
S113041072008091CC029091CD02892B81F480915D
S1130420CE029091CF02A091D002B091D1020B974D
S1130430A105B10570F31092720081E289BB80912D
S1130440CC029091CD0208951F920F920FB60F9295
S113045011248F939F93AF93BF938091CE02909179
S1130460CF02A091D002B091D1020196A11DB11D7D
S11304708093CE029093CF02A093D002B093D10286
S1130480BF91AF919F918F910F900FBE0F901F90CE
S113049018951F920F920FB60F9211240BB60F925C
S11304A0CF92DF92EF92FF920F931F932F933F937C
S11304B04F935F936F937F938F939F93AF93BF9368
S11304C0EF93FF936091A6007091A70080910A02B8
S11304D0882379F01092CE021092CF021092D002AB
S11304E01092D1027093D3026093D20210920A0246
S11304F081C0C89B13C08091CE029091CF02A0917D
S1130500D002B091D1020196A11DB11D8093CE02FB
S11305109093CF02A093D002B093D10210927200B4
S113052081E289BB8091D2029091D3026817790746
S113053058F58091CE029091CF02A091D002B09153
S1130540D102892B8A2B8B2B99F08091CE0290912A
S1130550CF02A091D002B091D1020197A109B109B3
S11305608093CE029093CF02A093D002B093D10295
S11305708091D2029091D302681B790B615071096A
S1130580CB01A0E0B0E009C08091D2029091D302E7
S1130590681B790BCB01A0E0B0E04091CE025091F2
S11305A0CF026091D0027091D102BA01552744273D
S11305B08A019B01080F191F2A1F3B1FC901B8019B
S11305C0C0900602D0900702E0900802F090090261
S11305D00E947010A70196010E94261120E034E2C7
S11305E044E759E40E9426110E9444107093CD02FE
S11305F06093CC02FF91EF91BF91AF919F918F9146
S11306007F916F915F914F913F912F911F910F9126
S1130610FF90EF90DF90CF900F900BBE0F900FBE26
S11306200F901F901895CF93DF93CDB7DEB7CB55BE
S1130630D1090FB6F894DEBF0FBECDBF8C012EE4F6
S113064048E060E875E280E090E00E94740F8DE07D
S113065092E00E94CF0F62E0CE0101967CDE80E33F
S11306608F3619F00E94C10FFBCF8BE292E00E94FB
S1130670CF0F60E0CE01019613DE80E38F3619F0D0
S11306800E94C10FFBCF8AE392E00E94CF0F61E08A
S1130690CE01019605DE80E38F3619F00E94C10F6A
S11306A0FBCF89E492E00E94CF0F80E38F3619F0EC
S11306B00E94C10FFBCF88E592E00E94CF0FCE01CC
S11306C0019671DD882319F0813071F019C0C801D9
S11306D0B9D088E893E10E94FE0EC80171D188E880
S11306E093E10E94FE0E0CC0C801ACD088E893E1EF
S11306F00E94FE0EC80176D188E893E10E94FE0EA6
S113070084E690E00E94FE0EDACFFFCF0C94BA117B
S11307100895009711F00C9452120895CF93DF932B
S1130720CDB7DEB72E970FB6F894DEBF0FBECDBFA0
S1130730CE0101962BD0A12CB12CC12CD12CE12CB3
S1130740F12C00E09E012F5F3F4F48EC50E067E63C
S113075072E083E193E00E94FF0C0E94B70DFFCF8B
S11307608C01C0E0C630E8F7EC2FF0E03196EE0FD4
S1130770FF1FE00FF11F80819181DC01ED91FC915D
S11307800480F581E02D1995CF5FECCFAF92BF9235
S1130790CF92DF92EF92FF920F931F93CF93DF9349
S11307A0EC012CD58E010F5F1F4FC801BDD589E127
S11307B090E0ACDF7C01BE01C2D1FB82EA8289E118
S11307C090E0A4DF7C01BE0160D2FD82EC8289E16D
S11307D090E09CDF7C01BE01FED2FF82EE8289E1C3
S11307E090E094DF7C01B8019AD3F986E88689E128
S11307F090E08CDF7C01B80134D4FB86EA8689E181
S113080090E084DF7C01B801C9D4FD86EC86A12C7C
S1130810B12CC12CD12CE12CF12C00E09E0148EC30
S113082050E06CE672E080EB93E00E94FF0CDF91F5
S1130830CF911F910F91FF90EF90DF90CF90BF90D9
S1130840AF900895CF93DF93EC0188859985DC01FF
S1130850ED91FC910680F781E02D68E219958A8577
S11308609B85DC01ED91FC910680F781E02D6AE522
S113087019958A819B81DC01ED91FC910680F781B9
S1130880E02D60E019958CED95E00E94FE0E8C81C0
S11308909D81DC01ED91FC910680F781E02D63E2FE
S11308A019958E819F81DC01ED91FC910680F78181
S11308B0E02D6FE319958CED95E00E94FE0E8C857A
S11308C09D85DC01ED91FC910680F781E02D6FE3BD
S11308D019958AEF90E00E94FE0E8C819D81DC01C7
S11308E0ED91FC910680F781E02D66E419958E81E7
S11308F09F81DC01ED91FC910680F781E02D66E497
S1130900199588859985DC01ED91FC910680F78124
S1130910E02D66E41995DF91CF910895CF93DF938D
S1130920EC018CED95E00E94FE0E8C819D81DC0132
S1130930ED91FC910680F781E02D63E219958E819B
S11309409F81DC01ED91FC910680F781E02D68E246
S113095019958CED95E00E94FE0E8C859D85DC0139
S1130960ED91FC910680F781E02D60E019958AEF06
S113097090E00E94FE0E8C819D81DC01ED91FC9142
S11309800680F781E02D6AE519958E819F81DC014F
S1130990ED91FC910680F781E02D6AE51995888533
S11309A09985DC01ED91FC910680F781E02D6AE5E3
S11309B019958AEF90E00E94FE0EDF91CF91089581
S11309C0CF93DF93EC018A819B81DC01ED91FC9153
S11309D00680F781E02D6AE51995CE019FDFDF914E
S11309E0CF910895CF93DF93EC018A819B81DC0141
S11309F0ED91FC910680F781E02D67E81995CE0111
S1130A008DDFDF91CF910895CF92DF92EF92FF9225
S1130A10CF93DF93FC0126892617C0F0EC01C68032
S1130A20D780E084F18470E080E090E00E9472104E
S1130A30A70196010E9426112A893B894C895D8968
S1130A400E94DC0F6A877B878C879D87DF91CF911B
S1130A50FF90EF90DF90CF90089527E732E0FC01FC
S1130A60318320830895CF93DF93EC01F6DFCE0129
S1130A7050DEDF91CF9108954F925F926F927F92F3
S1130A808F929F92AF92BF92CF92DF92EF92FF929A
S1130A90CF93DF93EC018A849B84AC84BD84CE84A1
S1130AA0DF84E888F98820E030E040E85DE3C701AE
S1130AB0B6010E94DC0F2B013C019B01AC01C50176
S1130AC0B4010E942211181674F44E865F86688A57
S1130AD0798AB301A2018A819B81AED38F89988DD3
S1130AE00E94FE0E1DC0A7019601C501B4010E941B
S1130AF040108823ACF420E030E040E85DE3C70117
S1130B00B6010E94DB0FAB01BC014E875F87688B87
S1130B10798B8A819B8190D38F89988D0E94FE0E58
S1130B20DF91CF91FF90EF90DF90CF90BF90AF9087
S1130B309F908F907F906F905F904F900895CF9388
S1130B40DF93EC01CB0123E832E0398328837B83F4
S1130B506A8349E35EE863E67DE34E835F836887E7
S1130B60798740E050E060E270E44A8B5B8B6C8BE9
S1130B707D8B2AE030E0388F2F8B24EB2E8B40E0E6
S1130B8050E060EF70E44A875B876C877D8754D3BD
S1130B908A859B85AC85BD858E879F87A88BB98BFD
S1130BA0DF91CF91089527E732E0FC013183208360
S1130BB00895CF93DF93EC01F6DFCE01AADDDF9138
S1130BC0CF9108954F925F926F927F928F929F92EE
S1130BD0AF92BF92CF92DF92EF92FF92CF93DF93C7
S1130BE0EC018A849B84AC84BD84CE84DF84E88851
S1130BF0F98820E030E040E85DE3C701B6010E94D7
S1130C00DC0F2B013C019B01AC01C501B4010E9426
S1130C102211181674F44E865F86688A798AB301A5
S1130C20A2018A819B8130D38F89988D0E94FE0E08
S1130C301DC0A7019601C501B4010E94401088237C
S1130C40ACF420E030E040E85DE3C701B6010E9467
S1130C50DB0FAB01BC014E875F87688B798B8A8180
S1130C609B8112D38F89988D0E94FE0EDF91CF91C4
S1130C70FF90EF90DF90CF90BF90AF909F908F90B8
S1130C807F906F905F904F900895CF93DF93EC0126
S1130C90CB012FE832E0398328837B836A834FE8D2
S1130CA052EC65E77DE34E835F836887798740E094
S1130CB050E060E470E44A8B5B8B6C8B7D8B2AE0A4
S1130CC030E0388F2F8B26E92E8B46E656E666E019
S1130CD071E44A875B876C877D87D6D28A859B853A
S1130CE0AC85BD858E879F87A88BB98BDF91CF910B
S1130CF0089527E732E0FC01318320830895CF93E0
S1130D00DF93EC01F6DFCE0104DDDF91CF9108958E
S1130D104F925F926F927F928F929F92AF92BF9207
S1130D20CF92DF92EF92FF92CF93DF93EC018A840C
S1130D309B84AC84BD84CE84DF84E888F98820E079
S1130D4030E040E85DE3C701B6010E94DC0F2B01EF
S1130D503C019B01AC01C501B4010E94221118168B
S1130D6074F44E865F86688A798AB301A2018A8107
S1130D709B81B2D28F89988D0E94FE0E1DC0A7015F
S1130D809601C501B4010E9440108823ACF420E010
S1130D9030E040E85DE3C701B6010E94DB0FAB0120
S1130DA0BC014E875F87688B798B8A819B8194D243
S1130DB08F89988D0E94FE0EDF91CF91FF90EF9066
S1130DC0DF90CF90BF90AF909F908F907F906F9067
S1130DD05F904F900895CF93DF93EC01CB012BE903
S1130DE032E0398328837B836A8349E35EE863E6E0
S1130DF07DE34E835F836887798740E050E060E25B
S1130E0070E44A8B5B8B6C8B7D8B2AE030E0388FEF
S1130E102F8B24EB2E8B40E050E060EF70E44A8788
S1130E205B876C877D8758D28A859B85AC85BD8519
S1130E308E879F87A88BB98BDF91CF91089527E781
S1130E4032E0FC01318320830895CF93DF93EC01DA
S1130E50F6DFCE015EDCDF91CF9108954F925F9271
S1130E606F927F928F929F92AF92BF92CF92DF92B6
S1130E70EF92FF92CF93DF93EC018A849B84AC843E
S1130E80BD84CE84DF84E888F98820E030E040E83F
S1130E905DE3C701B6010E94DC0F2B013C019B01FD
S1130EA0AC01C501B4010E94221118166CF44E86DF
S1130EB05F86688A798AB301A2018C819D8154D2AC
S1130EC08AE090E09BD71CC0A7019601C501B4013C
S1130ED00E9440108823A4F420E030E040E85DE361
S1130EE0C701B6010E94DB0FAB01BC014E875F87CF
S1130EF0688B798B8C819D8137D28AE090E07ED794
S1130F00DF91CF91FF90EF90DF90CF90BF90AF90A3
S1130F109F908F907F906F905F904F900895CF93A4
S1130F20DF93EC01CB0127EA32E0398328837D8308
S1130F306C8349E35EE863E67DE34E835F83688701
S1130F40798740E050E060E270E44A8B5B8B6C8B05
S1130F507D8B25E030E0388F2F8B24EB2E8B40E007
S1130F6050E060EF70E44A875B876C877D87FCD133
S1130F708A859B85AC85BD858E879F87A88BB98B19
S1130F80DF91CF91089527E732E0FC01318320837C
S1130F900895CF93DF93EC01F6DFCE01BADBDF9146
S1130FA0CF9108954F925F926F927F928F929F920A
S1130FB0AF92BF92CF92DF92EF92FF92CF93DF93E3
S1130FC0EC018A849B84AC84BD84CE84DF84E8886D
S1130FD0F98820E030E040E85DE3C701B601ECD7D2
S1130FE02B013C019B01AC01C501B4010E942211FB
S1130FF018166CF44E865F86688A798AB301A2015A
S11310008C819D81D8D18F89988DF8D61BC0A7017A
S11310109601C501B4010E94401088239CF420E08D
S113102030E040E85DE3C701B601C5D7AB01BC01C0
S11310304E875F87688B798B8C819D81BCD18F892A
S1131040988DDCD6DF91CF91FF90EF90DF90CF9019
S1131050BF90AF909F908F907F906F905F904F90D4
S11310600895CF93DF93EC01CB0123EB32E0398376
S113107028837D836C8349E35EE863E67DE34E83E6
S11310805F836887798740E050E060E270E44A8BD0
S11310905B8B6C8B7D8B21E030E0388F2F8B24EBC6
S11310A02E8B4A875B876C877D8785D18A859B8554
S11310B0AC85BD858E879F87A88BB98BDF91CF9137
S11310C0089527E732E0FC01318320830895CF930C
S11310D0DF93EC01F6DFCE011CDBDF91CF910895A5
S11310E04F925F926F927F928F929F92AF92BF9234
S11310F0CF92DF92EF92FF92CF93DF93EC018A8439
S11311009B84AC84BD84CE84DF84E888F98820E0A5
S113111030E040E85DE3C701B6014ED72B013C0146
S11311209B01AC01C501B4010E94221118166CF494
S11311304E865F86688A798AB301A2018C819D817B
S113114061D18F89988D5AD61AC0A7019601C5011D
S1131150B40196D788239CF420E030E040E85DE3B6
S1131160C701B60128D7AB01BC014E875F87688BE6
S1131170798B8C819D8146D18F89988D3FD6DF9163
S1131180CF91FF90EF90DF90CF90BF90AF909F9062
S11311908F907F906F905F904F900895CF93DF93DF
S11311A0EC01CB012FEB32E0398328837D836C8300
S11311B049E25AE862EA7DE34E835F836887798770
S11311C040E050E060E270E44A8B5B8B6C8B7D8B7B
S11311D021E030E0388F2F8B2FE32E8B4A875B87FB
S11311E06C877D870FD18A859B85AC85BD858E876D
S11311F09F87A88BB98BDF91CF91089584B1806EBE
S113120084B988EA8093800084E1809381001092FD
S113121082008EE692E0909387008093860010927D
S113122089001092880010928B0010928A0010920C
S11312308D0010928C000895CF92DF92EF92FF926E
S11312406A017B01209186003091870036952795AD
S113125036952795ABE7B4E10E94AB119695879537
S1131260BC017727072E000C880B990B3BD7A701ED
S11312709601ECD709D77093890060938800FF909A
S1131280EF90DF90CF900895CF92DF92EF92FF928C
S11312906A017B012091860030918700369527955D
S11312A036952795ABE7B4E10E94AB1196958795E7
S11312B0BC017727072E000C880B990B13D7A701C5
S11312C09601C4D7E1D670938B0060938A00FF9097
S11312D0EF90DF90CF900895CF92DF92EF92FF923C
S11312E06A017B012091860030918700369527950D
S11312F036952795ABE7B4E10E94AB119695879597
S1131300BC017727072E000C880B990BEBD6A7019D
S113131096019CD7B9D670938D0060938C00FF9092
S1131320EF90DF90CF900895EAE0F1E08081886348
S1131330808388EA8093200184E1809321011092C4
S113134022018EE692E09093270180932601109269
S113135029011092280110922B0110922A01109257
S11313602D0110922C010895CF92DF92EF92FF92FB
S11313706A017B012091260130912701369527953A
S113138036952795ABE7B4E1E6D796958795BC01EA
S11313907727072E000C880B990BA4D6A70196017A
S11313A055D772D67093290160932801FF90EF906E
S11313B0DF90CF900895CF92DF92EF92FF926A016F
S11313C07B0120912601309127013695279536958A
S11313D02795ABE7B4E1BFD796958795BC017727EE
S11313E0072E000C880B990B7DD6A70196012ED7EA
S11313F04BD670932B0160932A01FF90EF90DF90FE
S1131400CF900895CF92DF92EF92FF926A017B0111
S113141020912601309127013695279536952795F9
S1131420ABE7B4E198D796958795BC017727072E4B
S1131430000C880B990B56D6A701960107D724D622
S113144070932D0160932C01FF90EF90DF90CF906B
S11314500895FC010396928381832FEF3FEF348339
S11314602383968385839087878310820895FC0164
S1131470118610860895CF93DF93FC01DB0121814F
S11314803281E9018A819B8113969C938E931297F2
S11314908181928115969C938E9314978A819B8166
S11314A0EC017D836C83E9017B836A8372836183AE
S11314B01996FC93EE93189780818F5F8083DF9158
S11314C0CF910895CF93DF93EB01488159814F3F2A
S11314D02FEF520731F4DC011796ED91FC91189728
S11314E00DC0FC01339603C00280F381E02DA2817C
S11314F0B3812D913C9142175307B0F7A281B38178
S1131500BB83AA831596DC93CE931497FD83EC8357
S1131510D383C28399878887FC0120812F5F20832E
S1131520DF91CF910895FC01A281B38184819581DB
S113153015969C938E931497A481B581828193818F
S113154013969C938E931297A085B18511968D91D5
S11315509C911297E817F90731F4848195811296CA
S11315609C938E931197118610868C9181508C9345
S113157008958AEF87BD82E084BD93E095BD809392
S11315806E00089531E1FC013083319722E220831B
S11315903197A3E3A08331976083319770833197A8
S11315A0108231971082319760E8608331971082FE
S11315B03197108231971082319762E060833197BE
S11315C063E06083319764E06083319765E0608312
S11315D0319766E06083319767E06083319768E014
S11315E06083319769E06083319760E1608331976C
S11315F03083319732E13083319733E1308331974F
S113160034E13083319735E13083319736E13083EB
S1131610319737E13083319738E13083319739E1BD
S11316203083319730E23083319731E23083319720
S11316302083319723E2208331974083319750836D
S1131640319726E22083319727E22083319728E2DD
S11316502083319729E22083319720E32083319737
S113166021E320838997089584DFA091E508B09150
S1131670E608CD91CDBFDD91DEBFFF91EF91DF9103
S1131680CF91BF91AF919F918F917F916F915F9116
S11316904F913F912F911F910F91FF90EF90DF9009
S11316A0CF90BF90AF909F908F907F906F905F90FE
S11316B04F903F902F901F900F900CBE0F900BBE39
S11316C00F900FBE0F90089581E008950F920FB60A
S11316D0F8940F920BB60F920CB60F921F9211242E
S11316E02F923F924F925F926F927F928F929F922E
S11316F0AF92BF92CF92DF92EF92FF920F931F931C
S11317002F933F934F935F936F937F938F939F9305
S1131710AF93BF93CF93DF93EF93FF93A091E5082B
S1131720B091E6080DB60D920EB60D9284D3A09139
S1131730E508B091E608CD91CDBFDD91DEBFFF9104
S1131740EF91DF91CF91BF91AF919F918F917F9155
S11317506F915F914F913F912F911F910F91FF9046
S1131760EF90DF90CF90BF90AF909F908F907F903D
S11317706F905F904F903F902F901F900F900CBEF2
S11317800F900BBE0F900FBE0F9008950F920FB6DF
S1131790F8940F920BB60F920CB60F921F9211246D
S11317A02F923F924F925F926F927F928F929F926D
S11317B0AF92BF92CF92DF92EF92FF920F931F935B
S11317C02F933F934F935F936F937F938F939F9345
S11317D0AF93BF93CF93DF93EF93FF93A091E5086B
S11317E0B091E6080DB60D920EB60D92EFD123D34B
S11317F0A091E508B091E608CD91CDBFDD91DEBFA3
S1131800FF91EF91DF91CF91BF91AF919F918F9114
S11318107F916F915F914F913F912F911F910F9104
S1131820FF90EF90DF90CF90BF90AF909F908F90FC
S11318307F906F905F904F903F902F901F900F90EC
S11318400CBE0F900BBE0F900FBE0F9008959EDF3D
S11318501895CF93DF93EC01B3D12091D40230914A
S1131860D502C9018C0F9D1F8C3D45E0940758F4A7
S11318702817390758F4E901CA52DD4F9093D5026D
S11318808093D40205C0C0E0D0E002C0C0E0D0E044
S113189044D2CE01DF91CF91089508958091DC0860
S11318A08230E0F313DFFACFEF92FF920F931F938E
S11318B0CF93DF937C01EB0181E290E0CADF8C01DE
S11318C0892BA1F0209719F4C701C3DF01C0CE0111
S11318D0F801908F878B009729F4C801DEDF00E0C0
S11318E010E004C0A70165EA70E065D6C801DF9185
S11318F0CF911F910F91FF90EF9008951F93CF9375
S1131900DF93EC01142F48E050E049965BD618A20F
S1131910111110E01E8BCE010296A9DDCE010C96AA
S1131920A6DDD987C88781E090E0811B91099D8756
S11319308C87DB8BCA8BDF91CF911F910895CF9356
S1131940C0E00FC08C2F90E09C01220F331F220FA8
S1131950331F220F331F820F931F8452974F79DD59
S1131960CF5FCC2379F383ED98E073DD8AEC98E0C4
S113197070DD8DEB98E06DDD83ED98E09093C90800
S11319808093C8088AEC98E09093C7088093C608AF
S1131990CF910895CF93DF93EC01E091E508F091A6
S11319A0E608938382838091BA089091BB08C81794
S11319B0D90760F46091E5087091E6088091C60843
S11319C09091C7086E5F7F4F7DDD16C06091E5087A
S11319D07091E6088091C8089091C9086E5F7F4FA6
S11319E071DD80910B0290910C02C817D90720F485
S11319F0D0930C02C0930B02DF91CF9108952F92E4
S1131A003F924F925F927F928F929F92AF92BF923A
S1131A10CF92DF92EF92FF920F931F93CF93DF93B6
S1131A2000D01F92CDB7DEB79A8389834B015C83C4
S1131A304B831901702EB6012501CA0135DF5C0103
S1131A40009709F46CC0FC01C788D08C8B819C8101
S1131A500197C80ED91E0B811C819201472DB40138
S1131A60C5014CDFA10169817A81C6018BDDF501D5
S1131A7091838083E114F10419F0F701B182A0820B
S1131A800FB6F8940F928091BC088F5F8093BC08C6
S1131A908091E5089091E608892B51F4B092E6080C
S1131AA0A092E5088091BC08813089F448DF0FC01A
S1131AB08091B70881110BC0E091E508F091E60828
S1131AC08689781620F0B092E608A092E508F50120
S1131AD086899091B908981710F48093B908909169
S1131AE0B2089F5F9093B2089091B808981710F4C9
S1131AF08093B80890E0B5016E5F7F4F9C01220F80
S1131B00331F220F331F220F331F820F931F845260
S1131B10974FB1DC0F900FBEF1E0F98302C08FEF55
S1131B208983E981E13061F48091B708882341F029
S1131B30E091E508F091E6088689871508F4C6DD8A
S1131B4089810F900F900F900F90DF91CF911F918B
S1131B500F91FF90EF90DF90CF90BF90AF909F9048
S1131B608F907F905F904F903F902F900895AF9209
S1131B70BF92CF92DF92EF92FF920F93A12CB12CE0
S1131B80C12CD12CE12CF12C00E020E030E045E523
S1131B9050E067EC72E08EE49CE031DF813041F488
S1131BA0F8948093B7081092BB081092BA085CDDD1
S1131BB00F91FF90EF90DF90CF90BF90AF9008957A
S1131BC08091B6088F5F8093B60808950F931F9392
S1131BD0CF93DF938091B608811195C08091BA08A4
S1131BE09091BB0801969093BB088093BA088091AA
S1131BF0BA089091BB08892B99F58091C8089091F7
S1131C00C9082091C6083091C7083093C9082093A9
S1131C10C8089093C7088093C6088091B3088F5F63
S1131C208093B308E091C808F091C90880818111BC
S1131C3007C08FEF9FEF90930C0280930B0210C0AC
S1131C40E091C808F091C9080580F681E02D06806E
S1131C50F781E02D8281938190930C0280930B0293
S1131C602091BA083091BB0880910B0290910C022C
S1131C702817390708F44CC0E091C808F091C90846
S1131C808081811107C08FEF9FEF90930C028093A6
S1131C900B023EC0E091C808F091C9080580F681A6
S1131CA0E02DC681D7818A819B812091BA08309129
S1131CB0BB082817390728F490930C0280930B0271
S1131CC027C08E010E5F1F4FC8012DDC8C899D89B2
S1131CD0892B19F0CE010C9626DC8E899091B808D8
S1131CE0981710F48093B80890E09C01220F331FDA
S1131CF0220F331F220F331F820F931FB801845208
S1131D00974FB9DBB9CF8091B5088F5F8093B50841
S1131D10DF91CF911F910F910895FF920F931F931D
S1131D20CF93DF930FB6F8940F928091B608815049
S1131D308093B6088091B608811155C08091BC0883
S1131D4081112FC053C0E091C208F091C308C6812D
S1131D50D781CE010C96E7DB8E010E5F1F4FC801C1
S1131D60E2DB8E899091B808981710F48093B80834
S1131D7090E09C01220F331F220F331F220F331FC9
S1131D80820F931FB8018452974F75DB9E89E091AF
S1131D90E508F091E6088689981720F0FF24F3946B
S1131DA001C0F12C8091BD088111CDCF8091B5087F
S1131DB0811107C00CC00ADF8091B508815080935F
S1131DC0B5088091B5088111F6CFFF24F39481E022
S1131DD0F81621F08091B408813039F41092B408D7
S1131DE075DC81E003C080E001C080E00F900FBE8D
S1131DF0DF91CF911F910F91FF900895CF93DF93BF
S1131E00EC01892B89F0DCDE8091BA089091BB0843
S1131E10C80FD91F8091E5089091E608029683DBEC
S1131E20CE01B8DD7ADF01C080E0811101C04EDC53
S1131E30DF91CF9108958091B608882349F081E01D
S1131E408093B40808958091B80881508093B808AD
S1131E508091B80890E0FC01EE0FFF1FEE0FFF1F0A
S1131E60EE0FFF1F8E0F9F1FFC01E452F74F80817E
S1131E70882349F38091B80890E09C01220F331F16
S1131E80220F331F220F331F280F391FD901A452E9
S1131E90B74F1196ED91FC9112970280F381E02DDA
S1131EA01296FC93EE9311972152374FE217F307E2
S1131EB029F422813381FD0132832183FC01EE0F59
S1131EC0FF1FEE0FFF1FEE0FFF1F8E0F9F1FFC0162
S1131ED0E452F74F0180F281E02D8681978190933F
S1131EE0E6088093E50808950F931F93522F8B0102
S1131EF09C010C52114021093109053D104C21402F
S1131F003105E0F54530D0F14930C0F520E22093A9
S1131F10C00028E12093C1004550440F4093C20003
S1131F20553431F4E2ECF0E020812062208307C0D4
S1131F305F3429F4E2ECF0E0208120632083DC01AB
S1131F40CB01880F991FAA1FBB1F880F991FAA1FB7
S1131F50BB1F9C01AD01220F331F441F551F220FCD
S1131F60331F441F551F60E074E284EF90E0D1D129
S1131F70215031093093C5002093C4001F910F9163
S1131F8008958091C0008823E4F78091C6000895E5
S1131F909091C00095FFFCCF8093C6000895CF9325
S1131FA0DF93EC018881882319F0F2DF2196FACFC0
S1131FB0DF91CF9108955058BB27AA270ED008C1AE
S1131FC0F9D030F0FED020F031F49F3F11F41EF42C
S1131FD0EEC00EF4E095E7FBE4C0E92F0AD180F3EC
S1131FE0BA17620773078407950718F071F49EF512
S1131FF022C10EF4E0950B2EBA2FA02D0B01B901CE
S113200090010C01CA01A0011124FF27591B99F06A
S1132010593F50F4503E68F11A16F040A22F232F76
S1132020342F4427585FF3CF469537952795A795C6
S1132030F0405395C9F77EF41F16BA0B620B730B6D
S1132040840BBAF09150A1F0FF0FBB1F661F771FDE
S1132050881FC2F70EC0BA0F621F731F841F48F493
S1132060879577956795B795F7959E3F08F0B3CF19
S11320709395880F08F09927EE0F97958795089503
S11320806CD008F481E00895BCD088F09F5790F09C
S1132090B92F9927B751A0F0D1F0660F771F881F89
S11320A0991F1AF0BA95C9F712C0B13081F0C3D0A4
S11320B0B1E00895C0C0672F782F8827B85F39F042
S11320C0B93FCCF3869577956795B395D9F73EF4E8
S11320D090958095709561957F4F8F4F9F4F089590
S11320E0E89409C097FB3EF49095809570956195AE
S11320F07F4F8F4F9F4F9923A9F0F92F96E9BB2764
S11321009395F695879577956795B795F111F8CFDF
S1132110FAF4BB0F11F460FF1BC06F5F7F4F8F4F4A
S11321209F4F16C0882311F096E911C0772321F040
S11321309EE8872F762F05C0662371F096E8862FD8
S113214070E060E02AF09A95660F771F881FDAF72F
S1132150880F9695879597F90895990F0008550F5C
S1132160AA0BE0E8FEEF16161706E807F907C0F019
S113217012161306E407F50798F0621B730B840B21
S1132180950B39F40A2661F0232B242B252B21F4FB
S113219008950A2609F4A140A6958FEF811D811D9B
S11321A0089597F99F6780E870E060E008959FEFD5
S11321B080EC089500240A941616170618060906DA
S11321C0089500240A9412161306140605060895A9
S11321D0092E0394000C11F4882352F0BB0F40F431
S11321E0BF2B11F460FF04C06F5F7F4F8F4F9F4F71
S11321F0089557FD9058440F551F59F05F3F71F0F3
S11322004795880F97FB991F61F09F3F79F0879559
S11322100895121613061406551FF2CF4695F1DFE2
S113222008C0161617061806991FF1CF8695710572
S1132230610508940895E894BB2766277727CB01A6
S113224097F908958ADF08F48FEF08950BD0C0CF73
S1132250B1DF28F0B6DF18F0952309F0A2CFA7CF9D
S11322601124EACFC6DFA0F3959FD1F3950F50E078
S1132270551F629FF001729FBB27F00DB11D639F34
S1132280AA27F00DB11DAA1F649F6627B00DA11DDA
S1132290661F829F2227B00DA11D621F739FB00D80
S11322A0A11D621F839FA00D611D221F749F3327F0
S11322B0A00D611D231F849F600D211D822F762F89
S11322C06A2F11249F5750408AF0E1F088234AF086
S11322D0EE0FFF1FBB1F661F771F881F91505040D2
S11322E0A9F79E3F510570F05CCFA6CF5F3FECF39A
S11322F0983EDCF3869577956795B795F795E795BE
S11323009F5FC1F7FE2B880F911D9695879597F9CE
S11323100895A1E21A2EAA1BBB1BFD010DC0AA1F22
S1132320BB1FEE1FFF1FA217B307E407F50720F03A
S1132330A21BB30BE40BF50B661F771F881F991FB5
S11323401A9469F760957095809590959B01AC01FE
S1132350BD01CF010895A29FB001B39FC001A39F07
S1132360700D811D1124911DB29F700D811D1124CA
S1132370911D08950F931F93CF93DF93823091059E
S113238010F482E090E0E091E908F091EA0820E09E
S113239030E0A0E0B0E0309719F140815181028132
S11323A0138148175907C8F08417950769F41097E3
S11323B031F012960C93129713961C9327C0009336
S11323C0E9081093EA0822C02115310519F04217D3
S11323D0530718F49A01BD01EF01DF01F801DBCFC7
S11323E021153105F9F0281B390B2430310580F40F
S11323F08A819B816115710521F0FB01938382839E
S113240004C09093EA088093E908FE01329644C020
S1132410FE01E20FF31F8193919322503109398316
S113242028833AC02091E7083091E808232B41F42F
S113243020910202309103023093E8082093E708C8
S113244020910002309101022115310541F42DB78C
S11324503EB74091040250910502241B350BE091D4
S1132460E708F091E808E217F307A0F42E1B3F0BEE
S11324702817390778F0AC014E5F5F4F24173507F2
S113248048F04E0F5F1F5093E8084093E70881938C
S1132490919302C0E0E0F0E0CF01DF91CF911F9172
S11324A00F910895CF93DF93009709F481C0FC0145
S11324B0329713821282A091E908B091EA0810972A
S11324C081F420813181820F931F2091E70830919C
S11324D0E8082817390751F5F093E808E093E7086E
S11324E067C0ED0120E030E0CE17DF0740F44A81F9
S11324F05B819E0141155105F1F0EA01F5CFD383CB
S1132500C28340815181840F951FC817D90759F49C
S113251088819981840F951F0296918380838A8193
S11325209B81938382832115310529F4F093EA0872
S1132530E093E9083DC0E901FB83EA83499159919D
S1132540C40FD51FEC17FD0761F480819181840FBE
S1132550951F0296E90199838883828193819B83E5
S11325608A83E0E0F0E012968D919C911397009796
S113257019F0FD01DC01F7CF8D919C9111979D011C
S11325802E5F3F4F820F931F2091E7083091E80898
S11325902817390769F4309729F41092EA08109241
S11325A0E90802C013821282B093E808A093E708F6
S11325B0DF91CF910895DC0101C06D9341505040EB
S11325C0E0F70895FB01DC014150504048F00190D0
S11325D00D920020C9F701C01D9241505040E0F710
S10925E00895F894FFCFFA
S11325E60000EB082000BD37863601FFFF49204A6C
S11325F6555354204655434B494E20524553544156
S11326065254454421210A0D0A0D004D6F76696E18
S113261667206F6E2031200A0D004D6F76696E6754
S1132626206F6E2032200A0D004D6F76696E67208A
S11326366F6E2033200A0D004D6F76696E67206F2A
S11326466E2037200A0D005461736B004D6F746F52
S113265672730000000000000000008503040500FA
S11326660000002D0533053C05040500000000D3D9
S113267605D905E20504050000000079067F0688F1
S1132686060405000000001F0725072E07040500A1
S1132696000000C307C907D2070405000000006153
S10F26A60867087008040549444C45000E
S9030000FC
