S0130000526F626F74536F727465722E737265638C
S113000071C000008FC000008DC000008BC00000D4
S113001089C0000087C0000085C0000083C00000C4
S113002081C000007FC000007DC000007BC00000D4
S113003079C0000077C0000075C0000073C00000E4
S113004071C000006FC000006DC000006BC00000F4
S113005069C000000C94290A65C0000063C0000058
S113006061C000005FC000005DC000005BC0000014
S113007059C0000057C0000055C0000053C0000024
S113008051C000004FC000004DC000004BC0000034
S113009049C0000047C0000045C0000043C0000044
S11300A041C0000065C000003DC000003BC000002E
S11300B039C0000038C0000035C0000033C0000063
S11300C031C000002FC000002DC000002BC0000074
S11300D029C0000027C0000025C0000023C0000084
S11300E021C0000011241FBECFEFD1E2DEBFCDBF7F
S11300F000E00CBF12E0A0E0B2E0E8EDF0E200E0C6
S11301000BBF02C007900D92A237B107D9F728E0C0
S1130110A2E7B2E001C01D92A139B207E1F70AD10A
S11301200C946A106DCF1F920F920FB60F92112488
S11301308F939F93AF93BF938091740290917502B4
S1130140A0917602B09177020196A11DB11D809312
S1130150740290937502A0937602B0937702BF91D4
S1130160AF919F918F910F900FBE0F901F90189594
S11301701F920F920FB60F9211240BB60F92CF92CB
S1130180DF92EF92FF920F931F932F933F934F931E
S11301905F936F937F938F939F93AF93BF93EF93EB
S11301A0FF936091A6007091A70080910A028823B2
S11301B079F01092740210927502109276021092E5
S11301C07702709379026093780210920A0281C0D8
S11301D0C89B13C08091740290917502A09176021D
S11301E0B09177020196A11DB11D80937402909382
S11301F07502A0937602B09377021092720081E2A6
S113020089BB80917802909179026817790758F533
S11302108091740290917502A0917602B091770258
S1130220892B8A2B8B2B99F0809174029091750203
S1130230A0917602B09177020197A109B109809348
S1130240740290937502A0937602B0937702809122
S1130250780290917902681B790B61507109CB0186
S1130260A0E0B0E009C08091780290917902681B07
S1130270790BCB01A0E0B0E040917402509175027B
S11302806091760270917702BA01552744278A015A
S11302909B01080F191F2A1F3B1FC901B801C090F9
S11302A00602D0900702E0900802F09009020E9432
S11302B00B0EA70196010E94C10E20E034E244E730
S11302C059E40E94C10E0E94DF0D70937302609383
S11302D07202FF91EF91BF91AF919F918F917F91A6
S11302E06F915F914F913F912F911F910F91FF90CB
S11302F0EF90DF90CF900F900BBE0F900FBE0F903A
S11303001F901895FFCF0C94330F0895009711F0A8
S11303100C94CB0F0895EC01CE01A0D084EF91E0B2
S11303200E94000DCE0158D184EF91E00E94000D8F
S1130330F3CFF1DFCF93DF93CDB7DEB72E970FB6B0
S1130340F894DEBF0FBECDBFCE0101962BD0A12CF9
S1130350B12CC12CD12CE12CF12C00E09E012F5F9B
S11303603F4F48EC50E06DE072E089E991E00E9473
S1130370010B0E94B90BFFCF8C01C0E0C630E8F737
S1130380EC2FF0E03196EE0FFF1FE00FF11F80819C
S11303909181DC01ED91FC910480F581E02D1995AA
S11303A0CF5FECCFAF92BF92CF92DF92EF92FF92EA
S11303B00F931F93CF93DF93EC0119D58E010F5F39
S11303C01F4FC801ADD589E190E09DDF7C01BE01DE
S11303D0B0D1FB82EA8289E190E095DF7C01BE0125
S11303E04ED2FD82EC8289E190E08DDF7C01BE017A
S11303F0ECD2FF82EE8289E190E085DF7C01B801D6
S113040088D3F986E88689E190E07DDF7C01B80134
S113041021D4FB86EA8689E190E075DF7C01B8018E
S1130420B6D4FD86EC86A12CB12CC12CD12CE12CA8
S1130430F12C00E09E0148EC50E062E172E08CEBAC
S113044091E00E94010BDF91CF911F910F91FF90DA
S1130450EF90DF90CF90BF90AF900895CF93DF934C
S1130460EC0188859985DC01ED91FC910680F7818A
S1130470E02D68E219958A859B85DC01ED91FC915C
S11304800680F781E02D6AE519958A819B81DC015C
S1130490ED91FC910680F781E02D60E019958CEDDB
S11304A095E00E94000D8C819D81DC01ED91FC9111
S11304B00680F781E02D63E219958E819F81DC012E
S11304C0ED91FC910680F781E02D6FE319958CED99
S11304D095E00E94000D8C859D85DC01ED91FC91D9
S11304E00680F781E02D6FE319958AEF90E00E9472
S11304F0000D8C819D81DC01ED91FC910680F781DA
S1130500E02D66E419958E819F81DC01ED91FC91CB
S11305100680F781E02D66E4199588859985DC01CC
S1130520ED91FC910680F781E02D66E41995DF9149
S1130530CF910895CF93DF93EC018CED95E00E9469
S1130540000D8C819D81DC01ED91FC910680F78189
S1130550E02D63E219958E819F81DC01ED91FC9180
S11305600680F781E02D68E219958CED95E00E94F4
S1130570000D8C859D85DC01ED91FC910680F78151
S1130580E02D60E019958AEF90E00E94000D8C81C7
S11305909D81DC01ED91FC910680F781E02D6AE5F7
S11305A019958E819F81DC01ED91FC910680F78184
S11305B0E02D6AE5199588859985DC01ED91FC911A
S11305C00680F781E02D6AE519958AEF90E00E9494
S11305D0000DDF91CF910895CF93DF93EC018A81D1
S11305E09B81DC01ED91FC910680F781E02D6AE5A9
S11305F01995CE019FDFDF91CF910895CF92DF92BD
S1130600EF92FF92CF93DF93FC0126892617C0F067
S1130610EC01C680D780E084F18470E080E090E053
S11306200E940D0EA70196010E94C10E2A893B89E2
S11306304C895D890E94770D6A877B878C879D87AB
S1130640DF91CF91FF90EF90DF90CF9008952DE14F
S113065032E0FC01318320830895CF93DF93EC01D2
S1130660F6DFCE0153DEDF91CF9108954F925F9272
S11306706F927F928F929F92AF92BF92CF92DF92AE
S1130680EF92FF92CF93DF93EC018A849B84AC8436
S1130690BD84CE84DF84E888F98820E030E040E837
S11306A05DE3C701B6010E94770D2B013C019B015C
S11306B0AC01C501B4010E94BD0E181674F44E8637
S11306C05F86688A798AB301A2018A819B81B3D348
S11306D08F89988D0E94000D1DC0A7019601C50148
S11306E0B4010E94DB0D8823ACF420E030E040E844
S11306F05DE3C701B6010E94760DAB01BC014E87D4
S11307005F87688B798B8A819B8195D38F89988D3C
S11307100E94000DDF91CF91FF90EF90DF90CF907A
S1130720BF90AF909F908F907F906F905F904F900D
S11307300895CF93DF93EC01CB0129E232E03983B2
S113074028837B836A8349E35EE863E67DE34E8323
S11307505F836887798740E050E060E270E44A8B09
S11307605B8B6C8B7D8B2AE030E0388F2F8B24EBF6
S11307702E8B40E050E060EF70E44A875B876C8723
S11307807D8759D38A859B85AC85BD858E879F8758
S1130790A88BB98BDF91CF9108952DE132E0FC0154
S11307A0318320830895CF93DF93EC01F6DFCE01EC
S11307B0ADDDDF91CF9108954F925F926F927F925A
S11307C08F929F92AF92BF92CF92DF92EF92FF925D
S11307D0CF93DF93EC018A849B84AC84BD84CE8464
S11307E0DF84E888F98820E030E040E85DE3C70171
S11307F0B6010E94770D2B013C019B01AC01C501A0
S1130800B4010E94BD0E181674F44E865F86688A81
S1130810798AB301A2018A819B8134D38F89988D0F
S11308200E94000D1DC0A7019601C501B4010E94DC
S1130830DB0D8823ACF420E030E040E85DE3C70141
S1130840B6010E94760DAB01BC014E875F87688BB1
S1130850798B8A819B8116D38F89988D0E94000D94
S1130860DF91CF91FF90EF90DF90CF90BF90AF904A
S11308709F908F907F906F905F904F900895CF934B
S1130880DF93EC01CB0125E332E0398328837B83BA
S11308906A834FE852EC65E77DE34E835F836887A4
S11308A0798740E050E060E470E44A8B5B8B6C8BAA
S11308B07D8B2AE030E0388F2F8B26E92E8B46E69D
S11308C056E666E071E44A875B876C877D87DAD2F7
S11308D08A859B85AC85BD858E879F87A88BB98BC0
S11308E0DF91CF9108952DE132E0FC013183208323
S11308F00895CF93DF93EC01F6DFCE0107DDDF919E
S1130900CF9108954F925F926F927F928F929F92B0
S1130910AF92BF92CF92DF92EF92FF92CF93DF9389
S1130920EC018A849B84AC84BD84CE84DF84E88813
S1130930F98820E030E040E85DE3C701B6010E9499
S1130940770D2B013C019B01AC01C501B4010E9450
S1130950BD0E181674F44E865F86688A798AB301D0
S1130960A2018A819B81B5D28F89988D0E94000D46
S11309701DC0A7019601C501B4010E94DB0D8823A7
S1130980ACF420E030E040E85DE3C701B6010E942A
S1130990760DAB01BC014E875F87688B798B8A81AA
S11309A09B8197D28F89988D0E94000DDF91CF9102
S11309B0FF90EF90DF90CF90BF90AF909F908F907B
S11309C07F906F905F904F900895CF93DF93EC01E9
S11309D0CB0121E432E0398328837B836A8349E3B2
S11309E05EE863E67DE34E835F836887798740E052
S11309F050E060E270E44A8B5B8B6C8B7D8B2AE069
S1130A0030E0388F2F8B24EB2E8B40E050E060EFEA
S1130A1070E44A875B876C877D875BD28A859B8578
S1130A20AC85BD858E879F87A88BB98BDF91CF91CD
S1130A3008952DE132E0FC01318320830895CF93A2
S1130A40DF93EC01F6DFCE0161DCDF91CF910895F5
S1130A504F925F926F927F928F929F92AF92BF92CA
S1130A60CF92DF92EF92FF92CF93DF93EC018A84CF
S1130A709B84AC84BD84CE84DF84E888F98820E03C
S1130A8030E040E85DE3C701B6010E94770D2B0119
S1130A903C019B01AC01C501B4010E94BD0E1816B6
S1130AA06CF44E865F86688A798AB301A2018C81D0
S1130AB09D815CD28AE090E0A3D71CC0A701960177
S1130AC0C501B4010E94DB0D8823A4F420E030E0CA
S1130AD040E85DE3C701B6010E94760DAB01BC019D
S1130AE04E875F87688B798B8C819D813FD28AE0AA
S1130AF090E086D7DF91CF91FF90EF90DF90CF9079
S1130B00BF90AF909F908F907F906F905F904F9029
S1130B100895CF93DF93EC01CB012DE432E03983C8
S1130B2028837D836C8349E35EE863E67DE34E833B
S1130B305F836887798740E050E060E270E44A8B25
S1130B405B8B6C8B7D8B25E030E0388F2F8B24EB17
S1130B502E8B40E050E060EF70E44A875B876C873F
S1130B607D8704D28A859B85AC85BD858E879F87CA
S1130B70A88BB98BDF91CF9108952DE132E0FC0170
S1130B80318320830895CF93DF93EC01F6DFCE0108
S1130B90BDDBDF91CF9108954F925F926F927F9268
S1130BA08F929F92AF92BF92CF92DF92EF92FF9279
S1130BB0CF93DF93EC018A849B84AC84BD84CE8480
S1130BC0DF84E888F98820E030E040E85DE3C7018D
S1130BD0B6018DD72B013C019B01AC01C501B401C9
S1130BE00E94BD0E18166CF44E865F86688A798A58
S1130BF0B301A2018C819D81E0D18F89988D00D7AA
S1130C001AC0A7019601C501B401D5D788239CF465
S1130C1020E030E040E85DE3C701B60167D7AB01EF
S1130C20BC014E875F87688B798B8C819D81C5D190
S1130C308F89988DE5D6DF91CF91FF90EF90DF906B
S1130C40CF90BF90AF909F908F907F906F905F9068
S1130C504F900895CF93DF93EC01CB0129E532E067
S1130C60398328837D836C8349E35EE863E67DE30F
S1130C704E835F836887798740E050E060E270E4E8
S1130C804A8B5B8B6C8B7D8B21E030E0388F2F8B14
S1130C9024EB2E8B4A875B876C877D878ED18A8570
S1130CA09B85AC85BD858E879F87A88BB98BDF918B
S1130CB0CF9108952DE132E0FC0131832083089522
S1130CC0CF93DF93EC01F6DFCE0120DBDF91CF91F0
S1130CD008954F925F926F927F928F929F92AF92FC
S1130CE0BF92CF92DF92EF92FF92CF93DF93EC010A
S1130CF08A849B84AC84BD84CE84DF84E888F988AC
S1130D0020E030E040E85DE3C701B601F0D62B01F6
S1130D103C019B01AC01C501B4010E94BD0E181633
S1130D206CF44E865F86688A798AB301A2018C814D
S1130D309D816AD18F89988D63D61AC0A7019601C7
S1130D40C501B40138D788239CF420E030E040E8A2
S1130D505DE3C701B601CAD6AB01BC014E875F870C
S1130D60688B798B8C819D814FD18F89988D48D6E2
S1130D70DF91CF91FF90EF90DF90CF90BF90AF9035
S1130D809F908F907F906F905F904F900895CF9336
S1130D90DF93EC01CB0125E632E0398328837D83A0
S1130DA06C8349E25AE862EA7DE34E835F83688795
S1130DB0798740E050E060E270E44A8B5B8B6C8B97
S1130DC07D8B21E030E0388F2F8B2FE32E8B4A87E9
S1130DD05B876C877D8718D18A859B85AC85BD85AB
S1130DE08E879F87A88BB98BDF91CF91089584B1AB
S1130DF0806284B984B1806484B984B1806884B920
S1130E0088EA8093800084E18093810010928200BC
S1130E108EE692E09093870080938600109289007A
S1130E201092880010928B0010928A0010928D000C
S1130E3010928C000895CF92DF92EF92FF926A0194
S1130E407B01209186003091870036952795369551
S1130E502795ABE7B4E1F8D796958795BC0177273A
S1130E60072E000C880B990BD8D6A701960189D7B9
S1130E70A6D67093890060938800FF90EF90DF906E
S1130E80CF900895CF92DF92EF92FF926A017B0197
S1130E9020918600309187003695279536952795C1
S1130EA0ABE7B4E1D1D796958795BC017727072E98
S1130EB0000C880B990BB1D6A701960162D77FD697
S1130EC070938B0060938A00FF90EF90DF90CF9037
S1130ED00895CF92DF92EF92FF926A017B012091F5
S1130EE08600309187003695279536952795ABE790
S1130EF0B4E1AAD796958795BC017727072E000CF5
S1130F00880B990B8AD6A70196013BD758D67093C4
S1130F108D0060938C00FF90EF90DF90CF90089548
S1130F20EAE0F1E080818860808380818061808351
S1130F3080818062808388EA8093200184E18093A9
S1130F402101109222018EE692E090932701809372
S1130F502601109229011092280110922B0110925F
S1130F602A0110922D0110922C010895CF92DF9244
S1130F70EF92FF926A017B012091260130912701B3
S1130F803695279536952795ABE7B4E15DD79695C9
S1130F908795BC017727072E000C880B990B3DD64B
S1130FA0A7019601EED60BD6709329016093280110
S1130FB0FF90EF90DF90CF900895CF92DF92EF9261
S1130FC0FF926A017B012091260130912701369519
S1130FD0279536952795ABE7B4E136D7969587954F
S1130FE0BC017727072E000C880B990B16D6A70196
S1130FF09601C7D6E4D570932B0160932A01FF9024
S1131000EF90DF90CF900895CF92DF92EF92FF920E
S11310106A017B012091260130912701369527959D
S113102036952795ABE7B4E10FD796958795BC0124
S11310307727072E000C880B990BEFD5A701960193
S1131040A0D6BDD570932D0160932C01FF90EF9035
S1131050DF90CF900895FC010396928381832FEF54
S11310603FEF34832383968385839087878310821D
S11310700895FC01118610860895CF93DF93FC0137
S1131080DB0121813281E9018A819B8113969C9342
S11310908E9312978181928115969C938E931497C7
S11310A08A819B81EC017D836C83E9017B836A8364
S11310B0728361831996FC93EE93189780818F5FF6
S11310C08083DF91CF910895CF93DF93EB01488123
S11310D059814F3F2FEF520731F4DC011796ED9100
S11310E0FC9118970DC0FC01339603C00280F38174
S11310F0E02DA281B3812D913C9142175307B0F7A3
S1131100A281B381BB83AA831596DC93CE931497F3
S1131110FD83EC83D383C28399878887FC01208174
S11311202F5F2083DF91CF910895FC01A281B381C9
S11311308481958115969C938E931497A481B5818F
S11311408281938113969C938E931297A085B18587
S113115011968D919C911297E817F90731F48481C7
S1131160958112969C938E931197118610868C917B
S113117081508C9308958AEF87BD82E084BD93E00B
S113118095BD80936E00089531E1FC013083319761
S113119022E220833197A3E3A083319760833197C0
S11311A070833197108231971082319760E86083A1
S11311B0319710823197108231971082319762E013
S11311C06083319763E06083319764E06083319793
S11311D065E06083319766E06083319767E0608300
S11311E0319768E06083319769E06083319760E10B
S11311F0608331973083319732E13083319733E123
S11312003083319734E13083319735E1308331973E
S113121036E13083319737E13083319738E13083D9
S1131220319739E13083319730E23083319731E2BD
S1131230308331972083319723E220833197408391
S113124031975083319726E22083319727E2208318
S1131250319728E22083319729E22083319720E3D4
S11312602083319721E320838997089584DFA09117
S11312708B08B0918C08CD91CDBFDD91DEBFFF917D
S1131280EF91DF91CF91BF91AF919F918F917F911A
S11312906F915F914F913F912F911F910F91FF900B
S11312A0EF90DF90CF90BF90AF909F908F907F9002
S11312B06F905F904F903F902F901F900F900CBEB7
S11312C00F900BBE0F900FBE0F90089581E008950C
S11312D00F920FB6F8940F920BB60F920CB60F92B2
S11312E01F9211242F923F924F925F926F927F929E
S11312F08F929F92AF92BF92CF92DF92EF92FF9222
S11313000F931F932F933F934F935F936F937F9309
S11313108F939F93AF93BF93CF93DF93EF93FF93F9
S1131320A0918B08B0918C080DB60D920EB60D925B
S113133084D3A0918B08B0918C08CD91CDBFDD9161
S1131340DEBFFF91EF91DF91CF91BF91AF919F915C
S11313508F917F916F915F914F913F912F911F9149
S11313600F91FF90EF90DF90CF90BF90AF909F9040
S11313708F907F906F905F904F903F902F901F9031
S11313800F900CBE0F900BBE0F900FBE0F900895E0
S11313900F920FB6F8940F920BB60F920CB60F92F1
S11313A01F9211242F923F924F925F926F927F92DD
S11313B08F929F92AF92BF92CF92DF92EF92FF9261
S11313C00F931F932F933F934F935F936F937F9349
S11313D08F939F93AF93BF93CF93DF93EF93FF9339
S11313E0A0918B08B0918C080DB60D920EB60D929B
S11313F0EFD123D3A0918B08B0918C08CD91CDBFB0
S1131400DD91DEBFFF91EF91DF91CF91BF91AF915D
S11314109F918F917F916F915F914F913F912F9108
S11314201F910F91FF90EF90DF90CF90BF90AF90FE
S11314309F908F907F906F905F904F903F902F90F0
S11314401F900F900CBE0F900BBE0F900FBE0F900D
S113145008959EDF1895CF93DF93EC01B3D12091CB
S11314607A0230917B02C9018C0F9D1F8C3D45E0AF
S1131470940758F42817390758F4E901C458DD4F84
S113148090937B0280937A0205C0C0E0D0E002C052
S1131490C0E0D0E044D2CE01DF91CF910895089509
S11314A0809182088230E0F313DFFACFEF92FF924B
S11314B00F931F93CF93DF937C01EB0181E290E0C4
S11314C0CADF8C01892BA1F0209719F4C701C3DF6F
S11314D001C0CE01F801908F878B009729F4C801D1
S11314E0DEDF00E010E004C0A70165EA70E0DCD5AF
S11314F0C801DF91CF911F910F91FF90EF90089554
S11315001F93CF93DF93EC01142F48E050E04996EA
S1131510D2D518A2111110E01E8BCE010296A9DDBE
S1131520CE010C96A6DDD987C88781E090E0811BA7
S113153091099D878C87DB8BCA8BDF91CF911F919B
S11315400895CF93C0E00FC08C2F90E09C01220F30
S1131550331F220F331F220F331F820F931F8E5707
S1131560974F79DDCF5FCC2379F389E798E073DD7A
S113157080E798E070DD83E698E06DDD89E798E028
S113158090936F0880936E0880E798E090936D08BD
S113159080936C08CF910895CF93DF93EC01E09191
S11315A08B08F0918C0893838283809160089091DA
S11315B06108C817D90760F460918B0870918C0892
S11315C080916C0890916D086E5F7F4F7DDD16C031
S11315D060918B0870918C0880916E0890916F08CF
S11315E06E5F7F4F71DD80910B0290910C02C817E2
S11315F0D90720F4D0930C02C0930B02DF91CF9152
S113160008952F923F924F925F927F928F929F9272
S1131610AF92BF92CF92DF92EF92FF920F931F93FC
S1131620CF93DF9300D01F92CDB7DEB79A8389831F
S11316304B015C834B831901702EB6012501CA014D
S113164035DF5C01009709F46CC0FC01C788D08CBD
S11316508B819C810197C80ED91E0B811C8192013C
S1131660472DB401C5014CDFA10169817A81C6010E
S11316708BDDF50191838083E114F10419F0F70106
S1131680B182A0820FB6F8940F92809162088F5FA6
S11316908093620880918B0890918C08892B51F477
S11316A0B0928C08A0928B0880916208813089F4F2
S11316B048DF0FC080915D0881110BC0E0918B0859
S11316C0F0918C088689781620F0B0928C08A0924C
S11316D08B08F501868990915F08981710F4809320
S11316E05F08909158089F5F9093580890915E0806
S11316F0981710F480935E0890E0B5016E5F7F4FF9
S11317009C01220F331F220F331F220F331F820F1E
S1131710931F8E57974FB1DC0F900FBEF1E0F98302
S113172002C08FEF8983E981E13061F480915D0823
S1131730882341F0E0918B08F0918C088689871505
S113174008F4C6DD89810F900F900F900F90DF9100
S1131750CF911F910F91FF90EF90DF90CF90BF90AA
S1131760AF909F908F907F905F904F903F902F907D
S11317700895AF92BF92CF92DF92EF92FF920F93B0
S1131780A12CB12CC12CD12CE12CF12C00E020E0B7
S113179030E045E550E06DE672E080E59AE031DF47
S11317A0813041F4F89480935D081092610810929E
S11317B060085CDD0F91FF90EF90DF90CF90BF90B9
S11317C0AF90089580915C088F5F80935C080895C2
S11317D00F931F93CF93DF9380915C08811195C081
S11317E080916008909161080196909361088093BC
S11317F060088091600890916108892B99F5809127
S11318006E0890916F0820916C0830916D083093A8
S11318106F0820936E0890936D0880936C088091F4
S113182059088F5F80935908E0916E08F0916F0812
S11318308081811107C08FEF9FEF90930C028093FA
S11318400B0210C0E0916E08F0916F080580F681DC
S1131850E02D0680F781E02D8281938190930C0224
S113186080930B02209160083091610880910B02F3
S113187090910C022817390708F44CC0E0916E08C7
S1131880F0916F088081811107C08FEF9FEF9093D3
S11318900C0280930B023EC0E0916E08F0916F0839
S11318A00580F681E02DC681D7818A819B812091B4
S11318B06008309161082817390728F490930C02C6
S11318C080930B0227C08E010E5F1F4FC8012DDCD1
S11318D08C899D89892B19F0CE010C9626DC8E8982
S11318E090915E08981710F480935E0890E09C0134
S11318F0220F331F220F331F220F331F820F931F18
S1131900B8018E57974FB9DBB9CF80915B088F5FD1
S113191080935B08DF91CF911F910F910895FF92FF
S11319200F931F93CF93DF930FB6F8940F92809188
S11319305C08815080935C0880915C08811155C0DB
S11319408091620881112FC053C0E0916808F09122
S11319506908C681D781CE010C96E7DB8E010E5F44
S11319601F4FC801E2DB8E8990915E08981710F42E
S113197080935E0890E09C01220F331F220F331FD7
S1131980220F331F820F931FB8018E57974F75DBB9
S11319909E89E0918B08F0918C088689981720F035
S11319A0FF24F39401C0F12C809163088111CDCF01
S11319B080915B08811107C00CC00ADF80915B082D
S11319C0815080935B0880915B088111F6CFFF24DE
S11319D0F39481E0F81621F080915A08813039F4AB
S11319E010925A0875DC81E003C080E001C080E0F9
S11319F00F900FBEDF91CF911F910F91FF9008952B
S1131A00CF93DF93EC01892B89F0DCDE80916008B1
S1131A1090916108C80FD91F80918B0890918C0810
S1131A20029683DBCE01B8DD7ADF01C080E081114C
S1131A3001C04EDCDF91CF91089580915C0888232A
S1131A4049F081E080935A08089580915E0881509E
S1131A5080935E0880915E0890E0FC01EE0FFF1F0A
S1131A60EE0FFF1FEE0FFF1F8E0F9F1FFC01EE579F
S1131A70F74F8081882349F380915E0890E09C01B0
S1131A80220F331F220F331F220F331F280F391F3A
S1131A90D901AE57B74F1196ED91FC911297028080
S1131AA0F381E02D1296FC93EE9311972B57374F49
S1131AB0E217F30729F422813381FD013283218364
S1131AC0FC01EE0FFF1FEE0FFF1FEE0FFF1F8E0F27
S1131AD09F1FFC01EE57F74F0180F281E02D8681B4
S1131AE0978190938C0880938B0808955058BB2756
S1131AF0AA270ED008C1F9D030F0FED020F031F47E
S1131B009F3F11F41EF4EEC00EF4E095E7FBE4C031
S1131B10E92F0AD180F3BA17620773078407950780
S1131B2018F071F49EF522C10EF4E0950B2EBA2F35
S1131B30A02D0B01B90190010C01CA01A0011124CF
S1131B40FF27591B99F0593F50F4503E68F11A167B
S1131B50F040A22F232F342F4427585FF3CF46950C
S1131B6037952795A795F0405395C9F77EF41F162E
S1131B70BA0B620B730B840BBAF09150A1F0FF0FF8
S1131B80BB1F661F771F881FC2F70EC0BA0F621FE4
S1131B90731F841F48F4879577956795B795F795D4
S1131BA09E3F08F0B3CF9395880F08F09927EE0F66
S1131BB09795879508956CD008F481E00895BCD07A
S1131BC088F09F5790F0B92F9927B751A0F0D1F022
S1131BD0660F771F881F991F1AF0BA95C9F712C0AC
S1131BE0B13081F0C3D0B1E00895C0C0672F782F21
S1131BF08827B85F39F0B93FCCF386957795679518
S1131C00B395D9F73EF490958095709561957F4F83
S1131C108F4F9F4F0895E89409C097FB3EF4909529
S1131C208095709561957F4F8F4F9F4F9923A9F0B1
S1131C30F92F96E9BB279395F69587957795679540
S1131C40B795F111F8CFFAF4BB0F11F460FF1BC084
S1131C506F5F7F4F8F4F9F4F16C0882311F096E917
S1131C6011C0772321F09EE8872F762F05C06623C5
S1131C7071F096E8862F70E060E02AF09A95660F7E
S1131C80771F881FDAF7880F9695879597F9089537
S1131C90990F0008550FAA0BE0E8FEEF1616170679
S1131CA0E807F907C0F012161306E407F50798F0E1
S1131CB0621B730B840B950B39F40A2661F0232BFA
S1131CC0242B252B21F408950A2609F4A140A69576
S1131CD08FEF811D811D089597F99F6780E870E05B
S1131CE060E008959FEF80EC089500240A9416168E
S1131CF0170618060906089500240A9412161306F6
S1131D00140605060895092E0394000C11F4882383
S1131D1052F0BB0F40F4BF2B11F460FF04C06F5F9F
S1131D207F4F8F4F9F4F089557FD9058440F551F75
S1131D3059F05F3F71F04795880F97FB991F61F049
S1131D409F3F79F087950895121613061406551FC0
S1131D50F2CF4695F1DF08C0161617061806991F2C
S1131D60F1CF86957105610508940895E894BB2721
S1131D7066277727CB0197F908958ADF08F48FEF58
S1131D8008950BD0C0CFB1DF28F0B6DF18F095234B
S1131D9009F0A2CFA7CF1124EACFC6DFA0F3959F05
S1131DA0D1F3950F50E0551F629FF001729FBB273E
S1131DB0F00DB11D639FAA27F00DB11DAA1F649FEA
S1131DC06627B00DA11D661F829F2227B00DA11D9D
S1131DD0621F739FB00DA11D621F839FA00D611D23
S1131DE0221F749F3327A00D611D231F849F600D44
S1131DF0211D822F762F6A2F11249F5750408AF07D
S1131E00E1F088234AF0EE0FFF1FBB1F661F771F08
S1131E10881F91505040A9F79E3F510570F05CCF48
S1131E20A6CF5F3FECF3983EDCF3869577956795F4
S1131E30B795F795E7959F5FC1F7FE2B880F911D26
S1131E409695879597F90895A29FB001B39FC00115
S1131E50A39F700D811D1124911DB29F700D811DD2
S1131E601124911D08950F931F93CF93DF93823014
S1131E70910510F482E090E0E0918F08F0919008D1
S1131E8020E030E0A0E0B0E0309719F140815181CA
S1131E900281138148175907C8F08417950769F41C
S1131EA0109731F012960C93129713961C9327C037
S1131EB000938F081093900822C02115310519F062
S1131EC04217530718F49A01BD01EF01DF01F8012D
S1131ED0DBCF21153105F9F0281B390B24303105EE
S1131EE080F48A819B816115710521F0FB01938344
S1131EF0828304C09093900880938F08FE013296E9
S1131F0044C0FE01E20FF31F8193919322503109E3
S1131F10398328833AC020918D0830918E08232B71
S1131F2041F4209102023091030230938E082093F1
S1131F308D0820910002309101022115310541F4F0
S1131F402DB73EB74091040250910502241B350B76
S1131F50E0918D08F0918E08E217F307A0F42E1B90
S1131F603F0B2817390778F0AC014E5F5F4F2417F9
S1131F70350748F04E0F5F1F50938E0840938D082D
S1131F808193919302C0E0E0F0E0CF01DF91CF9123
S1131F901F910F910895CF93DF93009709F481C0A7
S1131FA0FC01329713821282A0918F08B09190089D
S1131FB0109781F420813181820F931F20918D0825
S1131FC030918E082817390751F5F0938E08E09365
S1131FD08D0867C0ED0120E030E0CE17DF0740F444
S1131FE04A815B819E0141155105F1F0EA01F5CF6B
S1131FF0D383C28340815181840F951FC817D907A9
S113200059F488819981840F951F02969183808366
S11320108A819B81938382832115310529F4F0936E
S11320209008E0938F083DC0E901FB83EA8349915E
S11320305991C40FD51FEC17FD0761F4808191817C
S1132040840F951F0296E901998388838281938185
S11320509B838A83E0E0F0E012968D919C91139724
S1132060009719F0FD01DC01F7CF8D919C91119738
S11320709D012E5F3F4F820F931F20918D08309159
S11320808E082817390769F4309729F410929008BC
S113209010928F0802C013821282B0938E08A0930C
S11320A08D08DF91CF910895DC0101C06D934150FB
S11320B05040E0F70895FB01DC014150504048F0E6
S11320C001900D920020C9F701C01D92415050406B
S10B20D0E0F70895F894FFCF36
S11320D8000091082000BD37863601FFFF54617364
S11320E86B004D6F746F72730000000000000000F5
S11320F8008201FE020000000027032D033603FEC0
S11321080200000000CD03D303DC03FE020000003C
S113211800730479048204FE020000000019051FFC
S1132128052805FE0200000000BD05C305CC05FE18
S113213802000000005A0660066906FE0249444C83
S105214845004C
S9030000FC
